:020000041004E6
:100000000060002065A6041091750410455C041082
:10001000AA5555AA45554C420000000000000000BA
:1000200000000000000000000000000071C5041086
:1000300000000000000000008389041029C904109A
:10004000D5400410D9750410000000000000000025
:1000500079CE041057C5041011200410EFD00410FD
:100060000000000000000000000000000000000090
:10007000000000006D090410495C0410475C041086
:100080000000000073750410757504107775041076
:100090007975041085A604101D770410E525041059
:1000A0000000000000000000000000000000000050
:1000B0000000000000000000000000000000000040
:1000C00000F002F800F081F80CA030C808382418BD
:1000D0002D18A246671EAB4654465D46AC4201D180
:1000E00000F073F87E460F3E0FCCB6460126334231
:1000F00000D0FB1AA246AB463343184754440100D4
:10010000D4440100103A02D378C878C1FAD8520713
:1001100001D330C830C101D504680C6070470000BD
:100120000023002400250026103A01D378C1FBD813
:10013000520700D330C100D50B607047F0B543467D
:100140004C4655465E466746F8B4104C6B462360F5
:100150000F4C20680F4C20600F4C20680F4C206023
:100160000F4C20680F4C2060BFF34F8F30BF074CFF
:100170002468A546F8BC9846A146AA46B346BC46A4
:10018000F0BD00BF30BF00BF704700000800002076
:1001900004ED00E0D002002024ED00E0D4020020B5
:1001A00000E200E0D802002010B5642902D100F07E
:1001B0006FF810BD782902D100F0A0F810BD002022
:1001C00010BD1FB51FBD10B510BD04488546FFF713
:1001D000F8FF11F0DFF900F09DFB00000060002047
:1001E00003B4FFF7F0FF03BC00F09CFB70B50546BD
:1001F0000C46164602E00FCC0FC5103E102EFAD268
:10020000082E02D303CC03C5083E042E07D301CC2D
:1002100001C5361F03E021782970641C6D1C761E11
:10022000F9D270BD0FB4054910B503AA029800F0C9
:100230002DFB10BC08BC04B018470000E4020020ED
:1002400070B5044685690068C10601D5302600E016
:100250002026C00707D070BD62683046A16890476D
:10026000206A401C20626D1EF6D570BD70B5044634
:1002700085690078C00707D170BD6268A168202039
:100280009047206A401C20626D1EF6D570BD0000AC
:10029000F7B5002575291068009914A611D0C0463D
:1002A000C046002802DA404211A608E00099096819
:1002B0008A0701D50FA602E0490704D50EA601253D
:1002C00001E0C046C046009F0024243704E000F04F
:1002D000F1FA30313955641C0028F8D12B463246EA
:1002E0002146009800F079FAFEBD000000000000F1
:1002F0002D0000002B0000002000000070B5044617
:100300000D4621461068C046C0462188090502D521
:100310000F4A7A4402E00E4A7A440E322346002104
:10032000243305E006070009360F965D5E54491C2C
:100330000028F7D120780023000705D5702D03D0C1
:10034000002901D002231132204600F046FA70BD88
:100350009A400100F3B50446002081B02062204697
:10036000E168884700287DD0252802D06268A1680E
:1003700083E0454F00257F442046E16888472028D8
:10038000064608DB312E06D2B8192038007800283E
:1003900001D00543F0E7A80701D5042085430020DC
:1003A000E0610746A0612A2E0AD030460DF08CFA93
:1003B000002827D0B8000019303E0090866119E06F
:1003C0000298BA00121902C8916102902046E168B1
:1003D0008847012F064617D1E06900281FDA202040
:1003E00085431CE000980A218069484300998019E0
:1003F000303888612046E168884706460DF064FA87
:100400000028EFD1012F0AD02E2E08D12046E16816
:1004100088470646202005437F1C022FC3DBA069C6
:10042000002803DA4042A06101200543E80701D01B
:1004300010208543002E24D030464138192803D897
:100440000120C00205432036204625603146029A2D
:100450001546FFF7A9FE00280CD0012807D0ED1D96
:10046000E80800E00DE0C0000830029077E72D1D9D
:10047000029574E762683046A1689047206A401C84
:100480006CE7206AFEBD00005E400100034610B527
:100490000B439B070FD1042A0DD308C810C9121FA4
:1004A000A342F8D018BA21BA884201D9012010BD60
:1004B0000020C04310BD002A03D0D30703D0521C34
:1004C00007E0002010BD03780C78401C491C1B1B62
:1004D00007D103780C78401C491C1B1B01D1921ECC
:1004E000F1D1184610BD10B5044600F002F82046C0
:1004F00010BDF8B5042A2CD3830712D00B78491C01
:100500000370401C521E83070BD00B78491C0370EC
:10051000401C521E830704D00B78491C0370401CFA
:10052000521E8B079B0F05D0C91ADF002023DE1B4C
:1005300008C90AE0FFF75AFEF8BD1D4608C9FD408C
:100540001C46B4402C4310C0121F042AF5D2F308F5
:10055000C91A521EF0D40B78491C0370401C521E5D
:10056000EAD40B78491C0370401C012AE4D40978B2
:100570000170F8BD134610B50446CAB21946100200
:10058000821810048218204600F00FF8204610BD93
:1005900001E004C0091F0429FBD28B0701D50280AA
:1005A000801CC90700D00270704700290BD0C30718
:1005B00002D00270401C491E022904D3830702D5D1
:1005C0000280801C891EE3E70022EEE70022DFE7BD
:1005D0000378C2781946437812061B0219438378C0
:1005E000C0781B04194311430902090A0006084395
:1005F0007047002203098B4273D3030A8B4258D3FE
:10060000030B8B423CD3030C8B4221D312E00346F5
:100610000B437FD4002243088B4274D303098B42DF
:100620005FD3030A8B4244D3030B8B4228D3030CC2
:100630008B420DD3FF22090212BA030C8B4202D364
:100640001212090265D0030B8B4219D300E0090A8C
:10065000C30B8B4201D3CB03C01A5241830B8B4295
:1006600001D38B03C01A5241430B8B4201D34B037E
:10067000C01A5241030B8B4201D30B03C01A5241E3
:10068000C30A8B4201D3CB02C01A5241830A8B4268
:1006900001D38B02C01A5241430A8B4201D34B0251
:1006A000C01A5241030A8B4201D30B02C01A5241B5
:1006B000CDD2C3098B4201D3CB01C01A5241830969
:1006C0008B4201D38B01C01A524143098B4201D3A3
:1006D0004B01C01A524103098B4201D30B01C01ACE
:1006E0005241C3088B4201D3CB00C01A5241830848
:1006F0008B4201D38B00C01A524143088B4201D375
:100700004B00C01A5241411A00D2014652411046D4
:1007100070475DE0CA0F00D04942031000D3404249
:10072000534000229C4603098B422DD3030A8B427F
:1007300012D3FC22890112BA030A8B420CD389011D
:1007400092118B4208D3890192118B4204D3890103
:100750003AD0921100E08909C3098B4201D3CB0141
:10076000C01A524183098B4201D38B01C01A5241F6
:1007700043098B4201D34B01C01A524103098B42FA
:1007800001D30B01C01A5241C3088B4201D3CB00E5
:10079000C01A524183088B4201D38B00C01A5241C8
:1007A000D9D243088B4201D34B00C01A5241411A9F
:1007B00000D20146634652415B10104601D34042CD
:1007C000002B00D54942704763465B1000D340427E
:1007D00001B50020C046C04602BDFFB504460D4627
:1007E00081B0243000902168880604D51022E06989
:1007F0009143216000E00120A84201DD471B00E099
:1008000000270498A1697A191018081AA0612078A5
:10081000C00602D42046FFF713FD002608E0039827
:100820006268A168805D9047206A401C761C206247
:1008300004988642F3DB2078C0060AD52046FFF7ED
:10084000FFFC06E06268A16830209047206A401CE7
:10085000206238467F1E0028F4DC07E000986268BA
:10086000A168405D9047206A401C206228466D1EAA
:100870000028F3DC2046FFF7F9FC2078000602D5BB
:10088000022005B0F0BD0120FBE70000084B70B569
:100890000D467B4400F027F80446284600F036F861
:1008A000002802D00020C04370BD204670BD00006B
:1008B000C3EF000001468008081A02091018020A56
:1008C0001018020C1018C008820012185200891A61
:1008D00001E0401C0A390A29FBD2704701694A1C11
:1008E00002610878704700B58FB002910021059130
:1008F0000549019379440391114604906846FFF736
:1009000029FD0FB000BD0000E5FFFFFFC06880219A
:100910000840704710B50446C046C0462046FFF761
:100920005FFC10BD01491820ABBEFEE726000200A7
:10093000704730B58C180278401C13071B0F01D18B
:100940000378401C120906D10278401C03E00578A8
:10095000401C0D70491C5B1EF9D101E00B70491C55
:10096000521EFBD1A142E6D3002030BD7047F0B546
:100970000F46B5B01546002130AA0F23445C5E1A1D
:10098000491C94551029F9DB1022694630A800F063
:1009900017FB0026B400E019401CFFF719FE395D73
:1009A000000208430321891B89002CAC761C60508F
:1009B000042EEFDB214610236A46084600F0C8F9F2
:1009C00000200326311A8900635C8200AB54635A0D
:1009D00052191B0A53706358401C1B0C93706158CA
:1009E000090ED1700428EDDB35B0F0BD70B5BAB09A
:1009F000054600200C460090202069460872102011
:100A00000A9038901E46039201A800F087F922460A
:100A1000294601A800F008F86A46314601A800F00E
:100A200047F93AB070BD0000F7B5002592B00F4607
:100A30000446002804D0002F06D11498002803DDB6
:100A40006120400115B0F0BD1498002804DB102887
:100A500004DA2079800601D49448F3E7207941072D
:100A600001D4810702D59148401CEBE7402108439F
:100A70002071204614300F90143001901EE00026A3
:100A8000B00004904019C0190390FFF7A1FD00BA0F
:100A9000010A03980902C07807AA01430498761C4A
:100AA0000019406941400498042E1150E8DB636A44
:100AB00007A8019A0F9900F07FFA059D284610308B
:100AC000059014998842DADB2079800620D4002929
:100AD0001EDD0026B00004904019C0190390FFF7F6
:100AE00077FD00BA010A03980902C07807AA0143FA
:100AF0000498761C0019406941400498042E115056
:100B0000E8DB636A07A8019A0F9900F055FACAE07A
:100B100000200B900C900D900E900BA9636A084674
:100B2000019A00F049FA0B988721C00F48430B99AE
:100B30000C9A4900D20F11430B910C990D9A490060
:100B4000D20F11430C910D990E9A4900D20F114307
:100B50000D910E99149A49004140284610300E918B
:100B600090421CD10026B00002904019C019049098
:100B7000FFF72EFD00BA010A04980902C0780BABFA
:100B800001430298761C00194269029818584240A5
:100B90005140029807AA1150042EE4DB79E00B982B
:100BA0008722C00F50430B9A0C9B5200DB0F1A4355
:100BB0000B920C9A0D9B5200DB0F1A430C920D9A6C
:100BC000CB0F52001A430D924A00424014980E92E5
:100BD000401B0390C017820F039800261018801046
:100BE000029019E0B00010904019C0190490FFF76E
:100BF000EFFC00BA010A04980902C0780BAB01436C
:100C000010980019426910981858424051401098A5
:100C100007AA11500298761CB042E3DCB00001191B
:100C20000BAA49691258514007AA1150039B002191
:100C30001B1A42199C4696460BE072465218BA5C43
:100C4000CD0018235B1B9A4007AB1D586A401A5011
:100C5000491C8C45F1DC002909D0CD00182107AAD8
:100C60004D1B13588021A9404B40135005E007A9A4
:100C70000A580123DB075A400A5007A90BAA05E0CE
:100C8000B00003195B6915586B400B50761C042E9D
:100C9000F6DB636A07A8019A0F9900F08DF92079B5
:100CA0000421084320710020CCE600001D0C000048
:100CB000F8B516460F46040009D0002E07D0254689
:100CC0008035E86D401E102804D31348F8BD61201C
:100CD0004001F8BD2079400604D400221146204688
:100CE000FFF7A2FE2079022108432071002018217D
:100CF0000CE0C217920F1218920892001219830783
:100D00005269DB0ECB1ADA403A54401CEA6D82423B
:100D1000EFDC00203260F8BD1F0C000010B50400AD
:100D200007D002230022A16800F014FA010003D0CA
:100D30000CE06120400110BD00201022226102461B
:100D400083001B19401C5A610428F9DB084610BDBA
:100D5000FFB5D910490083B0891D0291036811685D
:100D600054684B404168956861408468C0686C4035
:100D7000A446D4681E0E60408C4CC5B2A65D655D6D
:100D80003606354367460E023F04360E3F0EA65D1B
:100D9000E75D36043F023E43354300950E0EDDB25B
:100DA000A65D655D36063543664636020704360E97
:100DB0003F0EA65DE75D36043F023E433543AE4637
:100DC000CDB2665D65462F0EE75D1D043F063E43CE
:100DD00007023F0E2D0EE75D655D3F042D022F4398
:100DE0003E4301966546EDB2070E665DE75D0D0474
:100DF0003F063E431F023F0EE75D2D0E645D3F043C
:100E000024022743029C3E43641E10320294002CAD
:100E100065DD674C00986749204043000098654DA8
:100E2000C00908401B2148434340009918464840E8
:100E30001821C841434000981021C8414340009800
:100E40000821C841434010685A4F43407046204033
:100E500041007046C00928401B25684341400846B0
:100E6000754668401825E841414070461025E84124
:100E7000414070460825E84141405068019D41408D
:100E80000198ED0920403D4040001B277D4368400C
:100E9000019F05467D401827FD416840019D1027B0
:100EA000FD416840019D0827FD4168409568684004
:100EB0008446304620403F4DF4092C4040001B251D
:100EC0006C436040044674401825EC416040102497
:100ED0003546E54108246840E641704049E7334C17
:100EE000C5B2665D1D0E645D240626430C02250E08
:100EF0002E4C645D65462D042F0E2C4D2404ED5DB3
:100F00002D022C432643294C0096DDB2655D0E0E62
:100F1000A45D2406254364462402260E234CA45DCA
:100F20000604370E214E2404F65D36023443254371
:100F3000AE461E4CCDB2645D65461C4E2F0EF55D6F
:100F40002D062C4305022F0EF55D1F042E043D0EC9
:100F5000164F7F5D65463F023E433443EEB2134D6C
:100F6000AF5D050E1148405D000607431802030EF1
:100F70000E48C05C09040B0E0C490004C95C936860
:100F80000902084307431068009E63405168049CAF
:100F90007040D268206075460498694041600498AA
:100FA0007A4083600498C26007B0F0BD88420510A3
:100FB0007F7F7F7F0101010100B5FFF7C9FE00BD02
:100FC000F7B50298002486100DE00098A7003D18A0
:100FD0002846FFF7FDFA00BA000AE9780002084344
:100FE0000199641CC851A642EFDC0199029A084697
:100FF00000F002F8FEBD0000F0B500231D4694107D
:1010000003E0AA0086588E506D1CAC42F9DC504FAC
:10101000FA1FF93A042C04D0062C28D0082C7DD1D4
:101020004FE0C86805022D0E040E555D145D2D06B7
:101030002C4305042D0EC0B2555D105C2D0400023A
:1010400005432C439D007D590868684044400120B9
:101050005B1C0C61840065180C59EE68401C6640EE
:101060002E610428F6DB0A2B71DA1031D9E74869C2
:1010700005022D0E040E555D145D2D062C4305044E
:101080002D0EC0B2555D105C2D04000205432C43AB
:101090009D007D5908686840444001205B1C8C61BC
:1010A000840065180C596E696640AE61032804D04F
:1010B000401C0628F4DB1831D9E7082B47DA042056
:1010C000EEE7C86905022D0E040E555D145D2D0670
:1010D0002C4305042D0EC0B2555D105C2D0400029A
:1010E00005432C439D007D59086868404440012019
:1010F0005B1C0C62840065180C59EE69401C66404C
:101100002E620428F6DB072B21DAC86A050EC4B26A
:10111000555D145D2D062C43050200E017E02D0EF1
:101120000004555D000E105C2D04000205430869A3
:101130002C43444005200C63840065180C59EE696B
:10114000401C66402E620828F6DB2031B9E7F0BD6E
:1011500088430510F8B59E468C46002807D0002924
:1011600005D059078C0F002A04D1012C02D0612030
:101170004001F8BD416A102903D0182901D0202967
:1011800005D1012C05D00169491E102901D31E4843
:10119000F8BDC2600179F92319400171012C20D0FA
:1011A00000210B468D002D18491C6B610429F9DBC9
:1011B000002113E0CB179B0F5B189F08BF003D1861
:1011C0002E4614360096CF1B565CFF0018236D691F
:1011D000DF1BBE403543009E491C356003698B42CE
:1011E000E8DC0179C9070CD1614681607146C90705
:1011F00001D0032C05D10146426A28316046FFF731
:10120000DFFE0020F8BD00001F0C0000FFB583B01A
:1012100000250E4601240C9F26E0F168A01D091848
:101220000222684606F0DDF96846008803F0EEFB0E
:10123000010020D068460A8D0088824212D001AA9F
:101240000BF0AAF901280DD101992620405C400736
:1012500008D506986A00101802221C3106F0C1F960
:101260006D1CADB2A41CA4B2304604F0CBFD401EF0
:10127000A042D2DC3D8007B0F0BDFFB583B00020B6
:101280000F9E0090304603F0C1FB050022D00D9860
:101290000C300190288DB04213D31099884210D899
:1012A000294602222A31019806F09BF910220E9954
:1012B0000D9806F092F9002809D0298D10988142E6
:1012C00008D02F462C6A2037BC423ED13FE00C9814
:1012D0000021018007B0F0BDA08BB04234D310993B
:1012E0008842F7D8204620300290C078012808D0E4
:1012F0002046083010220E9906F06FF9002808D019
:1013000022E0214602220831019806F06AF90D9880
:10131000F0E702988079400716D50098002801D19F
:10132000E08B0090E18B8142D4D10C98022200889E
:1013300041000698081821461C3106F052F90C9815
:101340000C990088401C08802468BC42C4D10398D2
:101350002D6808308542BDD0298D1098814299D9D9
:10136000B8E770B50C460546C968C068212206F08A
:1013700038F960896881207C2874208928810020C0
:1013800070BDFFB51E46134681B06A4619B200F023
:1013900069F81B27054600281FD01AE00A98002884
:1013A0001ED069460020085E391A8CB2B1B28C4258
:1013B00000D30C46E968801C08182246029906F002
:1013C00010F9029869460019361B02900020088027
:1013D0006D69002E14D0002DE0D1412005B0F0BD84
:1013E0006A4600206989105E091A8CB2B1B28C423B
:1013F00000D30C46E968801C091822460298DEE7F3
:101400000020EBE7F8B50746114801210068890282
:101410004018104D046AA97F3A4620680BF0CBF8BB
:101420000026002804D006804068022106F052FB06
:10143000002008E06268C100535ABB4201D1511834
:101440000E80401CC0B2A97F8142F3D80020F8BDB5
:10145000EC0200203822002000E008464169002903
:10146000FBD1704706E0002807D01B2904DB1B399D
:10147000406909B20029F6DC1180704770B50A484E
:101480000121006889024018084D046AA87F0021E4
:10149000C200206806F0A9F8A87F0021C200606899
:1014A00006F0A3F8002070BDEC02002038220020D6
:1014B00070B5902504460122114628460CF090FB99
:1014C000010003D028464C600CF076FB70BD000094
:1014D00010B5104A01211268A0321278D20714D038
:1014E00000F01AF810BD002901D0202100E01021E1
:1014F000017400214469416100F00EF8002801D018
:10150000412010BD2000F2D101E00028EBD10020E5
:1015100010BD0000EC02002010B505F0C3FB45280B
:1015200001D0412010BD10F05BFB002010BD70B554
:10153000902504460122002128460CF051FB0100B1
:1015400003D028464C600CF037FB70BD0320704779
:101550007FB50546684600890C4600281DD0E16825
:101560000C208871E068022202A9C01D06F039F83B
:10157000E068022203A9093006F033F805220121B0
:10158000204606F0D5FA2121E86889010843E86081
:101590000D20A872002004B070BD4220FBE77FB58B
:1015A0000546684600890C9E0C46002816D0694600
:1015B0008989884212D8E16808208871E06802228F
:1015C00002A9C01D06F00DF8E068022203A9093047
:1015D00006F007F8012E04D0022E0AD0422004B0F3
:1015E00070BDE068022208A90B3005F0FAFF07225F
:1015F00006E008AB10220921204606F0C7FA1522A2
:101600000121204606F094FA2121E8688901084367
:10161000E8600920A8720020E1E70000F8B50BF0AF
:1016200075FA1F4C032520682D024119097B0029FA
:1016300009D1A0300078C0072BD00EF04FFC00F08D
:10164000CBFF01F003FA00F057FC2068014620317F
:1016500040308A7E407882431AD1087E002817D114
:10166000104F3888000713D50920C0060669FA20F4
:101670000FF080FF797AC900401821684919896FF5
:10168000891B09020912884202DA002010F0EAF8E8
:10169000F8BD02F0BDFB03F031FA0AF0A5FBCEE77E
:1016A000EC020020C0000020F3B50446FF48FFB064
:1016B000007A8AB00190FE4880880490FD48006856
:1016C0004C90FD4E002081008B191B68401C4DAAD8
:1016D000C0B253500828F6D3F848006A4B90F84837
:1016E000006A4A9001208007016849914168489149
:1016F00081684791C168469101694591416944916A
:1017000081694391C1694291C16A4191006B4090E6
:10171000EC484068EC493F90C8683E90087F3D9097
:10172000E948203082883C92027A3B92027B3A92CE
:10173000096B3991017D3891008B3790E248403038
:10174000017A3691017C3591017D3491017E33918E
:10175000007F3290DC48603000783190DB480168CF
:10176000309141682F91017C2E91017D2D91D749B7
:1017700020310A792C920A892B92C06A2A90088A11
:1017800000222990D248110508180368910075AD10
:101790006B50456877AB5D50858B79AB5D50058CA0
:1017A0007BAB5D50858C7DAB5D50058D7FAB5D5017
:1017B000C56A81AB5D504C231D5A83AB5D50056DEE
:1017C00085AB5D50836D521C87A8D2B24350022A6C
:1017D000D8D30B20000700682890BE4841682591A7
:1017E00081682491018A2391818A229181692191C2
:1017F000017F2091B7492031098A1F91416B1E91C9
:10180000816B1D91C06B1C90B248403001681B91E8
:1018100041681A9180681990AF48818818910189B0
:101820001791017C1691017D1591018B1491007F18
:101830001390AA488188129101891191017C10911D
:10184000017D0F91018B0E91007F0D90A4480169DD
:10185000279140692690A34801680C91007A0B906B
:10186000A148006800282CD00020009000201421FE
:101870009E4A414389180D68820055AB9D504D68C2
:101880005DAB9D508D6865AB9D50CB68401C6DA9CC
:10189000C0B28B500828EAD38120C00501880A9184
:1018A00041680991017B089181690791416A06911C
:1018B000806A05900320800780680390032C02D083
:1018C00008E08B48D1E70920C006416803221207CF
:1018D00011434160874900200968874D28390291EA
:1018E000864F296004C98300401CFA50C0B22960A9
:1018F0000A28F7D301200BF075F881490020087001
:10190000FEF71CFC00200BF06DF87D4800780028E5
:101910007ED07C480121018300218181016108463C
:101920000299296081007A58296804C1401CC0B21C
:1019300029600A28F6D35E49049888805D494C984E
:10194000086000204DAA8100535889190B60401C83
:10195000C0B20828F7D359494B98086258484A99A9
:10196000016201239B07499818604898586047987E
:1019700098604698D8604598186144985861439893
:1019800098614298D8614198D862409818634D494F
:101990003F9848604C493E98C8603D9808774A484F
:1019A0003C9A203082803B9A02723A9A0273399AAA
:1019B0000A63389901753799018343483699403055
:1019C0000172359901743499017533990176329910
:1019D00001773D493198603108703C483099016089
:1019E0002F9941602E9901742D99017537492C9AD0
:1019F00020310A712B9A0A812A9AC2622998088298
:101A0000002275AD32481105081891006E5800E0AB
:101A1000C8E0066077AE7658466079AE765A86831F
:101A20007BAE765A06847DAE765A86847FAE765A31
:101A3000068581AE7658C66283AE765A4C273E52F2
:101A400085AE7658066587AE71588165521CD2B254
:101A5000022AD7D30B200007289901602048269935
:101A6000416100218161279901611A4825994160EE
:101A7000249981602399018222998182219981612F
:101A8000209901771E9941631D9981631C99C16357
:101A900010481B99403001601A9941601999816082
:101AA0000C491F98203108820B482DE0000020408F
:101AB0000000104000E100E000E400E000ED00E084
:101AC00000009040400000400000304000004040D6
:101AD0000000A0400000F0400000D0400000E040C6
:101AE00000E000E000007040000C7040080000A022
:101AF00051E5CC1A00000410E8020020281C002048
:101B00000C0000200000104818998180179901816D
:101B10001699017415990175149901831399017728
:101B200069481299818011990181109901740F9966
:101B300001750E9901830D99017764480C99016034
:101B40000B990172624900980860624F00205DADF8
:101B500014214143C919820055AEB6580E60AE58E3
:101B60004E6065AEB6588E606DAEB258CA60401C0D
:101B7000C0B20828ECD38120C0050A9901800999D8
:101B8000416008990173079981610699416205993D
:101B9000816203218907039888604F48007A0028F2
:101BA00045D074E04D4B1868400637D419684C484E
:101BB0004C4A0068556A41404B4E3668B5421AD1CE
:101BC0001B68834203D049480068084213D1484843
:101BD000012100680907054653680D400B409D42EE
:101BE00009D18B10516818401940884216D04148DD
:101BF0000069800712D50921C90608693E4B020910
:101C0000D01C984204D80A6912098242FBD305E02D
:101C10003A4810180A6912098242FBD1032C4DD1AF
:101C20000920C006416822079143416046E03448DC
:101C3000018909292BD30189812928D88A9900296A
:101C400025D002890921914302D1D96989051BD484
:101C500002891121914302D1D969490514D402891D
:101C60002121914302D1D96909050DD4028941216D
:101C7000914302D1D969C90406D4018981208843DE
:101C800005D1D869800402D5144801210160032CD4
:101C900005D10920C00641682207914341601949D6
:101CA00001980872032C0DD00021002000F0A2FC46
:101CB0000198C00702D014491520087062B67FB0A1
:101CC0000CB0F0BD0121F0E70000E04000007040E2
:101CD000000C7040080000A00000904000E200E00E
:101CE000D802002000ED00E0D402002000E100E076
:101CF000D002002000E000E0FFFF0F000400F0FF32
:101D000000001048000020400000C040F8B5154613
:101D10000E46074672B600F04BF904463846FFF708
:101D200015FCB84200D33846844200D220460B4A04
:101D3000810053585B1C5350002809D0012809D05A
:101D400007490D700E713146FFF7AEFC0020F8BD5B
:101D500062B6FBE7FEF715FAFAE70000181C002050
:101D60000000204010B5C17F0024002901D01124BB
:101D70000CE001463422064805F033FC00F08AF8F6
:101D8000002801DA072401E00BF010FC204610BD0A
:101D90003822002070B50F480F4D827F2868A82197
:101DA0000A540146002460310C754C758C75E12293
:101DB000CA7580220A7602224A76302220310A77BA
:101DC0004C7712228A779F300EF030F82868A030C6
:101DD000047070BD38220020EC02002070B50AF0BB
:101DE0007BFE04F057FE1E4E0122316892021B4D0D
:101DF0008918C9696878887005F0FEFDFFF73EFB19
:101E000004F086F82C46203C1649206832684018B9
:101E100081100520C00110180161616889084161C5
:101E2000A1688908816109F00FFF3068218BFF30BC
:101E300081300184618B4184A18B4183618C8183DA
:101E4000297881770021017201F01EFE03F0AAFEBD
:101E500003F0C0FD00F08AFE70BD00005822002093
:101E6000EC0200200000FCEF10B509490C694A693A
:101E70000321601E08430021401C05F0B6FB2046EC
:101E800000F0A4FC00F0DAFD0FF0D0FB10BD000064
:101E90003822002070B5164903238A8BFF24521E76
:101EA0001A438B7F2D346343D3180A8B2824624353
:101EB0009B184A8B302462439B180A462032527882
:101EC0003C2462439A180B4B0020D4184A69C04343
:101ED000A2420BD18B22D200944207D90D69284629
:101EE00000F074FC00F0AAFD401B201A70BD000039
:101EF00038220020AD130000F8B529480268D06DE3
:101F00005832401C002815D0002426480025C07BEC
:101F100000283ED00926F6062348002C1CD00021BC
:101F2000224F0B460D4641695B1CA94204D1002992
:101F300002D003E00124E8E7BB42F3DB1160006953
:101F40005060306991680002090E000A09060143D9
:101F5000916000F04FF81DE0316993680902090AA9
:101F60001C0E08D0018BC90712D0416911600069AD
:101F70005060D57210E0C81A00027D2400122403BC
:101F8000A04205D9180E00060843906000F032F810
:101F9000F8BD5560002CFBD003CA0FF0CBFDF8BD97
:101FA000EC02002058220020000010488813000096
:101FB00010B50F4C4123216808462030827E5B5CBF
:101FC0009A4305D1007E002802D1086E000E01D090
:101FD000002010BD0DF064FB0128FAD021682031EB
:101FE000CA7E002AF5D00020C876032010BD00006C
:101FF000EC02002004490020086104480121006827
:102000006030C1707047000000001048EC020020F2
:1020100010B506F09DFF10BD70B52049002308687B
:10202000436503650F222030027501221846920293
:102030000C680546A418246C303523540C68A41889
:10204000246C63550C683035A418246C63550C68F7
:10205000A418256C04469034401C2B552D28E7DB32
:1020600009688818026C82611446303444619032E9
:1020700002610B480C464234038009224271052359
:102080008371C2710372418100F00CF8FF2020704F
:102090006070A070E0701F20207170BDEC02002005
:1020A000C000002010B5064801680648406A0028B4
:1020B00003D020220DF0C6FA10BD0020087010BD1C
:1020C000EC02002038220020F8B5069C1F46154679
:1020D0000646002C17D0E0680222C01D05F081FAE8
:1020E000E81E82B23B460721204605F04FFD2AB28A
:1020F0000121204605F01CFD012E06D01D20E168BF
:1021000088710020F8BD4720F8BD1B20F7E770B5A7
:10211000154606460AF0C3FF0446082D0BD1052CD0
:1021200009D130460AF03CF8002804D0008A400467
:10213000800F00D00024204670BD2423184204D014
:10214000C81F092803D82032D171002070476120B0
:10215000704770B50E46054601F0F4F8040012D041
:10216000FF21E068413108420DD180040BD40120E9
:1021700005F002FC3060002803D02905090D05F0A8
:10218000FFFC204670BD002070BD0000F1B5FFB01F
:1021900001248BB0600204900027BD4806970068B8
:1021A000BA4DFF30413000908A9809AA0005000D11
:1021B00004A909F06FFB0590002839D1042009A972
:1021C000049A8B18203BDB7F0B2B03D1521E049209
:1021D000401EF5D1002609A88119022201A8039109
:1021E00005F0FFF96846818808AB07AA009800F05F
:1021F000ADFE01281FD0022873D068468088854232
:1022000000D30546844200D92046044603988078CE
:10221000012867D013360498864200D3012704981A
:10222000811B042901D38642D5D3A5427CD90598C8
:102230007FB00CB0F0BD07980290002FEFD102994B
:1022400002222831039805F0C8F900281ED102980F
:102250002030017B03988078814217D1012808D172
:102260000298039902220830C91C05F0B6F900282B
:1022700014D003988078022808D10298039910227C
:102280000830C91C05F0A9F9002807D00298008D74
:10229000A84200D80546A04200D30446039909A8E5
:1022A0008978012905D0133604998E4203D301277A
:1022B00006E0761DF8E78119022201A805F091F9E0
:1022C0000098029B083086462BE09C466846196AB7
:1022D0008288203310E0888B904206D3012F02D0F1
:1022E00079E722E0C0E09042FAD9A84200D805463A
:1022F000A04200D3044609689942ECD160460368C5
:1023000073450ED0188D904203D3012F09D190420E
:1023100007D9A84200D80546A04200D30446012FA1
:10232000DED17345D1D17AE7A9E007980290002F5A
:10233000F9D1029902221C31039805F04EF90028C8
:102340001ED102982030C17803988078814217D13D
:10235000012808D10298039902220830C91C05F00F
:102360003CF9002819D003988078022808D10298F7
:10237000039910220830C91C05F02FF900280CD051
:102380000298808BA84200D80546A04200D304469C
:1023900003988078012823D003E0039880780128EF
:1023A00004D01336069801281CD01EE00298394943
:1023B0000089884214D18A9800F0C4FF014602982F
:1023C00000F0E2FD02990222098C484302998969D2
:1023D00040180399491D05F004F901200690D7E73C
:1023E000761DDFE70020B61C06900498864201D3D4
:1023F000012705E009A88119022201A805F0F1F8DA
:102400000298089B016800980830844629E09E469F
:102410006846828820330EE0888B904204D3012FD7
:1024200000D0D8E69042FCD9A84200D80546A04288
:1024300000D3044609689942EED1704603686345AB
:102440000FD0188D196A904203D3012F09D1904201
:1024500007D9A84200D80546A04200D30446012F60
:10246000DFD16345D3D1DAE60398C078022804D1DE
:1024700003980079292800D1B61C761DCBE62246A8
:1024800029468A9803F078FC0590D1E6FFFF00000A
:10249000EC0200200229000070B515460C460646E5
:1024A00009F067FE20346179012D0AD00A0702D5B0
:1024B0004207920F1DD0CA061DD502071BD4082063
:1024C00070BDCA0702D04207920F12D08A0701D509
:1024D0000207F4D5490707D5C00725D0E179304672
:1024E00009F0D2FD652821D02079C0071AD1022039
:1024F00070BD052070BD890607D5C00714D0E179ED
:10250000304609F0C1FD652810D02079810701D43B
:10251000022D0DD0410701D4042D09D0000701D4AC
:10252000082D05D0002070BD0F2070BD0C2070BD9F
:10253000032070BD1CB50024694601200AF04CF848
:10254000012832D101AA022000990AF025F80128B9
:102550002BD10198816909788906890F25D00068F7
:102560000168009820301EE00A89114B9A4203D17D
:1025700023235B5C012B18D00D4BFF339A4211D102
:102580002322525C012A0DD18A69537812781B02EA
:10259000D21892B2D30701D0641CE4B2920701D5DD
:1025A000641CE4B209688142DED120461CBD0000F3
:1025B0000328000010B50446406803F023FC001D0A
:1025C0006188C0B2814201D9472010BD814201D14A
:1025D000002010BD412010BD10B506F02DF805F00B
:1025E0009FF810BD7047002101E000BF491C8142E7
:1025F000FBDB704770B588B00C4605461C2225A150
:102600006846FDF7F3FD0922294BD206002D2DD097
:102610004020694688735B2008754C20C8722020D2
:102620000872B2204874234DA86A2349060C8E42D2
:1026300004D14007400E6E460B30F075686A050CF9
:102640008D420AD16D466979CF2529406D46697161
:1026500069798007800E014369716846012180B263
:1026600009044018D060D068C003FCD4188B00283F
:10267000FCD0012018831720988100201861002CBD
:1026800006D010691021084013690B408342FBD02B
:1026900008B070BD023F00023E30023C20023B4CBD
:1026A000023A400239B202345B02350B00000000EE
:1026B00000001048C007001055AA000000B585B002
:1026C000042101200BF0B8FE010003D011A0FDF79A
:1026D000A9FDFEE70BF098FD010003D019A0FDF75E
:1026E000A1FD02E020A0FDF79DFD04A903A8019132
:1026F000009002AB0822002101200BF039FB010001
:1027000004D021A0FDF78EFD05B000BD27A0FDF788
:1027100089FDF9E74572726F7220696E2061636905
:102720005F68616C5F7365745F74785F706F776505
:10273000725F6C6576656C28292030782530347896
:10274000720A00004572726F7220696E20616369BF
:102750005F676174745F696E697428292030782519
:10276000303478720A0000006163695F67617474D5
:102770005F696E69742829202D2D3E2053554343EF
:102780004553530D0A0000004572726F7220696E46
:10279000206163695F6761705F696E6974282920D1
:1027A0003078253034780D0A000000006163695FDD
:1027B0006761705F696E69742829202D2D3E205352
:1027C0005543434553530D0A00000000F1B582B054
:1027D0008B22D200012102A804F0CFFE954C0422E6
:1027E0002060432102A804F0C8FE032721683F02AD
:1027F000C91908610422432102A804F0BEFE216821
:102800000422C9194861FF21843102A804F0B5FEF1
:102810002168894DC9198861A97F0C2202A80B3152
:1028200004F0ABFE01262168B60289198864A97FED
:10283000202202A804F0A1FE2168102289198863D1
:10284000A97F02A804F099FE216828228919C8638B
:10285000062102A804F091FE2168302289194864FB
:10286000052102A804F089FE21681822891908644C
:10287000032102A804F081FE21682422891908633B
:10288000032102A804F079FE2168B2108919486377
:10289000012102A804F071FE216838228919086517
:1028A000A97F02A804F069FE21681C2289194862E8
:1028B000A97F02A804F061FE216878228919886244
:1028C000A97F02A804F059FE21680722FF31813157
:1028D0000866032102A804F050FE21682822FF3177
:1028E00081314866012102A804F047FE2168FF31CA
:1028F0008131C866AA8B012102A804F03EFE21683E
:102900002822FF3181314861298B02A804F035FE6D
:1029100021680822FF318131C860012102A804F03A
:102920002CFE2168082289190862A97F02A804F0F8
:1029300024FE216808228919096A0860A97F02A873
:1029400004F01BFE21681C228919096A48600121D4
:1029500002A804F012FE216818228919C8612846CD
:1029600020300090417802A804F007FE216821225F
:102970008919C96948610098417802A804F0FDFDF1
:10298000216830228919C9698861698B02A804F01D
:10299000F4FD21680422FF3181310861A97F02A87A
:1029A00004F0EBFD21680222C9194860A97F02A842
:1029B00004F0E3FD05212268C9015118C865A97F0B
:1029C000042202A804F0D9FD05212268C90151188A
:1029D0000866A97F012202A804F0CFFD0521226824
:1029E000C90151184866A97F012202A804F0C5FD5B
:1029F00005212268C90151188866A97F012202A811
:102A0000491C04F0BAFD21681022C91908600B2185
:102A100002A804F0B2FD21680422FF3101310863ED
:102A2000802102A804F0A9FD21688919C8620298D2
:102A3000FEBD0000EC02002038220020704710B5D7
:102A4000C001000C00F040FA002010BDFEB572B6C7
:102A5000444D0823286803270146403042786C46DD
:102A60001A43427000203F020206920D5218D219FA
:102A7000D26952884300401CE2520328F4DB62B65C
:102A800072B6C81900218668816062B6F00702D06C
:102A900000200DF0C1FBB00702D501200DF0BCFBFA
:102AA000700702D502200DF0B7FB300702D50320D6
:102AB0000DF0B2FB00262DE0E0780C2819D22A494F
:102AC00080000A58211D20469047A1788908C90630
:102AD0000AD4E178382907D288002349E0390A5816
:102AE000211D2046904704E0002802D0432808D04A
:102AF00031E0029829684018C019C0692188018016
:102B000008E072B62868F7224030417811404170E1
:102B100062B620E0300672006946895A800D029044
:102B20002A688018C019C069028892089200141897
:102B3000028808348A420ED0A27891070BD0910700
:102B4000890F012901D104460834A17800208908A1
:102B5000C906BED5B0E7761C032EDBDB0DF076F997
:102B6000FEBD0000EC0200209C41051070B50DF088
:102B700087F9114D032428682402001900694021B7
:102B80000CF065FE29680919C861486940210CF0FC
:102B90005EFE296809190862886961100CF057FE09
:102BA0002B680822191948626120C00000211818FA
:102BB00004F01BFD70BD0000EC020020FEB50446D1
:102BC0002A48164605680F46FF350846413503F08A
:102BD00019F9032806D0334600220221042009F007
:102BE00039FD40E0F968022201A8C91D04F0F9FC92
:102BF000E268900528D468468188172903D35C20B1
:102C0000405B172801D2172002E0814200D208461B
:102C1000A0700120400202430220E26000901348AD
:102C200027880068A478FF300130C079012240076E
:102C30000AD5222100980AF0D3FF010004D08F802A
:102C4000CC8000980AF0B8FFF16803208871F06822
:102C5000294602225C31C01D04F0C3FC032201217D
:102C6000304604F065FF0020FEBD0000EC020020AD
:102C7000F7B5002090B009900D900446049005909F
:102C800090480F4605680846FF35413503F0BAF80D
:102C9000022815D12846303003900BF072FC060054
:102CA00013D012981921C06801228171114612981F
:102CB00004F03EFFF868C079002872D001280BD0DC
:102CC000002218210420129B03E000221821FF207B
:102CD000129B09F0BFFCF2E02F6BD5E00897F96872
:102CE000022207A8C91D04F07CFC1098089F0088E8
:102CF00039890005000D814203D00998401C0990D4
:102D000007E004980028684605D0818B049881422A
:102D10001CD03F6883E0808B049001F077FE0100B7
:102D20000FD005AA049809F037FC012809D11098A2
:102D30000222008805990005000D0AF0B0F900286C
:102D400004D018210E20129B049A3CE0089802221D
:102D5000C16802A8093104F044FC089803F052F855
:102D6000401F80B2009005982221095C002906D0FE
:102D700001290BD0002915D0012919D027E0C18BDA
:102D80006A461289491E914206DB0BE0018C6A46B5
:102D90001289491E91420BDA18210720129B049ACE
:102DA00011E012E06A46128900998918C28B04E08A
:102DB0006A46128900998918028C914207D9182114
:102DC0000D20129B049A09F045FC2C6B74E01099BD
:102DD00000F0DAF80E900598028C81690E98424353
:102DE000881869460989009A43180921089804F04F
:102DF0006AFD05982221095C012904D169460A89E6
:102E000000995118C1830D98401C0D903F68089996
:102E100003980BF0E9FB0221089804F05BFE03988D
:102E2000874231D10598002829D020308079C00709
:102E300021D124E00A1B93B2F62B00D9F623E21825
:102E40000A928A4205D201222146D20311438C46BE
:102E500000E0A446018C0E9A87695143791809193C
:102E6000624600920191828B1098018802200BF03B
:102E7000EFF80A9884B20598C18BA142DAD80020F5
:102E80002F6B0490044605900998311A0D988142E1
:102E900000D923E713E0109825460088298900050A
:102EA0002468000D884207D1294603980BF09CFB4B
:102EB0000221284604F00EFE03988442EBD1002044
:102EC00013B0F0BDEC02002010B50446502803D327
:102ED000592107480CF01AFA6006010C05483F22F8
:102EE000028181611121018000F028F810BD0000ED
:102EF000EC4305100000104070B504460D460B4829
:102F00000B492018884203D99E210A480CF0FEF98B
:102F1000094A3F201081A0089061074840300560B1
:102F20003320108000F00AF870BD00000000FCEFB4
:102F3000FF7F0200EC430510000010400248018AA8
:102F4000C907FCD07047000000001040F0B584684D
:102F5000083015E0258D8D4203D1146018600120E2
:102F6000F0BD25461C602035266A06E0B78B8F42EF
:102F700002D102201660F0BD3668AE42F6D1246858
:102F80008442E7D10020F0BD30B5024623239B5C8C
:102F90000020012B1BD112890D4B9A4217D10D4AEB
:102FA000012312689B02D318A0329B6A127A0BE0AD
:102FB0000C8825051C2444431C5B2D0D2405240D81
:102FC000A54204D0401CC0B28242F1D8002030BDDE
:102FD00002290000EC020020F7B588B00020029022
:102FE000A3480F4604680846FF34413402F00AFF44
:102FF000072804D20022062104200A9B2DE0F9684C
:10300000022201A8C91D04F0ECFAF9680222684600
:10301000093104F0E6FAF968022204A80B3104F041
:10302000E0FA384602F0EEFEC01F80B20390684618
:103030008288008882420DD8002A0BD0089801218E
:1030400082780A98121D04F055FC002808D045200B
:103050000BB0F0BD062101200A9B09F0FBFA8AE0C3
:10306000083468460594808801F0D0FC04007DD0C7
:103070006946208D898888421BD369460988884221
:1030800017D86946608D098A88420DD103980228B5
:1030900001D0102808D1034621460B2208313846BA
:1030A00004F0E2FC002817D06946208D0988884288
:1030B00050D06846008A0521C902884202D0491CC6
:1030C00088425AD124680598844243D06846218DAD
:1030D00000888142CCD93DE00298002805D10A99A8
:1030E0000720C968887101200290089881780298A9
:1030F000081A04282EDB2346029928331E46022292
:10310000091D0A9804F042FD0298216A801CC5B28C
:1031100020462030814205D0636A0222291D1C33DB
:103120000A9803E033460222291D0A9804F02EFD76
:10313000AD1CE8B20290089881780298081A042819
:1031400008DB24680598844204D06946208D0988EC
:1031500088428DD90298002808D0024601210A9899
:1031600004F0E6FC08980088010500E079E0090D0C
:103170000A9804F005FD00206AE72646256A2036F5
:10318000B5426BD1DDE76946A88B8988884264D354
:10319000694609888842DDD82320405D01285CD13A
:1031A00028460899FFF7F0FE069069462889098AA3
:1031B000884252D108980122008829460005000D56
:1031C00009F06DFF002848D1E98B0398814244D172
:1031D000288C0699AA69484311180B223846039B8C
:1031E00004F042FC002838D10298002805D10A9941
:1031F0000720C96888710120029008988178029898
:10320000081A0428A6DB02992B461C330222091D4A
:103210000A9804F0BBFC02981649801CC0B20290C8
:103220002889884207D12868B04204D000898842A2
:1032300001D02D68F7E702992B461C330222091DA5
:103240000A9804F0A3FC0298801CC0B2029008986F
:1032500081780298081A0428D4DB2D68B54292D1EF
:103260006FE76846828806210A200A9BF5E600007F
:10327000EC02002003280000F7B584B008F0D2FA71
:1032800084B20020694608720546059800680390DC
:1032900002F054FB064633E06846017A6D1CFF29B4
:1032A00034D0FE2904D0002902D0492007B0F0BD57
:1032B000234AA000801800686B46070A1F70070C9D
:1032C0005F70000E9870641CA0B283009B181C688D
:1032D0006B46DC70270A1F71240C5C71401C84B2A1
:1032E000A00080180768FE2906D106221846049916
:1032F00004F073F900280BD0B8080019401C84B200
:1033000002A9204607F094FEB542C5D35C20CDE764
:103310000398874201D91F20C8E705980025084E69
:10332000076009E0641CA4B2A00080190168069837
:10333000401909F015F92D1DBD42F3D30020B5E762
:103340000000041010B50E4900050B680121890228
:1033500059188A6A0021000DA0331B7A0CE01C2446
:103360004C43145B2405240D844203D11C204143AB
:10337000881810BD491CC9B28B42F0D8002010BD7E
:10338000EC020020FFB589B00024154610460594D4
:1033900002F038FD052804D00022042108460C9BC9
:1033A00021E0E968022207A8C91D04F01AF9E968BA
:1033B00002226846093104F014F96846828B0088BD
:1033C00082420DD8002A0BD00A98012182780C98ED
:1033D000121D04F08FFA002808D01F200DB0F0BD98
:1033E000042101200C9B09F035F9BCE06846808B74
:1033F00001F00CFB060073D06946308D898B884242
:1034000033D36946098888422FD8002C0AD101207D
:103410000C990590C968052088710C990598C968B0
:103420000224C8710A988078001B04287EDB059866
:1034300001287BD10C980222C168A01D08183146D2
:10344000283104F0CEF80C98A41CE4B2C168A01D89
:103450000818314602222A3104F0C3F86946A41C38
:10346000308D0988E4B288426FD03746356A2037FC
:10347000BD4262D163E06946A88B898B88425BD3E9
:1034800069460988884260D8002C35D02320415DE8
:10349000059881425BD10A988078001B042802DBE2
:1034A0000599012904D0122851DB059802284ED134
:1034B0000C980222C168A01D081829461C3104F08E
:1034C00090F8A41C0598E4B201280AD02B460833D2
:1034D0001022211D0C9804F059FB1034E4B22BE0AB
:1034E0004DE00C980222C168A01D08182946083139
:1034F00004F077F8A41CF1E72320405D0C990590B7
:10350000C968052088710C990598C9680222C8719C
:103510000C982946C0681C31083004F062F8059800
:10352000012822D02B460833102200E00DE00821AC
:103530000C9804F02BFB14242D68BD429BD10998F4
:1035400036680830864200D056E7002C17D0224655
:1035500001210C9804F0ECFA0A9800880105090D85
:103560000C9804F00DFB002038E70C982946C06841
:10357000022208310A3004F034F80624DCE76846F9
:10358000828B04210A200C9B2DE7000030B50C49EA
:103590000246096803231B0212050020120DCB18F6
:1035A000A031097A09E05C68850064192488240543
:1035B000240D944203D0401CC0B28142F3D830BDE8
:1035C000EC02002030B502460B48032300681B02C2
:1035D0000021C318A030047A09E058688D00401912
:1035E00005882D052D0D954204D0491CC9B28C4289
:1035F000F3D8002030BD0000EC020020830810B595
:103600000B4800210268012080021018A032806A55
:10361000127A08E01C244C43045B002C01D0994230
:1036200004D0491CC9B28A42F4D8002010BD000061
:10363000EC020020F7B598B016465E2508F0B0FD04
:10364000040057D0E07BC00723D06D20005D8109C6
:1036500003291ED081091CD0400617D52648052114
:103660000068C9014018008A694685B200200870C8
:10367000284607F0DDFC08AF02376834684600785A
:10368000FE280AD0FF2801D0002812D047201BB006
:10369000F0BD06222146683117E001A9284607F04F
:1036A00073FD002805D13946204608F005FF0028A3
:1036B00008D002F045F9401985B26946284607F05E
:1036C000B7FCDBE7062210A9023115A803F089FF39
:1036D000324615A8199909F019FD05465D2809D14A
:1036E00072B607F09DFE62B6324615A8199909F028
:1036F0000DFD05462846CAE7EC02002070B50C46D1
:103700000B4E81000B4832680D180123203253768E
:1037100021462846FFF7F0FB28680021844201D1AA
:10372000084600E04A2032682032517670BD000021
:10373000EC0200200000041038B516490C68214640
:10374000B631AA34A278D20703D0E27880231A4394
:10375000E270A27852071BD52279520705D5E27A8A
:10376000002A02D10122E272488020794106090F25
:103770000ED07821084069460870002048706A46DB
:10378000022142200AF0E2FB2079872108402071C3
:1037900038BD0000EC02002070B592B00646202231
:1037A00021A101A8FCF722FD202109A8FCF70EFFAA
:1037B0000A216846017000242546694601A803F0E5
:1037C000B7F86846027801A909A803F00AFF01A822
:1037D00024E0015D491CC9B2914223D803195B78EA
:1037E000B34214D16B461A78521A6118C9B2411803
:1037F000D2B209A81A70401903F0F3FE6B4618788C
:103800002818C1B209A803F07BFA12B070BD521A91
:103810006B461A7062186918D4B2CDB269460A783C
:10382000002AD6D11F20F0E702FF010201040302A3
:103830008FFC0000000000000000000000000000FD
:10384000000000000000000038B5104800210468A6
:103850000846AA3402F0DAFE694648702079C107AA
:1038600004D001216A46117088432071C0B28107DB
:1038700005D502216A461170FD2108402071022100
:103880006A4608460AF062FB38BD0000EC020020E0
:10389000FFB50C4676A003C895B0019100900321B6
:1038A000C9026846C185012108A8734E01733568B5
:1038B0001746AA3502F0CAF9002808D13068FF304F
:1038C0000B3002F045F8A878002802D00C2019B07F
:1038D000F0BD159807220607360F012C05D0022CE3
:1038E00006D0002C17D04220F1E71020064312E04A
:1038F000E120800003F0B0F960A103C91290139198
:1039000012A80CF0CDFF012003F0F6F900287DD1BC
:1039100020200643092201230BA9284600F084FF3A
:103920000028F4D102222946189803F05AFE29886B
:1039300068460181152149028181878301218172B5
:103940004E2282770024C47708A8017007224270B3
:10395000817002A90AA800F027FD002856D1022292
:103960000AA91E9803F03DFE082F02D26846C784BC
:1039700002E008206946C88469468C840B46288882
:1039800009AA098D01F0B6FD00286BD13D496846B2
:1039900081810227878308A8847002A90AA800F001
:1039A00003FD00285ED102220AA91F9803F019FE28
:1039B000684604704470C7846B46288809AA198D2C
:1039C00001F098FD00284DD1F00725D02D4968461B
:1039D000C91C818108218183877708A8047002A906
:1039E0000AA800F0E1FC00283CD1FF216846C17123
:1039F0008171C170817041700170447104716946B8
:103A00000820C88428880B4609AA00E02AE0098D0E
:103A100001F070FD002825D1B00625D5298868461B
:103A200001811849A53181810121818381728777C4
:103A3000C47708A8047007214170847002A90AA8FD
:103A400000F0B2FC00280DD1684601210170848489
:103A5000C1842C880346018D09AA204601F04AFD45
:103A6000002801D0472032E7AE7000202FE7000089
:103A7000626C75656E726721EC0200201F02000007
:103A800000000000012A0000034800210068AA305D
:103A9000C170817070470000EC02002070B50C4BC3
:103AA0001C68AA342379DD0611D45B070FD53128B1
:103AB0000DD1E07A02280AD1042010700020507045
:103AC00002200AF043FA2079FB210840207170BDE2
:103AD000EC020020024610B5144801240068AA3008
:103AE000022A19D0052A03D0072A05D00A2A1AD19A
:103AF0004888FFF721FE16E000790024020600D571
:103B00000124820703D1C20601D480060BD50846E2
:103B100000F070F8044606E08178490703D5017982
:103B2000FB2211400171204610BD0000EC02002074
:103B300010B509480468AA34E07880070BD5002046
:103B400002F07EFC02200AF04DF9E07801210843E2
:103B5000FD210840E07010BDEC0200200FB470B5EC
:103B6000099D012842D16846848A2148844210D1A7
:103B700005AC0FCC00F0F4F9002832D107F05EFE5E
:103B8000492833D0012831D92878F32108402870FA
:103B90002CE01748401C844205D105AD0FCD00F044
:103BA000DFF900281DD115204002844205D105AD62
:103BB0000FCD00F0D5F9002813D10D48401E8442E6
:103BC00005D105AD0FCD00F0CBF9002809D108488B
:103BD000801C84420AD105AC0FCC00F0C1F900284A
:103BE00004D0662070BC08BC04B018470020F9E778
:103BF000022A000008B500216A461170694609F0E2
:103C00001FFD08BDFFB507468FB0002004906D482A
:103C10000D4604681E46AA34A178C80602D5E0788D
:103C2000C00679D4880607D5E0788006800F03D0D7
:103C3000022F01D0002E6FD08806800F06D0022FF1
:103C400008D0032F06D0002E66D003E0012F01D04C
:103C5000002FF8D1880603D4002D01D0012D5BD1AF
:103C6000002E06D130200140384602F0E5FA002847
:103C700052D1119900200870A0788006800F7DD065
:103C80000DA909A802F034FE08900EA90BA802F0B5
:103C9000E1FE07900898002802D00798002801D17B
:103CA000012E51D1022F05A807D001F0D9FD002E19
:103CB00035D00898002803D011E008F033FAF6E771
:103CC000404F0622386809A9FF300B3003F085FC0D
:103CD00000283868416D06D04908490041650798B9
:103CE000002803D011E001221143F7E7354F0622E7
:103CF00038680BA9FF300B3003F06FFC022100285D
:103D00003868426D09D08A4342650898002806D079
:103D10000798002803D017E040E00A43F4E7294859
:103D20000622006805A9FF300B3003F05AFC05207D
:103D300069460873002E02D1084608F0D3FF2248D6
:103D40000290684608F084FFA07880060FD511988D
:103D5000032101702079C10603D5002D01D0022D69
:103D60001CD1800603D5012D01D0032D16D1A078DA
:103D7000C00625D511990120087000E011E02079D6
:103D8000C10601D5002D09D1810601D5012D05D12E
:103D9000000615D5002D13D0012D11D0422013B0EF
:103DA000F0BD012F0CD1002E0AD106480622006872
:103DB000611DFF300B3003F014FC119901200870D5
:103DC0000498ECE7EC020020A0BB0D003EB50BF020
:103DD00069FD04460BF0FEFD002C01DA002813DB20
:103DE0000A48062201686846FF310B3103F0F9FBEF
:103DF00068464079400601D5022000E003200123F7
:103E000002AA0021FFF7FEFE3EBD0000EC020020EA
:103E100030B519488BB000680446AA340546E078EE
:103E2000B635010612D5A178C9070CD0800708D590
:103E3000042069460873684608F054FF022009F020
:103E4000D1FF0020E0704006400EE070207940076E
:103E50000FD5E07A01280CD1152149026846C182AC
:103E600001210175688805AB044A00F0F7FE0220C5
:103E7000E0720BB030BD0000EC020020FFFF00003C
:103E8000F0B58DB00C4616A9E0C900210891099142
:103E90000A910B911599049105A9E0C112A962C973
:103EA0000093019113460146039602952246012094
:103EB00009F054FC0DB0F0BD002000B58DB00A90A3
:103EC0000B90089009900590069007900490009040
:103ED00001900290034602460146039009F03EFC21
:103EE0000DB000BD0949AE2209681423525CB631F9
:103EF0001A4208D0498800050905090D000D8142C4
:103F000001D101207047002070470000EC02002022
:103F1000C2688A43C260704710B50446022000F0B0
:103F20003DF80E4801210068890241188A6A002183
:103F3000A030007A06E01C234B43D35A002B04D058
:103F4000491CC9B28842F6D810BD1C2041435452C6
:103F50008818042100F02CF810BD0000EC020020AD
:103F60001FB582B0002401F0BFFC694608F034FBA5
:103F700000986A46016A1289203009E023235B5CBD
:103F8000012B04D10B89934201D1641CE4B209686E
:103F90008142F3D1204606B010BD000003490968F4
:103FA000FF3181310A7A02430A727047EC02002025
:103FB000C2680A43C260704700B51138C0B2FFF74B
:103FC0001DFB002804D00122C16852051143C160C5
:103FD00000BD000010B50446800104D1FF21C131AD
:103FE00004480BF093F901208007816A2143816224
:103FF00010BD0000344405101CB50121084608F02E
:1040000073FC684600F000F90920000200900120CE
:1040100069460871002088714871684600F06AF8A6
:104020001CBD000010B5044601284AD0022C48D01F
:10403000042C46D0082C44D0102C42D0202C40D048
:10404000402C3ED0802C3CD0E01FF93839D0E01F06
:10405000FF38FA3835D001208002844231D0400048
:1040600084422ED0400084422BD04000844228D08D
:104070004000844225D04000844222D04000844247
:104080001FD0400084421CD04000844219D0400020
:10409000844216D04000844213D04000844210D0A5
:1040A000400084420DD0400084420AD04000844247
:1040B00007D04000844204D0FF21D23104480BF0E5
:1040C00025F901208007406A204000D0012010BD62
:1040D0003444051010B5012464032046FFF7A2FF05
:1040E000002805D02046FFF775FF002008F04EFAA3
:1040F00010BD000070B504460068800103D179212D
:1041000040480BF003F9207900280BD0062809D08D
:10411000012807D0042805D0052803D07A21394882
:104120000BF0F4F8A079002805D0012803D07B21FA
:1041300034480BF0EBF86079002805D0012803D053
:104140007C2130480BF0E2F82088C00406D52079A5
:10415000062803D17F212B480BF0D8F82088800453
:1041600006D52079062803D1802126480BF0CEF809
:10417000207901229207002802D0062804D009E005
:1041800050682168884304E000202071506821684D
:104190000843506000200F262168C140C907C90F9D
:1041A00019D0082809D2D36A810035468D40AB4327
:1041B00025798D402B43D3620DE00146083908294B
:1041C00009D2810035462039136B8D40AB432579E8
:1041D0008D402B431363401CC0B21A28DCD3607996
:1041E0000128D068216809D08843D060A0790128CF
:1041F0009068216804D08843906070BD0843F4E75C
:104200000843F9E734440510002101600171817110
:104210004171704710B50446800104D1FF2163311C
:1042200004480BF073F801208007016861400160C9
:1042300010BD00003444051003480068AA3080789F
:104240008006800F70470000EC020020F3B599B0A3
:1042500008880A90081D1DC84E880DAD1DC58C8AA2
:10426000CD8A087E1890C8692031039008780290A2
:104270004878079088780690C87805900F7900F004
:1042800097FD002817D10120400284425DD8AC423E
:104290005BD8002F01D1AC4257D113A90A9808F07E
:1042A0009BF9012806D117AA3046139908F074F932
:1042B000012802D060201BB0F0BD139E14A9304627
:1042C000183003F017F9149800280FD0304616A9BB
:1042D000203003F00FF9169B149A308D716AD218B2
:1042E00080188A8B904203D16220E4E71F20E2E726
:1042F00017982C4B02899A4227D12322125C012A5B
:1043000023D1006800681590189801281FD16846CD
:10431000808E29221202801A030009F0C3F90604D4
:10432000180404070A18022C0FD110E0072C0CD136
:104330000DE0042C09D3E00707D1012F07D1A542D6
:1043400003D3042D01D3E80701D06120B3E7069B16
:104350000598079A0B900C970992039A02980A9372
:1043600008900695059407920DA81DC8019002A813
:104370001CC018980B46009032461599199800F009
:10438000ABF9002897D168460649808EFF318842F4
:1043900005D01998018800200A4601F0EDFC0020A4
:1043A00089E7000003280000F3B5A5B008881A903B
:1043B00088780C460E901022091D10A8FCF799F879
:1043C000A08A0D90A17D68460172E07D1490207E48
:1043D0002090677EA07E1F900020064601460F9029
:1043E00020A801810F20B94C23902068FF30413074
:1043F000199000F0DDFC00280BD101210D98490235
:1044000088425CD821A91A9808F0E6F8012802D061
:10441000602027B0F0BD2198169001F065FA1A9936
:1044200088420CD102A801901398009010AD0ECDD7
:104430000E98FFF793FB002801D06620E9E7684655
:10444000017A8806800F05D001200F902068A030E7
:10445000007A4600C80703D00F98401CB61C0F9086
:10446000080603D50F98401CB61C0F90169815A986
:1044700018301D9003F03EF80F9C1598A41CA04224
:1044800035D3169818A920301C9003F033F81899EA
:1044900000290CD01698169A406A159B128D59184F
:1044A000808B5118081AA04201D26220B1E71698F9
:1044B00084690E982568012803D0022803D0612062
:1044C000A7E7052000E01320E0832A463946149828
:1044D000FDF733FE61289CD0199FE28B4037788B23
:1044E000398B411A0D9810188019814201DA1F206A
:1044F0008FE718A91C9802F0FDFF1898002816985D
:1045000002D0406A808B00E0008D2599401C088015
:10451000259801210088A083259802220088401C4C
:10452000A8836B482081204620301690C17000215E
:10453000817081711998398B406D40186946A0616E
:10454000097A0170A06929461C31401C03F049F822
:104550000E980128A0697DD0102210A9C01C03F07C
:1045600040F82846102210A9083003F03AF8388B9A
:10457000133038832E4620360E98F0700D98E8835D
:104580001F98B0700D9820840D9828841998398B45
:10459000406D4018A86100210D9A03F026F8398B70
:1045A0000D98081838831699012008711699002073
:1045B000487130716846007A810701D50121317157
:1045C00001070227002902DA3179394331714107A5
:1045D00003D53179042211433171400603D5307976
:1045E000082108433071149870712098B0712146E9
:1045F0001D9802F0AEFF21461C9802F08BFF294661
:104600001D9802F0A6FF29461C9802F083FF0F9820
:10461000002841D068461A998181A18BC181078405
:104620004784012408A8047122A80A9008A884736A
:104630002399417314993820014008A80173072178
:10464000C173002505746846007AC00708D0214868
:10465000694600E02BE0088203A924A8FFF7F6FDD5
:104660006846007A8006800F07D01A486946401EC7
:10467000088203A924A8FFF7E9FD6846007A00062E
:104680000AD5292109026846018208A844730573E6
:1046900003A924A8FFF7DAFD259801880F98401C8C
:1046A000081882B2002001F067FB0020B1E6022268
:1046B00010A9C01C02F095FF2846022210A908305C
:1046C00002F08FFF388B401D53E70000EC02002002
:1046D0000328000003290000FFB5514887B0036894
:1046E00010AA1846FF3041300590109801264D4F12
:1046F0009288012803D1BA4201D1A0331E7A059DC8
:1047000034464035688B2B8BC31A1698444309985E
:1047100020300390A34220DA1F200BB0F0BD2320ED
:10472000405C012817D108896F46388098420CD028
:104730003C4F7F1EB84208D07F1CB84205D07F1C7A
:10474000B84202D0BF1CB84205D1A04201D090426D
:1047500001D16320E1E7096803E02923314C1B0202
:10476000FF3C03988142DAD109981B998469189813
:104770002246FDF7E2FC6128CFD01C98012805D124
:1047800016991598814201D26120C6E71598E083F9
:10479000274620371C98B870169820840A98808B7A
:1047A000401CA0831098012813D02046102211A984
:1047B000083002F016FF1098F8700598298B406DAC
:1047C0004018A0611698298B70430818288300258B
:1047D0000FE011A80FC808340FC4183CEBE7169877
:1047E000A16968430818159A179902F0FAFE6D1C22
:1047F000EDB2B542F3D318987871199838711A98B8
:10480000B87109982146183002F0A3FE214603989A
:1048100002F080FE0798A18B018000207DE7000058
:10482000EC02002002290000FFB58FB00F781022A3
:1048300005A8891CFBF75DFE4C480568FF3541352E
:1048400000F0B6FA00281FD11198002855D0012F8A
:1048500009D16846808A4649884204D12846A96819
:104860000830814249D12846103029690A90814296
:1048700009D00BA9284602F03DFE11980B99401E65
:104880000D90814202D21F2013B0F0BD284608309F
:104890000CA9099002F02EFE0C98002812D0EC68AA
:1048A0000BA92046183002F025FE20460CA9203026
:1048B00002F020FE208D0B9941180C98401C08181E
:1048C00086B200E0012601200004811B119881427C
:1048D00001D26220D8E72C69286804901298012838
:1048E00002D0022803D008E00520C00200E02148E1
:1048F0006085012F03D0022F03D06120C4E702227C
:1049000000E01022204605A9083002F06AFE204689
:104910002030039007730F982146068026850A9859
:1049200002F017FE2146099802F0F4FD26461836DB
:10493000E661A661039860622062119C09E0284646
:10494000049902F006FE3046049902F0E3FD28685F
:104950000490641EF3D10F9801880D98081882B254
:10496000002001F009FA00208EE70000EC02002090
:104970000118000001280000FFB583B01E4617464D
:104980000C46084601F03EFA0546E06880790128A9
:1049900002D0002007B0F0BD204601F033FA0146F6
:1049A0004120052901D030701AE0E168897A0A298E
:1049B00000D03070002F0DD0E16805226846891DB7
:1049C00002F00FFE6D1E00AAE9B230200132FFF79F
:1049D00065F805E0039822460188022009F0CEFB25
:1049E0004120D7E7024608480168FF31493108688D
:1049F00003E0038D934202D200688842F9D18842D5
:104A000000D1002070470000EC020020024610B5E3
:104A10000E480168FF314931086803E01C8D94425B
:104A200003D8184603688B42F8D18B420CD1018D14
:104A3000914209D20146036A20318B4203D0416A78
:104A4000898B914200D2002010BD0000EC020020B2
:104A5000034610B50B481B050168012080020818A9
:104A6000826A00201B0DA031097A08E01C2444430F
:104A7000145B2405240D9C4203D0401CC0B281422B
:104A8000F4D810BDEC020020FEB506461A480068B6
:104A9000FF304130012906D0022906D0032908D071
:104AA00004290BD107E0183000E03030044602251D
:104AB00004E02430FAE704463C340125204609F09E
:104AC00060FD0746206800903005000D019010E061
:104AD000009E002F01D030680090318901988142FA
:104AE00007D13146204609F07FFD2946304602F0C5
:104AF000F1FF7F1EECD2FEBDEC020020F0B589B0C4
:104B00000025554E029530680446FF34413472B694
:104B1000014640314A7802231A434A7062B6FF21A7
:104B20008931095CC9077DD0012189024018876A53
:104B300044E029461C2251437A5A002A3CD0C91924
:104B40000791C9684A0219D48A0221D5022100912D
:104B50000799FF30098801300905090D0491C079D2
:104B6000012280070AD52121009809F039F80100B7
:104B700004D0049A8A80009809F01EF807980088EB
:104B80000090079800F0B4F8009807F04FF813E091
:104B9000480711D5079800880005000D07F022F896
:104BA000002805D1079800880005000DFDF7EEFAF2
:104BB00004210798FFF7ACF96D1CEDB23068A8210D
:104BC000095CA942B5D804F0BBF82046243009F0AE
:104BD00003FD012802D0012003F09EFF204618307B
:104BE000054609F0F9FC012802D0002003F094FFEB
:104BF0003C34204609F0F0FC01280DD002A92046E3
:104C000009F002FD0420029901F0F0F90028F0D02B
:104C10002046029909F0D0FC204609F0DDFC01286D
:104C200018D100E016E0284609F0D6FC012811D181
:104C3000316880020818826A0020A031097A07E0F2
:104C40001C2343439B189B895B0503D4401CC0B2C3
:104C50008142F5D809B0F0BDEC020020FFB58BB061
:104C6000074646241D781022991C06A8FBF741FC34
:104C70001A4805A906683846FF364136FDF769FA35
:104C8000070029D00599002925D0012D04D0022D37
:104C900002D042200FB0F0BD049506A81DC80090B8
:104CA00001A81CC038460D9B0C9AFCF778FC040048
:104CB00004D00121059802F00DFF0DE00121490308
:104CC0003846FFF775F90648786130463C3005995B
:104CD00009F072FC00E01F242046DBE7EC02002014
:104CE000E54C041010B5502100F030FB10BD000061
:104CF000F0B50446808985B0800415D52B48412540
:104D000000680227FF300130407A26880122C00760
:104D10000AD02F21384608F063FF010004D08E80AE
:104D20008D71384608F048FF20880121FFF7ACFE5E
:104D300020880221FFF7A8FE20880321FFF7A4FEA8
:104D400020880421FFF7A0FE20880005000DFFF752
:104D50007FFE8500294611316846017307F0C2FFC6
:104D6000294612316846017307F0BCFF294613310A
:104D70006846017307F0B6FF68461435057307F0FF
:104D8000B1FF208800F03AFAA069002802D0022181
:104D900002F0A0FE1C2200212046656802F025FCDE
:104DA00017206560A07005B0F0BD0000EC02002087
:104DB00070B510480468FF348134207AC00714D0DD
:104DC000012002F0B3FD0546207A80070FD5FDF7DC
:104DD000B1FB044608481B21408C1E30FBF709FC40
:104DE0004443AC4203D9642070BD472070BD00200D
:104DF00070BD0000EC02002038220020F0B55FA05A
:104E000093B000685E49109008680122044692023F
:104E1000FF3482184134926A254640350F922A7A2F
:104E2000D20702D0632013B0F0BDAA8B9E2A01D90D
:104E30009E2202E0172A01D21722AA830F9AA826DF
:104E4000129286570CE01C2012997043471878681C
:104E500011901C220021384602F0C7FB119878609F
:104E6000761E76B2002EEEDA20460830E0606460EE
:104E7000A06024600830119060612061FF22002151
:104E8000083009F080FB2046FF220021243009F081
:104E90007AFB2046AA7F0021303009F074FB2046BF
:104EA000FF2200213C3009F06EFB00222A721046DE
:104EB0001726334B06E01C27014679430F9FC9197B
:104EC0008E70401C1968A031097A8142F3D8002005
:104ED0002883288C0026C7B2688CC0B20F9007E0E8
:104EE0002820E16C70430918204602F013FB761C61
:104EF000BE42F5D3002607E03020216D704309182B
:104F0000119802F007FB761C0F988642F4D301201B
:104F1000FFF744F80124684604701A49418023468B
:104F2000042269460CA8FFF77FFC002822D16846BE
:104F3000018E81821449018304260685847520210F
:104F400008A881720024C47204730721417384731A
:104F500005A90DA8FFF728FA00280BD16846048799
:104F60004687818E10AB0EAA008E00F0C3FA00288F
:104F700000D158E700202872472054E70000FFFFC7
:104F8000EC02002001180000052A0000F3B5884853
:104F900081B004680F462646FF368136307AFF34EA
:104FA0004134C0075FD03889FEF7CCF90546019837
:104FB00000285AD0012846D1002D33D0287B400745
:104FC00045D4384600F01EFF0100F86880793AD0D9
:104FD0001E281AD12A7B120717D508212846FEF76A
:104FE00097FF2988012007F071FC0221384602F062
:104FF00071FD42242D8801223721204608F0F0FD62
:105000000100E4D08D802046CEE042060CD5D228A7
:1050100001D05228CFD1A878884203D32046394600
:1050200018301DE0022162E0C1070DD01D2814D008
:105030001B2812D0A889400515D4012189022846D1
:10504000AF61FEF7B5FFB1E0287BC00601D5452072
:10505000FEBD2988002007F027FC20463946243071
:1050600009F0AAFAA2E04120FEBD002D3ED0F8686A
:1050700084791D2C3FD01B2C44D00121384602F0EE
:1050800029FD032C49D0052C47D0072C45D0092CED
:1050900043D00B2C41D00D2C3FD00F2C3DD0112CE8
:1050A0003BD0132C39D0172C37D0192C35D0012CEC
:1050B00033D0022C38D0042C36D0062C34D0082C17
:1050C00032D00A2C30D00C2C2ED00E2C2CD0102C00
:1050D0002AD0122C28D0162C26D0182C24D0522CB2
:1050E00022D0D22C20D01E2C34D037E001213846DB
:1050F00002F0F0FC5AE02988012007F0D5FB394680
:10510000022001E03946012007F0BCFA002825D032
:105110000121384602F0DEFC20E010212846FEF78F
:10512000F7FE2988002017E040212846FEF7F0FE10
:10513000A889000512D5FF2101312846FEF738FF66
:105140002988022007F0B0FB0121C9022846FEF79A
:10515000DFFE03E02988032007F0B8FB307A000661
:1051600024D5A8781B211E30FBF743FA0446012002
:1051700002F0DCFB2146FBF73CFA002816D00C4974
:10518000802209684226FF3181310B7A044693431D
:105190000B722D8801223621304608F021FD0100D6
:1051A00004D08D80CC80304608F006FD0020FEBD86
:1051B000EC02002010B5104A1268FF328132127AD8
:1051C000D20706D002280AD0052804D00A2810D118
:1051D00001E0412010BD4888FEF79EFE09E04888A6
:1051E000FEF7B0F8002804D00122C16892051143EF
:1051F000C160002010BD0000EC020020F1B5FFB03E
:1052000085B047200190002000904E4807688498A0
:10521000FF374137FEF796F8029000286BD0B96847
:10522000083749E000980D4604AC20186B4602226E
:1052300028310EF071FE0098294620186B46012295
:105240002C310EF069FE2E462036307B0099012865
:1052500004A809D040186B461022294608310EF0E8
:105260005BFE01902C6A24E040186B460222F4E7B2
:10527000009904A8401821466B4602221C310EF00A
:105280004BFE009904A8401821466B4601222331A9
:105290000EF042FE2320005D0099012804A82DD0C5
:1052A000401821466B46102208310EF035FE019061
:1052B0002468B442DCD12968B942B3D101980028EE
:1052C00019D10098810709D0011D890889000A1A9F
:1052D000009104A908180B2102F087F902980088B0
:1052E00006F080FC002806D1849804AA0005000D71
:1052F0000099FEF79FF97FB006B0F0BD4018214637
:105300006B46022208310EF007FE019020890E49FB
:105310008842CDD120460299FDF736FE4000A169B2
:1053200003900918009A04A880186B4602220EF018
:10533000F3FD0190A169039802220818002102F0F0
:1053400054F9B5E7EC02002002290000F0B58FB057
:105350000D460446002069460874059064480668B6
:10536000A069FF3641360190002816D0A806800FAC
:1053700003D02088FEF7B6FD059004AB2046059AC1
:105380000199FFF7F9FA412870D0E80708D0218881
:105390000220019A08F0C8FB68E041200FB0F0BD80
:1053A000680705D521880220019A08F077FB5DE0A7
:1053B000A80742D5019800F025FDA178814205D9C2
:1053C00021880220019A08F0F9FA4FE0207B40067C
:1053D00005D5012189022046FEF7EAFD85E001207E
:1053E00002F0CAFA050026D020880105090D2846DA
:1053F00002F0C6FB21880220019A08F0DFFA6168FA
:10540000C8788A7800021043A278401E171848789E
:10541000097802020A43BBB229462046FCF798F8F5
:10542000304629463C3009F0C7F86068B9B2801CA4
:1054300007F092F853E04520B0E7E80616D501984A
:1054400000F0E0FC412702280ED90199801EC968AE
:10545000CD79854201DD012617E0002D04D02946D3
:10546000FBF7D5F800290FD06846077401214903DE
:105470002046FEF74DFD059800282AD004AA0121F8
:105480002F20FEF70BFB2AE00646022000270290A1
:105490001CE0059800280CD0029909AB2A46091D8A
:1054A000019802F010FA294609AA3120FEF7F6FA0F
:1054B00007E0019800902B4621880220029A08F00C
:1054C0000FFE02984019C0B27F1C0290B742E0DB89
:1054D000CCE76846027C2188022008F0CBFE02213E
:1054E000A06902F0F7FA0020A061002056E7000052
:1054F000EC020020F0B50746164885B000681D464E
:10550000FF308130007A14460E46C00706D003A94A
:10551000384607F061F801280AD102E0472005B0BB
:10552000F0BD04AA3046039907F036F8012801D0EF
:105530006020F4E7049A218860881268002900D06E
:10554000108C32466E4631C603233946002000F0E7
:1055500003F8E4E7EC020020FFB50B46002197B00A
:1055600013910D4610910E460591BB4914460A68E9
:1055700021981146FF31413103910021209F06916E
:10558000079141880A910088FF3281320C90107A8D
:10559000C00706D011A9184607F01EF801280AD145
:1055A00002E047201BB0F0BD12AA2046119906F078
:1055B000F3FF012801D06020F4E712982321095C51
:1055C00001293DD10289A5498A42FAD10A9A0C994A
:1055D00004688B18228C934232D8214620311491D2
:1055E0008978012914D0E78B8069007815908006AE
:1055F000800F7DD003984030007A800778D51A98C4
:10560000032875D80028F4D0119B2068203315E0BA
:10561000BA4215D3BB42DFD8E6E701898F4A9142EF
:1056200003D12322125C012A0AD08C4AFF32914214
:1056300003D12321095C012903D000689842ECD1F1
:1056400003E186460028FBD08348016801208002E0
:105650000818806A0E9000900020A031097A8C46CC
:105660004AE01C2201465143009A0891515A0A050A
:1056700040D0179A002A01D091423BD171468A69E5
:1056800041000D91491C515C0B020D99515C06AA19
:10569000591889B20D91002111541A99C90710D0D7
:1056A0001599C9060DD50D99C9070AD001211154C4
:1056B0000D43009A089989188978059A914200D972
:1056C00005911A99890715D51599890612D50D994D
:1056D00089070FD506A90A5C02231A430A54009AC7
:1056E00008991D4389188978059A914202D900E0EA
:1056F0005FE00591401CC0B28445B2D8002D58D05F
:1057000000200E991CE01C2242438B5A1B0515D029
:10571000AB070BD55318DE68B3070DD406AB1B5C83
:105720009B0703D5330701D546203BE7EB0705D0A0
:105730005218127BD20701D0432033E7401CC0B27D
:105740008445E0D80598C01E80B2B84201D93846D9
:1057500001E00598C01EC6B2A8070BD5012002F0D3
:105760000BF91390002872D0F21D012102F0C2F84B
:1057700000280DD1E8071CD0012002F0FDF81090A0
:10578000002805D0F21D012102F0B4F8002810D045
:105790008020FEF703FC1398002802D0012102F0BC
:1057A00099F91098002802D0012102F093F96420A1
:1057B000F8E6A1690C980A9A0818229901F011FFDD
:1057C00014988078012800D1E783002D3AD0224B2D
:1057D0000120196880020818816A002006AA0DE0DD
:1057E0001C234343CF5A3F0506D05F18BC46FB68D5
:1057F000175C3B436746FB60401CC0B2164B1B68FE
:10580000A0331B7A8342EBD8A8070CD513980090DD
:105810002146F21C1C310220A369FCF755FC022032
:10582000139906F02FFFE8070CD01098009021463E
:10583000F21C1C310120A369FCF746FC01201099E1
:1058400006F020FF0020ADE601E06120AAE68020FE
:10585000FEF7A4FBABE70000EC02002003280000E9
:10586000F8B5204E04463568AA3500F0CEF9207010
:10587000000A607000F0C9F9A070000AE07000F042
:10588000C4F9C2B28004830E2271002163710846FC
:10589000275C401C7918C0B289B20628F8D30029C9
:1058A000E3D02078FF280CD16078FF2809D1A078B8
:1058B000FF2806D1E078FF2803D1FF2A01D1FF2B72
:1058C000D3D00622691D204601F087FE0028CCD0E7
:1058D000316806222046743101F07FFE0028C4D0D2
:1058E000F8BD0000EC02002002480068AA300088E1
:1058F00070470000EC02002010B50F4C002803D0C8
:10590000012809D002280FD006F034FE0C214843AC
:1059100000198038406F10BD06F02CFE0C21484362
:1059200000198038806F10BD06F024FE0C2148431A
:1059300000198038C06F10BD7C4005100C207047E6
:1059400010B500F003F8C01C800810BD502070474F
:1059500010B5034906220968AF3101F042FE10BDBF
:10596000EC020020F7B5174600241BE00098104910
:10597000001940188608019800190546FAF728FE14
:105980000102E878090A0006014309480D46B10002
:1059900040420E1829463046FDF7AEFA306885427F
:1059A00004D1241DBC42E1DB0020FEBD4A20FEBD27
:1059B0000000FCEF30B50D460446002307E000F080
:1059C00024F9E054000AE1189B1C4870DBB2AB429A
:1059D000F5D330BD10B50448042200680021FF3023
:1059E0001D3001F002FE10BDEC02002010B50128B0
:1059F00017D8072915D80C4A126813462033987512
:105A0000D9758007C906000E090E01430020074B17
:105A1000A03203E08401E418A172401C147A84428D
:105A2000F8DC002010BD0000EC0200200001002086
:105A3000074A914202DC5242914200DA1146FF22AB
:105A4000993251430A1251180A1451180818704714
:105A5000FFFF4F00401AC01081004018001270472D
:105A600010B50920C00600690002000A07F064F9B9
:105A700010BD70B50D460446FFF7F2FF2946FFF74B
:105A8000D7FF0146204600F001F870BD1FB56A46F9
:105A90003A3010736846029107F0ECF8002800D005
:105AA000012004B010BD00001FB50446002000F026
:105AB00071F806F025FE002C29D1154C2068606095
:105AC000FFF7CEFF0146206012A0FAF7ABFB11A052
:105AD0006168FAF7A7FB03CC083C411A17A0FAF754
