:020000040800F2
:10000000200C0020ED590008995700089B57000864
:100010004D5A0008515A0008555A000800000000C7
:100020000000000000000000000000009D570008D4
:100030009F57000800000000A1570008A3570008C0
:10004000595A00085D5A0008615A0008655A0008AC
:10005000695A00086D5A0008AB570008715A000829
:10006000755A0008795A00087D5A0008815A00081C
:10007000855A0008895A00088D5A0008915A0008CC
:10008000955A0008995A00089D5A0008A15A00087C
:10009000A55A0008A95A0008AD5A0008B15A00082C
:1000A00000000000B55A0008B95A0008BD5A0008FF
:1000B000C15A0008A5580008C55A0008C95A0008C6
:1000C000CD5A0008D15A0008D55A0008D95A00085C
:1000D000DD5A0008E15A0008B5570008E55A000843
:1000E000E95A0008ED5A0008F15A0008F55A0008CC
:1000F000F95A000838B5040000252078C00740F1FF
:10010000EA80DFF8080D006810F00C0008280BD01A
:10011000DFF8F80C006810F00C000C2827D1DFF88D
:10012000EC0C0068C00322D54FF48040B0FA80F098
:1001300050F02000C0B24009C0B2012803D1DFF85E
:100140007C08006802E0DFF8CC0C00684FF48041C6
:10015000B1FA81F111F01F01C840C00740F1BB8026
:100160006068002840F0B780012000F024BCDFF870
:100170004C08006830F48030DFF840180860DFF881
:100180003C08006830F48020DFF83018086000F088
:1001900031FF05004FF48040B0FA80F050F02000AD
:1001A000C0B24009C0B2012803D1DFF810080068CE
:1001B00002E0DFF8600C00684FF48041B1FA81F191
:1001C00011F01F01C840C00708D500F013FF401B05
:1001D00041F289318842DDD30320ECE3DFF8DC070C
:1001E000006830F48030DFF8D417086060680128B8
:1001F00010D1DFF8C807006830F48020DFF8BC17A2
:100200000860DFF8B807006850F48030DFF8AC17FA
:1002100008600FE06068052804D16068DFF8A01C62
:10022000087007E0DFF89407006830F48020DFF8FA
:100230008C1708606068002826D000F0DBFE0500FF
:100240004FF48040B0FA80F050F02000C0B2400976
:10025000C0B2012803D1DFF86407006802E0DFF8CC
:10026000B40B00684FF48041B1FA81F111F01F0125
:10027000C840C0072FD400F0BDFE401B41F28931B9
:100280008842DDD3032096E300F0B4FE05004FF46E
:100290008040B0FA80F050F02000C0B24009C0B2F7
:1002A000012803D1DFF81407006802E0DFF8640BCF
:1002B00000684FF48041B1FA81F111F01F01C8408C
:1002C000C00708D500F096FE401B41F289318842F4
:1002D000DDD303206FE32078800740F1B680DFF89C
:1002E0002C0B006810F00C0004280BD0DFF81C0B5E
:1002F000006810F00C000C2835D1DFF8100B0068F6
:10030000C00330D45FF08040B0FA80F050F020009D
:10031000C0B24009C0B2012803D1DFF8A0060068CE
:1003200002E0DFF8F00A00685FF08041B1FA81F185
:1003300011F01F01C840C00704D5E068012801D0B2
:10034000012038E3DFF8C80A00685FF47801B1FAE9
:1003500081F130F4F850226912FA01F10843DFF814
:10036000B01A086071E0E06800283FD001205FF01B
:100370000041B1FA81F1DFF8B42B12EB8101086082
:1003800000F038FE05005FF08040B0FA80F050F0D9
:100390002000C0B24009C0B2012803D1DFF81C061A
:1003A000006802E0DFF86C0A00685FF08041B1FA93
:1003B00081F111F01F01C840C00706D400F01AFEF9
:1003C000401B6528DFD30320F5E2DFF8440A00680C
:1003D0005FF47801B1FA81F130F4F850226912FA31
:1003E00001F10843DFF8281A08602EE000205FF0D2
:1003F0000041B1FA81F1DFF8342B12EB8101086082
:1004000000F0F8FD05005FF08040B0FA80F050F099
:100410002000C0B24009C0B2012803D1DFF89C051A
:10042000006802E0DFF8EC0900685FF08041B1FA93
:1004300081F111F01F01C840C00706D500F0DAFDB8
:10044000401B6528DFD30320B5E22078C00640F1C9
:10045000EE80DFF8B809006810F00C0F6CD15FF483
:100460008000B0FA80F050F02000C0B24009C0B265
:10047000012803D1DFF84405006802E0DFF89409A1
:1004800000685FF48001B1FA81F111F01F01C840EA
:10049000C00704D5A069002801D101208BE2DFF854
:1004A0007009006810F46040216A884220D2206AF6
:1004B00000F03EFD002801D001207CE2DFF8500969
:1004C000006830F46040216A0843DFF8441908608E
:1004D000DFF83C090068FF21B1FA81F120F07F408C
:1004E000E26912FA01F10843DFF8241908601FE0FD
:1004F000DFF81C09006830F46040216A0843DFF827
:1005000010190860DFF808090068FF21B1FA81F1CD
:1005100020F07F40E26912FA01F10843DFF8F01899
:100520000860206A00F004FD002801D0012042E2AA
:10053000002000F065FD7AE0A069002848D0012085
:100540005FF40001B1FA81F1DFF8E02912EB8101DB
:10055000086000F04FFD05005FF48000B0FA80F005
:1005600050F02000C0B24009C0B2012803D1DFF82A
:100570004C04006802E0DFF89C0800685FF480012A
:10058000B1FA81F111F01F01C840C00706D400F094
:1005900031FD401B6528DFD303200CE2DFF8700833
:1005A000006830F46040216A0843DFF8641808608E
:1005B000DFF85C080068FF21B1FA81F120F07F408C
:1005C000E26912FA01F10843DFF8441808602EE0EE
:1005D00000205FF40001B1FA81F1DFF8502912EB3D
:1005E0008101086000F006FD05005FF48000B0FAAC
:1005F00080F050F02000C0B24009C0B2012803D101
:10060000DFF8B803006802E0DFF8080800685FF46C
:100610008001B1FA81F111F01F01C840C00706D571
:1006200000F0E8FC401B6528DFD30320C3E12078FD
:1006300000074AD56069002823D001205FF00041FF
:10064000B1FA81F1DFF8782912EB8101086000F03E
:10065000D1FC05005FF08040B0FA80F0DFF8B4070D
:1006600000685FF08041B1FA81F111F01F01C840CC
:10067000C0072AD400F0BEFC401B6528EAD3032043
:1006800099E100205FF00041B1FA81F1DFF83029F3
:1006900012EB8101086000F0ADFC05005FF08040C6
:1006A000B0FA80F0DFF86C0700685FF08041B1FAC3
:1006B00081F111F01F01C840C00706D500F09AFC77
:1006C000401B6528EAD3032075E12078400740F1FC
:1006D000D180DFF8F008006850F08050DFF8E418AF
:1006E0000860DFF8E008006810F080500090009883
:1006F000DFF8D408006850F48070DFF8CC18086088
:1007000000F078FC0500DFF8C0080068C00506D4DA
:1007100000F070FC401B6528F5D303204BE1DFF8A7
:10072000F406006830F48070DFF8E8160860DFF83F
:10073000E406006830F48060DFF8D816086000F046
:1007400059FC05005FF48000B0FA80F0DFF8C406C1
:1007500000685FF48001B1FA81F111F01F01C84017
:10076000C00708D500F046FC401B41F289318842A1
:10077000E8D303201FE1A068012808D1DFF8940620
:10078000006850F48070DFF88C16086037E0A068CD
:10079000002810D1DFF87C06006830F48070DFF8A4
:1007A00074160860DFF86C06006830F48060DFF8CB
:1007B0006416086023E0A068052810D1DFF854060D
:1007C000006850F48060DFF84C160860DFF84406DB
:1007D000006850F48070DFF83C1608600FE0DFF826
:1007E0003406006830F48070DFF828160860DFF8FF
:1007F0002406006830F48060DFF818160860A068EE
:1008000000281BD000F0F6FB05005FF48000B0FA72
:1008100080F0DFF8000600685FF48001B1FA81F132
:1008200011F01F01C840C00724D400F0E3FB401BB7
:1008300041F289318842E8D30320BCE000F0DAFBC2
:1008400005005FF48000B0FA80F0DFF8C8050068AA
:100850005FF48001B1FA81F111F01F01C840C007B7
:1008600008D500F0C7FB401B41F289318842E8D32C
:100870000320A0E0606A002800F09C80DFF88C056F
:10088000006810F00C000C2800F09280606A0228CA
:1008900063D100208021B1FA81F1DFF8902612EBBC
:1008A0008101086000F0A6FB05004020B0FA80F04E
:1008B00050F02000C0B24009C0B2012802D13F4828
:1008C000006802E0DFF84C0500684021B1FA81F1D0
:1008D00011F01F01C840C00706D500F08BFB401B7C
:1008E0006528E2D3032066E0DFF82005006830F4D5
:1008F0007D00A16A0843E16A0843216B0843DFF8E1
:100900000C15086001208021B1FA81F1DFF81C2666
:1009100012EB8101086000F06DFB05004020B0FA89
:1009200080F050F02000C0B24009C0B2012802D1CE
:100930002248006802E0DFF8DC0400684021B1FAD8
:1009400081F111F01F01C840C00733D400F052FB01
:10095000401B6528E2D303202DE000208021B1FA5E
:1009600081F1DFF8C82512EB8101086000F042FB3D
:1009700005004020B0FA80F050F02000C0B24009DD
:10098000C0B2012802D10D48006802E0DFF88404FB
:1009900000684021B1FA81F111F01F01C840C00781
:1009A00008D500F027FB401B6528E2D3032002E0B6
:1009B000012000E0002032BD0000000000380240AD
:1009C00070B504000D000026DFF80006006810F086
:1009D0000100A84280F00181012D07D1DFF8EC056C
:1009E000006850F00400DFF8E4150860DFF8DC056B
:1009F0000068400840002843DFF8D0150860DFF8A1
:100A0000CC05006810F00100A84201D00120FCE1F3
:100A10002078800709D5DFF8B805006830F0F000CD
:100A2000A1680843DFF8A81508602078C00740F1E6
:100A3000CD81606802281CD14FF48040B0FA80F06C
:100A400050F02000C0B24009C0B2012803D1DFF845
:100A50008405006802E0DFF8BC0300684FF48041C1
:100A6000B1FA81F111F01F01C840C0075CD4012028
:100A7000CBE1606803281AD14020B0FA80F050F032
:100A80002000C0B24009C0B2012803D1DFF84405FC
:100A9000006802E0DFF87C0300684021B1FA81F1D0
:100AA00011F01F01C840C0073ED40120ADE16068CD
:100AB00001281CD15FF08040B0FA80F050F0200097
:100AC000C0B24009C0B2012803D1DFF808050068B0
:100AD00002E0DFF8400300685FF08041B1FA81F185
:100AE00011F01F01C840C0071ED401208DE15FF442
:100AF0008000B0FA80F050F02000C0B24009C0B2CF
:100B0000012803D1DFF8CC04006802E0DFF8040319
:100B100000685FF48001B1FA81F111F01F01C84053
:100B2000C00701D4012070E1DFF8A4040068800848
:100B3000800061680843DFF89814086000F05AFAF2
:100B400006006068022810D1DFF88404006810F005
:100B50000C00082800F03A8100F04CFA801B41F2AA
:100B600089318842F0D303204FE16068032810D117
:100B7000DFF85C04006810F00C000C2800F02681FF
:100B800000F038FA801B41F289318842F0D303200B
:100B90003BE16068012810D1DFF83404006810F0F0
:100BA0000C00042800F0128100F024FA801B41F2AE
:100BB00089318842F0D3032027E1DFF8140400686C
:100BC00010F00C0F00F0028100F014FA801B41F2CB
:100BD00089318842F1D3032017E12078800709D5B5
:100BE000DFF8EC03006830F0F000A1680843DFF89C
:100BF000E01308602078C00740F1CC8060680228CC
:100C00001BD14FF48040B0FA80F050F02000C0B209
:100C10004009C0B2012803D1DFF8B803006801E041
:100C20007C4800684FF48041B1FA81F111F01F0156
:100C3000C840C00759D40120E7E06068032819D1F3
:100C40004020B0FA80F050F02000C0B24009C0B29D
:100C5000012803D1DFF87C03006801E06D480068DB
:100C60004021B1FA81F111F01F01C840C0073CD406
:100C70000120CAE0606801281BD15FF08040B0FA13
:100C800080F050F02000C0B24009C0B2012803D16A
:100C9000DFF84003006801E05E4800685FF08041D3
:100CA000B1FA81F111F01F01C840C0071DD4012025
:100CB000ABE05FF48000B0FA80F050F02000C0B2EA
:100CC0004009C0B2012803D1DFF80803006801E041
:100CD000504800685FF48001B1FA81F111F01F0102
:100CE000C840C00701D401208FE0DFF8E4020068AB
:100CF0008008800061680843DFF8D412086000F0C3
:100D000079F90600606802280FD1DFF8C402006894
:100D100010F00C0008283DD000F06CF9801B41F267
:100D200089318842F1D303206FE0606803280FD136
:100D3000DFF89C02006810F00C000C282AD000F0AC
:100D400059F9801B41F289318842F1D303205CE0DC
:100D5000606801280FD1DFF87802006810F00C00FD
:100D6000042817D000F046F9801B41F289318842EF
:100D7000F1D3032049E0DFF85802006810F00C0FAF
:100D800008D000F037F9801B41F289318842F2D354
:100D900003203AE0012D07D1DFF83002006850F05F
:100DA0000400DFF828120860DFF82002006840081D
:100DB00040002843DFF814120860DFF810020068D2
:100DC00010F00100A84201D001201EE02078400769
:100DD00009D5DFF8FC01006830F4E060E168084301
:100DE000DFF8EC110860207800070AD5DFF8E00191
:100DF000006830F46050216950EAC100DFF8D0117A
:100E00000860002000F0FCF8002070BD08380240A7
:100E10000438024034380240F0B40021002200239C
:100E20000024002500206A4E3668310011F00C06BF
:100E3000042E04D0082E05D00C2E06D02CE0664ED1
:100E400030003AE0654E300037E0654E11F470171F
:100E50004FF4705CBCFA8CFC37FA0CF7F65D32008C
:100E6000604E11F440074FF4407CBCFA8CFC37FA1A
:100E70000CF7F65D3300564E3668F60305D5B2FB27
:100E8000F3F6564F7E43340004E0B2FBF3F6524FC4
:100E90007E433400200010E0534E366816F460465E
:100EA0005FF4E027B7FA87F7FE40350001266F1C94
:100EB000BE404FF400477E433000F0BC7047000056
:100EC0000238024080B5FFF7A7FF41490968474A49
:100ED00011F0F0015FF07063B3FA83F3D940515C15
:100EE000C840434908604248006802BD80B5FFF72A
:100EF000E9FF374909683D4A11F4E0615FF4600396
:100F0000B3FA83F3D940515CC84002BD80B5FFF706
:100F1000D9FF2F490968354A11F460515FF4E01395
:100F2000B3FA83F3D940515CC84002BD0000474288
:100F300070B582B00400002500262548006810F036
:100F4000F00F24D11F480068C00003D500F06AF8F4
:100F5000050014E01B48006850F0805019490860F3
:100F60001848006810F080500090009800F05AF87F
:100F700005001448006830F0805012490860B5F54B
:100F8000C05F04D1B4F5404F01D101200600012E0D
:100F900005D10E48006850F004000C4908600B4869
:100FA000006840084000304308490860074800686E
:100FB00010F00100B04201D0012000E0002076BD19
:100FC000800647422438024000700040003C024046
:100FD00008380240003802400024F40000127A0071
:100FE000FC590008485A000804380240DC5900083F
:100FF0001400002001480068704700BF84120020E0
:1010000010B50400FFF75EFF4FF47A71B0FBF1F00A
:1010100000F0A9F8002221005FF0FF3000F082F814
:10102000002010BD0248006810F4C0507047000056
:101030000070004010F007024E4B1B6819004FF67D
:10104000FF0319404C4B53EA02231943494B1960E3
:10105000704748480068C0F302207047012110F033
:101060001F029140454A40B2430942F8231070479D
:10107000012110F01F029140414A40B2430942F859
:101080002310704710B440B2002808D50A013D4B28
:1010900040B210F00F04234403F8042C03E00A01CB
:1010A000394B40B21A5410BC704770B4030013F0AF
:1010B0000704D4F10706052E01D3042001E0D4F182
:1010C0000700261D072E01D2002500E0E51E01269F
:1010D00016FA00F0401E0840A8400121A940491E10
:1010E0001140084370BC704710B50400601EB0F199
:1010F000807F01D301200EE0601E244908600F218B
:101100005FF0FF30FFF7BEFF002021490860072095
:1011100020490860002010BD10B504002000FFF732
:1011200089FF10BDF8B504000D0016000027FFF779
:1011300090FF0700320029003800FFF7B6FF0100DA
:10114000200040B2FFF79EFFF1BD10B50400200063
:1011500040B2FFF783FF10BD10B50400200040B27D
:10116000FFF786FF10BD10B504002000FFF7BCFF9D
:1011700010BD00000CED00E00000FA0500E100E009
:1011800080E100E018ED00E000E400E014E000E0A1
:1011900018E000E010E000E02DE9F04184B0040028
:1011A0000D00002006003000C0B2290080B289B2D4
:1011B000884280F0A480DFF8CC090088B0F5FF7F7A
:1011C00003DD0020DFF8BC190880F6B2A05DDFF86F
:1011D000B819DFF8B02912888854F6B2A05D00F083
:1011E000B3FDDFF8A0090088401CDFF898190880DB
:1011F000DFF89409DFF88C190988084410F8010C0D
:101200000A287AD1DFF87C090088012871D00027EC
:101210000020DFF87419DFF86C2912888854DFF891
:1012200064090088874264DADFF858090088C01B27
:10123000152802DB5FF0140804E0DFF84809008895
:10124000B0EB0708DFF8440900680A2101FB00F150
:1012500001A800F0A5FDDFF838090078012825D1A4
:10126000DFF82409384400904346DBB20022DFF85F
:1012700024090188DFF82009008800F0D4FE6428E2
:1012800034D1DFF81809006850F40040DFF80C1979
:101290000860DFF8080900680004E1D501F037F8BC
:1012A00001A800F085FD0028F3D0D9E7DFF8E008B9
:1012B0000078002819D1DFF8D00800EB0703424678
:1012C000D2B2DFF8DC080088411C89B2DFF8D4080C
:1012D000008800F09CFF462808D101F018F801A80A
:1012E00000F066FD0028E6D000E002E018EB0707FA
:1012F00095E70020DFF88C180880761C53E7BDE8DE
:10130000FF8180B50020DFF8A01808700020DFF80A
:10131000981848700020DFF8901888700020DFF8D7
:101320008818C8700020DFF8801848600020DFF8B7
:101330007818088206220021DFF8700801F0E5F92C
:10134000FF20DFF84C18087001BD30B585B0684645
:10135000DFF85C18D1E90023C0E9002302A801F0FE
:1013600015FA0400E4B2002C05D0E4B22100DFF845
:10137000440801F03BFA40F6B830DFF83C1808802A
:101380000020C0B208280CDADFF82C18098802AA5D
:10139000C0B2125C11EB4201DFF81C281180401C26
:1013A000EFE79DF808008DF800009DF80B008DF820
:1013B00001009DF80E008DF802006A46062100200B
:1013C00001F026FA0400E4B2002C06D0E4B22100B9
:1013D000DFF8E80701F00AFA16E0DFF8E40701F0A9
:1013E00005FA0525EDB2002D08D06846EDB2415D45
:1013F000DFF8D00701F0FAF96D1EF3E79DF8001051
:10140000DFF8C40701F0F2F905B030BD70B5040093
:101410000D00002630002100C0B2C9B288421AD2A5
:10142000F6B205EB0600407809280ED11022DFF84D
:101430009C17F6B205EB0600401C01F05DFA00288F
:1014400001D1012008E0002006E03000C0B2285C95
:10145000401C8619DEE7002070BD1FB5FFF775FF41
:101460000421012001F016FA00F0B1FC0400E4B2FE
:10147000002C08D0E4B22100DFF8540701F0B6F9DF
:101480002000C0B229E002A801900DF10A000090EE
:1014900003AB07220021052001F009FB0400E4B2A0
:1014A000002C08D0E4B22100DFF8280701F09EF9F3
:1014B0002000C0B211E001F039FC0400E4B2002CBD
:1014C00008D0E4B22100DFF8100701F08FF9200006
:1014D000C0B202E0FFF715FF002004B010BD30B528
:1014E00087B0DFF8C406008A002815D001281AD07A
:1014F000022800F00181042842D0082800F0AF80C3
:10150000102800F0FE80202800F08E80402871D046
:10151000802800F0348135E1FFF7F3FE0120DFF889
:10152000881608822EE1002300224FF480414FF4F8
:10153000804001F00FFB0400E4B2002C0AD0E4B2BA
:101540002100DFF8980601F051F98020DFF85816E5
:10155000088214E0DFF8880601F048F901F08CFCFD
:10156000DFF8441648600120DFF83C1608700020C0
:10157000DFF8341648700420DFF82C16088201E1E9
:10158000DFF824060078012817D101F075FCDFF898
:1015900028160988DFF810265268801A814228D25E
:1015A0000020DFF8041608700020DFF8FC15486002
:1015B0002020DFF8F41508821BE0DFF8EC05407806
:1015C000012816D101F058FCDFF8EC150988DFF886
:1015D000D8255268801A81420BD20020DFF8C81546
:1015E00048700020DFF8C01548604020DFF8B815CB
:1015F0000882C7E001F0B1F90400E4B2002C0AD07F
:10160000E4B22100DFF8DC0501F0F0F88020DFF81B
:101610009815088207E0DFF8D00501F0E7F8002010
:10162000DFF884150882ADE0022001F04FFB0400D2
:10163000E4B2002C0AD0E4B22100DFF8B00501F0DA
:10164000D5F88020DFF8601508829BE0DFF8A00560
:1016500001F0CCF80220DFF85015088292E0DFF8A4
:10166000940501F0C3F80525EDB2002D0AD0DFF88E
:101670003805EDB22844417ADFF8480501F0B6F8A4
:101680006D1EF1E7DFF82005417ADFF83C0501F037
:10169000ADF84FF4FA6006904FF4FA6005903C20E4
:1016A0000490002003902820029028200190002020
:1016B0000090DFF8F834DFF8F004027A4FF480414C
:1016C0004FF4804001F08EFA0400E4B2002C0AD0FE
:1016D000E4B22100DFF8200501F088F88020DFF86F
:1016E000C814088207E0DFF8140501F07FF8022033
:1016F000DFF8B414088245E00220DFF8AC14088259
:1017000040E00021002001F00BF8082006900620A0
:1017100005900020049000200390DFF8B0040290B0
:1017200010200190002000900023902290210020A2
:1017300001F039F90400E4B2002C0AD0E4B221002F
:10174000DFF8BC0401F052F88020DFF85C14088256
:1017500014E0DFF8B00401F049F801F08DFBDFF888
:10176000481448600120DFF8401448700020DFF87A
:10177000381408700420DFF83014088202E0FFF704
:10178000C0FDFFE707B030BD00B58BB0DFF80C043B
:101790000068C00501D5FFF7A2FEDFF8F40300786A
:1017A000002840F09780DFF8F403006880052AD510
:1017B000DFF8E8030068C00425D4DFF8E003006820
:1017C00000054FD407A8DFF84014102201F068FB91
:1017D000102207A9DFF8340400F08CFFDFF82C0496
:1017E000009002234FF6FF720121DFF8B803008852
:1017F00000F06BFCDFF8A403006850F40060DFF831
:101800009C1308602EE0DFF894030068800529D55A
:10181000DFF888030068400424D4DFF88003006800
:1018200080041FD403A8DFF8E813102201F038FB6E
:10183000102203A9DFF8DC0300F05CFFDFF8D4031B
:10184000009002234FF6FF720121DFF85803008851
:1018500000F03BFCDFF84403006850F40050DFF870
:101860003C130860DFF834030068800532D5DFF8E8
:101870002C030068C0042DD5DFF820030068400465
:1018800028D5C6480068400524D4DFF88C030088BA
:10189000ADF80000BD4800680A2101FB00F101A875
:1018A00000F07EFA6B460222DFF870030088811C8C
:1018B00089B2BC48008800F05CFC462804D101A82D
:1018C00000F076FA0028EDD0B448006850F480604B
:1018D000B24908600BB000BD30B4C0B2022819D1C3
:1018E000B14CE478012C0CD10024AF4DEC700024F5
:1018F000AD4D2C700024AC4D6C600824AA4D2C8298
:1019000008E00024A84D2C700024A74D6C60102422
:10191000A54D2C8230BC70472DE9F84304000D0022
:1019200016001F00DDF820809C48006830F48070AD
:101930009A49086000209C49087000209A49487024
:10194000002099494860974805809448006850F401
:101950000070924908600020934908828C48067004
:10196000AF4800F043FF5FF005095FFA89F9B9F16C
:10197000000F09D05FFA89F918F80910914800F0B2
:1019800035FFB9F10109F0E798F800108E4800F032
:101990002DFFBDE8F18370B504000D0016007F48EF
:1019A000006830F400707D4908607C48006850F49D
:1019B00080707A4908607948006830F4806077491F
:1019C00008607648006830F4006074490860734825
:1019D000006830F48050714908607048006830F445
:1019E00000506E4908606D48006830F480406B49D3
:1019F00008606A48006830F4004068490860F6B240
:101A00003100884800F0F2FEFFF77BFC70BD2DE945
:101A1000FC4104000D002E782F7A95F801800622F3
:101A2000A91C684600F066FE5F488078002823D134
:101A3000F6B2002E20D1E9683800C0B2FFF7E6FC0C
:101A4000002819D001205849887001205649C870D3
:101A5000002055490870002053494870524880F8CA
:101A6000088006226946514800F044FE20204E4975
:101A700008826D4800F0BAFEBDE8F3812DE9F0411F
:101A800004000D0016001F00DDF8188042463900E2
:101A9000C9B2280080B201F0B2F9BDE8F081F8B512
:101AA00004000D0016001F00ADB25C480088401C09
:101AB000854214D100208DF800009DF8000031000F
:101AC000C9B288420BD29DF80000395C2CA000F00E
:101AD0008DFE9DF80000401C8DF80000EDE7F1BD83
:101AE000F8B504000D0016001F00A4B221004F48F5
:101AF00000F07CFE2948006800050BD527480068E7
:101B0000C00407D44548058044480188484800F08F
:101B10006DFE0EE02148006880040AD51F48006869
:101B2000400406D41E4805801D480188414800F045
:101B30005DFEF1BD194A126812050AD5174A1268EE
:101B4000D20406D4154A126852F48052134B1A601C
:101B50000DE0124A1268920409D5104A1268520424
:101B600005D40E4A126852F480420C4B1A6070473A
:101B70000A4A126832F40042084B1A6070470000AB
:101B80002563000094120020DC0E0020445A000857
:101B9000180000209812002096120020000000205B
:101BA000901200208C1200201C1200202512002010
:101BB0001C5A0008E456000892120020F057000852
:101BC00068590008245A00082C5A00080400002014
:101BD000505800086C58000808570008985400082E
:101BE00094550008385500082C5700080455000883
:101BF0006C56000888580008C055000810580008A6
:101C0000EC550008305800087C59000830120020BC
:101C10008C59000840120020A62200088E120020D5
:101C200094560008505700089C5900085853000863
:101C3000205900083859000810B586B00400E4B2F5
:101C4000002C3CD14B48006850F4003049490860F2
:101C50004848006810F4003000900098464800683A
:101C600050F00100444908604348006810F001004A
:101C7000009000984048006850F001003E4908601C
:101C80003D48006810F00100009000983B483C4936
:101C900008603B4801F068F95FF4E130384948607A
:101CA00000203749886000203549C8600020344949
:101CB00008610020324988610C20314948610420C4
:101CC000019002200290012003900320049007203D
:101CD000059001A92B4801F0F9FC0820019007208C
:101CE000059001A9274801F0F1FC002202212620DD
:101CF000FFF718FA2620FFF728FA214801F0FCF830
:101D0000012221491E4801F0D2F906B010BD1C483D
:101D1000006800680006FAD5704701B5FFF7F7FFC5
:101D2000052301226946164801F043F901BD80B53B
:101D3000134801F000FA01BD10B504001348046017
:101D40000020FFF779FF10BD10B504002000C0B2DD
:101D5000FFF7E3FF10BD38B504000D000B48006825
:101D6000002805D0290089B22000084A126890474F
:101D700031BD0000243802401C38024000440040BD
:101D800034110020000002409C120020801200202C
:101D900010B504002000C0B2FFF7D6FF200010BD30
:101DA00038B504000D00656001F066F8206031BDB3
:101DB00010B5040001F060F82168401A401C616809
:101DC000814201D2012000E00020C0B210BD00B568
:101DD00087B000208DF800001822002101A800F033
:101DE00094FC3F20ADF8040040F20110ADF806006D
:101DF0006846059001200690002101A800F08CFBA8
:101E0000002801D5FF2007E09DF80000002802D03F
:101E10009DF8000000E0002007B000BD2DE9F04F64
:101E2000C9B004000D0016001F00DDF848810DF157
:101E30002009E4B2012C01D1022005E0E4B2022C19
:101E400001D1102000E0002008A90844401C0190A6
:101E500003220021684600F058FC5FF0000B89F86F
:101E600000401BF1010BE4B22000012802D002283F
:101E700003D005E00220824604E01020824601E003
:101E800047203BE05FFA8AFA5246290019F1010027
:101E900000F030FC1AEB0B0B019806701BF1010BE4
:101EA000019847701BF1010B1822002102A800F0D5
:101EB0002CFC3F20ADF808004FF48170ADF80A000B
:101EC00008A804905FFA8BFBCDF814B06846069022
:101ED00003200790002102A800F01EFB002801D576
:101EE000FF200BE09DF80000002802D09DF80000C4
:101EF00004E0BDF80100A8F80000002049B0BDE8EA
:101F0000F08F2DE9FD4FCAB00F00589C599D5A9E85
:101F1000DDF86C810DF12009FFB2012F01D1022003
:101F200005E0FFB2022F01D1102000E0002008A937
:101F3000084410F1030A03220021684600F0E5FB83
:101F40005FF0000BBDF82801A9F800001BF1020B9F
:101F500089F802701BF1010BFFB23800012802D092
:101F6000022804D007E002208DF8040005E01020CC
:101F70008DF8040001E0472052E09DF804204B99C1
:101F800019F1030000F0B6FB9DF8040010EB0B0BF9
:101F9000BDF83001AAF800001BF1020B9DF85801B2
:101FA0008AF802001BF1010B9DF85C018AF803001E
:101FB0001BF1010B8AF804401BF1010B8AF8055054
:101FC0001BF1010B8AF806601BF1010B182200219E
:101FD00002A800F09AFB3F20ADF808004FF4827091
:101FE000ADF80A0008A804905FFA8BFBCDF814B096
:101FF0006846069003200790002102A800F08CFAA2
:10200000002801D5FF200BE09DF80000002802D039
:102010009DF8000004E0BDF80100A8F800000020D1
:102020004DB0BDE8F08F2DE9F047C8B004000D00B9
:1020300016001F00DDF840810DF11C0900208DF80D
:1020400000005FF0000AA9F800401AF1020AA9F89E
:1020500002501AF1020A89F804601AF1010A89F89B
:1020600005701AF1010AFFB23A00414619F1060063
:1020700000F040FB17EB0A0A1822002101A800F02B
:1020800044FB3F20ADF804004FF48370ADF8060028
:1020900007A803905FFA8AFACDF810A06846059069
:1020A00001200690002101A800F036FA002801D591
:1020B000FF2007E09DF80000002802D09DF80000F6
:1020C00000E0002048B0BDE8F0872DE9F047C8B037
:1020D00004000D0016001F00DDF840810DF11C0901
:1020E00000208DF800005FF0000AA9F800401AF106
:1020F000020AA9F802501AF1020AA9F804601AF1BA
:10210000020A89F806701AF1010AFFB23A00414644
:1021100019F1070000F0EEFA1AF1100A1822002156
:1021200001A800F0F2FA3F20ADF804004FF48B70E4
:10213000ADF806000F20029007A803905FFA8AFA14
:10214000CDF810A06846059001200690002101A856
:1021500000F0E2F9002801D5FF2007E09DF800001B
:10216000002802D09DF8000000E0002048B0BDE843
:10217000F0872DE9F043C9B004000D0016001F00E0
:102180000DF11C0800208DF800005FF00009A8F890
:10219000004019F10209A8F8025019F1020988F863
:1021A000046019F10109F6B23200390018F1050096
:1021B00000F0A0FA16EB09091822002101A800F08E
:1021C000A4FA3F20ADF8040040F22110ADF806005B
:1021D0000F20029007A803905FFA89F9CDF81090BC
:1021E0006846059001200690002101A800F094F9AE
:1021F000002801D5FF2007E09DF80000002802D04C
:102200009DF8000000E0002049B0BDE8F0832DE912
:10221000F043C9B004000D0016001F000DF11C08AA
:1022200000208DF800005FF00009A8F8004019F1C7
:102230000209A8F8025019F1020988F8046019F19E
:102240000109F6B23200390018F1050000F052FA27
:1022500016EB09091822002101A800F056FA3F20C8
:10226000ADF8040040F22310ADF8060007A8039073
:102270005FFA89F9CDF81090684605900120069024
:10228000002101A800F048F9002801D5FF2007E04F
:102290009DF80000002802D09DF8000000E000201A
:1022A00049B0BDE8F083010038B50025DFF8280407
:1022B00001F030FBDFF8240401F02CFB00200400C7
:1022C000E4B2052C0CDADFF81804E4B28C2101FB2F
:1022D00004F10144DFF8000401F02EFB641CEFE779
:1022E00001F012FD2800C0B232BD010011F1080258
:1022F0001078042801D0012008E0907891F8883007
:10230000DB1E984201D0022000E0002070472DE93A
:10231000F04182B00020009001F016FDDFF8BC0310
:1023200001F0FBFA0500EDB2002D60D16946DFF83F
:10233000AC0301F00FFB01F00CFD009810F1080652
:102340003078042848D1771C38783E2818D117F106
:10235000020800200400092C3ED298F80000DFF8A3
:10236000841331F8341080B2884207D118F101008B
:10237000DFF8701301EBC40149688847641CEAE781
:102380003878FF2815D117F10208002004002A2C04
:1023900022D2B8F80000D44931F83410884206D16E
:1023A00018F10200D04901EBC40149688847641C58
:1023B000EDE700200400072C0ED23878CB4931F825
:1023C000341080B2884205D1B81CC84901EBC40161
:1023D00049688847641CEEE701F0B6FC0099BE48E6
:1023E00001F0AAFABD4801F098FA05009BE700F059
:1023F00009F801F0AEFCBDE8F38180B5B74801F003
:102400008CFA02BD10B582B00020009001F0A6FC4D
:1024100001F035FB002827D0AF4801F07EFA0028F4
:1024200022D16946AC4801F095FA80210098083025
:1024300001F099FC0400E4B2002C11D0009880F85F
:1024400088400098FFF751FF002804D10099A34865
:1024500001F072FA08E000999F4801F066FA03E083
:1024600000999D4801F061FA13BDF8B504000D0014
:1024700016001F00FFB23B009BB2F6B2320092B2D0
:102480002900200001F014FDF1BDF0B583B0040077
:102490000D0016001F00A805800D50EA8420ADF83D
:1024A00004008DF8066001208DF80000032201A9C8
:1024B0000DF1010000F01EF93300DBB204223900F7
:1024C0006846FFF7D2FFF7BD38B504000D002800BD
:1024D00001F023FA002808D16946280001F049FAE2
:1024E0000099200001F021FAF1E731BD80B501F03B
:1024F0002BFC794801F04CFA02280ADA6946774841
:1025000001F028FA0099744801F016FAFFF77AFFF3
:10251000EFE701F01EFC01BD2DE9F04F89B004008A
:102520000D0060888005800D218850EA8126704862
:1025300000680A21B0FBF1F80020009004A801F027
:10254000E9F9FFF7D3FFA368E0680200D2B261881F
:102550002088FFF79AFFEDB2002D01D00020B8E0EF
:10256000B8F1000F01D101208046414606A8FFF7CF
:1025700017FC06A8FFF71CFC002840F08F80FFF72F
:102580003CFF0028F5D101F0DFFB6946534801F01C
:10259000E1F90098083007003878042862D1781CE7
:1025A000039000980B308246009890F88800C01E77
:1025B0008346039800780E2822D00F2804D01028D4
:1025C0004FD03E2836D04DE0D146B9F80200310058
:1025D00089B2884262D160680F2804D099F800005F
:1025E00000285BD13EE06069834501DA584600E08F
:1025F0006069606162695146206900F07BF85DE0C6
:10260000CDF808A00298B0F80100310089B28842E4
:1026100044D11AF1030ABBF1030B6069834501DA67
:10262000584600E06069606162695146206900F0C7
:1026300061F843E0CDF804A0019800786168884211
:1026400010D1BBF1010B6069834501DA584600E007
:102650006069606162690198411C206900F04AF874
:102660002CE01BE01C4801F058F900280BD01B4857
:1026700001F053F9002806D00099174801F05CF9E1
:102680000020009005E0009904A801F055F9002011
:102690000090FFF7B7FE01F05CFB6AE700980028A6
:1026A00003D000990C4801F040F904A90B48FFF74A
:1026B0000BFF01F04EFB5FF0FF300AE00099064887
:1026C00001F033F904A90548FFF7FEFE01F041FBD4
:1026D000002009B0BDE8F08F7012002078120020B1
:1026E000200C002010530008AC4F00086054000874
:1026F000445A000870B504000D001600320029008D
:10270000200000F0BDFB200070BD70B504000D007E
:1027100016002A003100200001F01CFC200070BDD2
:10272000F0B5C9B004000D0007AE00208DF8000020
:10273000002734707F1C1F222900701CFFF7DAFF6E
:102740001F371822002101A8FFF7DFFF0820ADF88E
:1027500004000920ADF8060007A80390FFB2049713
:102760006846059001200690002101A8FFF7D4FEDD
:10277000002801D5FF2007E09DF80000002802D0C6
:102780009DF8000000E0002049B0F0BD10B58AB00F
:102790000400092200216846FFF7B7FF1822002134
:1027A00003A8FFF7B2FF0820ADF80C001820ADF821
:1027B0000E006846079009200890002103A8FFF743
:1027C000ABFE002801D5FF200DE09DF80000002899
:1027D00002D09DF8000006E008220DF10101200062
:1027E000FFF788FF00200AB010BD00000EB400B54E
:1027F00082B003A9009102466B4601210348784448
:102800000A3001F0DBFB06BC5DF810FB453100002F
:102810002DE9F041C8B004000D00160007AF0020FC
:102820008DF800005FF000083C7018F101087D7021
:1028300018F10108EDB22A003100B81CFFF75AFF69
:1028400015EB08081822002101A8FFF75EFF3F20C2
:10285000ADF804000C20ADF8060007A803905FFA5D
:1028600088F8CDF810806846059001200690002178
:1028700001A8FFF751FE002801D5FF2007E09DF8D1
:102880000000002802D09DF8000000E0002048B0C1
:10289000BDE8F081F0B5C9B004000D0007AE00201E
:1028A0008DF80000002734707F1C75707F1C182283
:1028B000002101A8FFF729FF3F20ADF804000F20F9
:1028C000ADF8060007A80390FFB20497684605908C
:1028D00001200690002101A8FFF71EFE002801D567
:1028E000FF2007E09DF80000002802D09DF80000BE
:1028F00000E0002049B0F0BD0300002013F0030FFA
:1029000009D0521E22BF13F8010B11F801CBB0EB16
:102910000C00F3D07047121F22BF53F8040B51F87C
:1029200004CB6045F7D0121D0AD200BA9CFA8CFC89
:10293000B0EB0C0038BF6FF0000088BF012070477B
:10294000521E22BF13F8010B11F801CBB0EB0C00A3
:10295000F6D0521C08BF1046704700B587B0002063
:102960008DF800001822002101A8FFF7CEFE3F20BD
:10297000ADF804008120ADF80600684605900120FE
:102980000690002101A8FFF7C7FD002801D5FF2010
:1029900007E09DF80000002802D09DF8000000E04C
:1029A000002007B000BD2DE9FF4FC9B0579C599DCD
:1029B000DDF868815B9E5C9F0DF1200908A8E4B2F8
:1029C00020440830019008A8E4B22044EDB2284425
:1029D00010F1090A00208DF800005FF0000B9DF84F
:1029E000240189F800001BF1010BBDF82801A9F8AA
:1029F00001001BF1020BBDF82C01A9F803001BF12B
:102A0000020B9DF8300189F805001BF1010B9DF8C0
:102A1000580189F806001BF1010B89F807401BF1EA
:102A2000010BE4B22200589919F10800FFF762FE89
:102A300014EB0B0B019805701BF1010BEDB22A0092
:102A400041460198401CFFF755FE15EB0B0BAAF809
:102A500000601BF1020BAAF802701BF1020B182296
:102A6000002102A8FFF751FE3F20ADF808008320A7
:102A7000ADF80A0008A804905FFA8BFBCDF814B0FB
:102A80006846069001200790002102A8FFF744FD48
:102A9000002801D5FF2007E09DF80000002802D0A3
:102AA0009DF8000000E000204DB0BDE8F08F2DE95A
:102AB000F04FC9B004000D0016001F00DDF848817A
:102AC000DDF84C910DF1200A072200216846FFF73E
:102AD0001CFE5FF0000B8AF800401BF1010B8AF826
:102AE00001501BF1010B8AF802601BF1010B182247
:102AF000002102A8FFF709FE3F20ADF808008A2058
:102B0000ADF80A0008A804905FFA8BFBCDF814B06A
:102B10006846069007200790002102A8FFF7FCFCFA
:102B2000002801D5FF2012E09DF80000002802D007
:102B30009DF800000BE0BDF801003880BDF80300EF
:102B4000A8F80000BDF80500A9F80000002049B071
:102B5000BDE8F08F2DE9F043C9B004000D00160068
:102B60001F000DF11C0800208DF800005FF0000927
:102B7000A8F8004019F10209A8F8025019F1020959
:102B800088F8046019F1010988F8057019F1010944
:102B90001822002101A8FFF7B8FD3F20ADF804007E
:102BA0009720ADF806000F20029007A803905FFA67
:102BB00089F9CDF810906846059001200690002113
:102BC00001A8FFF7A9FC002801D5FF2007E09DF828
:102BD0000000002802D09DF8000000E0002049B06D
:102BE000BDE8F0832DE9FF4FC9B0579C589D599E11
:102BF0005A9FDDF86C81DDF870910DF11C0A002000
:102C00008DF800005FF0000BBDF82401AAF8000069
:102C10001BF1020BBDF82801AAF802001BF1020B00
:102C20009DF82C018AF804001BF1010B06224C9937
:102C30001AF10500FFF75EFD1BF1060B9DF8580128
:102C40008AF80B001BF1010BAAF80C401BF1020BD8
:102C5000AAF80E501BF1020BAAF810601BF1020B30
:102C6000AAF812701BF1020BAAF814801BF1020BD8
:102C7000AAF816901BF1020B1822002101A8FFF7F9
:102C800044FD3F20ADF804009C20ADF806000F2065
:102C9000029007A803905FFA8BFBCDF810B068464E
:102CA000059001200690002101A8FFF735FC0028BF
:102CB00001D5FF2007E09DF80000002802D09DF814
:102CC000000000E000204DB0BDE8F08F70B5C8B046
:102CD000040007AD00208DF8000000262C70761C43
:102CE0001822002101A8FFF710FD3F20ADF80400D5
:102CF0009D20ADF8060007A80390F6B2049668463A
:102D0000059001200690002101A8FFF705FC00288E
:102D100001D5FF2007E09DF80000002802D09DF8B3
:102D2000000000E0002048B070BD000010B592B077
:102D30000EA84649102200F0B3F80AA84449102210
:102D400000F0AEF806A84349102200F0A9F81022BE
:102D50000EA94148FFF7CEFC40480090062301220F
:102D60003D490220FFF75AF80400E4B2002C40D19C
:102D700010220AA93A48FFF7BDFC3A480590012005
:102D80000490102003900020029000200190102059
:102D900000901423324A022130480088FFF7B1F82E
:102DA0000400E4B2002C24D1102206A92C48FFF71D
:102DB000A1FC2D48059001200490102003900120D3
:102DC0000290002001900C2000901423244A02213C
:102DD00022480088FFF795F80400E4B2002C08D1DF
:102DE000214802881F4801882048FFF7FFFC002087
:102DF00003E01F48FFF7FAFC472012B010BDF8B5FA
:102E000004000D001600A4B217480088401C84423C
:102E100009D10027EDB2AF4214DAF15D0AA0FFF745
:102E2000E5FC7F1CF6E7A4B20E480088801C8442B3
:102E300008D13078012805D10E48006850F4806030
:102E40000C490860F1BD000025630000AC59000882
:102E5000BC590008CC5900085012002096120020DE
:102E600060120020981200209A120020E0530008FF
:102E7000745700080000002080B5FEF7BBF802BDC3
:102E800062B38B0708D0521E11F8013B00F8013BDA
:102E900000F024808B07F6D1830740F0208000BF2C
:102EA000103A07D330B4B1E83810103AA0E838101F
:102EB000F9D230BC530724BFB1E80810A0E80810CD
:102EC00044BF51F8043B40F8043BD20724BF31F81B
:102ED000022B20F8022B44BF0B7803707047083A8E
:102EE00007D3B1E80810083A40F8043B40F804CB97
:102EF000F7D25307E4E7000010B50400002C01D11D
:102F0000012030E0A0690028FFD194F839000028A2
:102F100005D1002084F83800200000F0D5FB022005
:102F200084F839002068C06830F400502168C86017
:102F3000200000F0D1FA2068006930F49040216848
:102F400008612068406930F02A00216848612068E3
:102F5000C06850F400502168C8600020E063012080
:102F600084F83900002010BD10B50400002C01D1F8
:102F700001201DE0022084F839002068C06830F488
:102F800000502168C86000202168C86000202168C6
:102F90000861002021684861200001F07BFA0020D0
:102FA000E063002084F83900002084F83800002015
:102FB00010BD2DE9F84304000D0016001F005FF05E
:102FC000000994F839008146B9F1010F02D0B9F136
:102FD000220F69D1002D02D0B6B2002E01D10120FE
:102FE00063E094F83800012801D102205DE001205F
:102FF00084F838000020E06394F83900222803D1D7
:10300000322084F8390002E0122084F83900A684C6
:10301000E684E08C00282DD0E08C401EE084A0687F
:10302000B0F5805F17D13B0000228021200000F026
:1030300024F9002801D0032037E0A846B8F80000A2
:10304000C005C00D216848602069002801D1AD1C71
:10305000DFE76D1CDDE73B0000228021200000F04F
:103060000CF9002801D003201FE02878216848606F
:103070006D1CCEE73B0000224021200000F0FDF84F
:10308000002801D0032010E094F83900322803D141
:10309000222084F8390002E0012084F83900002061
:1030A00084F83800002000E00220BDE8F28330B44C
:1030B0000300002493F839000400012C01D0122CE5
:1030C00036D1002902D092B2002A01D1012030E08D
:1030D00093F83800012801D102202AE0012083F86A
:1030E000380099629A85DA850020D86393F8390010
:1030F000122803D1322083F8390002E0222083F81D
:103100003900002083F838001868C06850F48070D7
:103110001D68E8601868406950F001001D6868612A
:103120001868C06850F020001D68E860002000E0CA
:10313000022030BC704770B582B004000025002624
:103140002068006810F0010005002068C06810F4D5
:1031500080700600002D0CD0002E0AD02068006878
:1031600000902068406800900098E06B50F00100EB
:10317000E06320680068400810F001000500206846
:10318000406910F001000600002D0CD0002E0AD07E
:103190002068006800902068406800900098E06B0C
:1031A00050F00400E06320680068800810F001001F
:1031B0000500002D0CD0002E0AD020680068009079
:1031C0002068406800900098E06B50F00200E063D7
:1031D00020680068C00810F001000500002D0CD028
:1031E000002E0AD020680068009020684068009097
:1031F0000098E06B50F00800E06320680068400928
:1032000010F0010005002068C06810F020000600E2
:10321000002D04D0002E02D0200000F0FAF8206823
:103220000068C00910F0010005002068C06810F0B7
:1032300080000600002D04D0002E02D0200000F0F7
:103240008DF820680068800910F0010005002068F2
:10325000C06810F040000600002D04D0002E02D0FF
:10326000200000F0B8F8E06B002805D0012084F8B9
:103270003900200001F056F973BD2DE9F04104003A
:103280000D0016001F005FF00008FDF7B3FE80463A
:10329000F6B2002E2FD1206800682840A8425AD0EC
:1032A00017F1010FF7D0002F05D0FDF7A3FEB0EB0B
:1032B00008008742EFD22068C06830F080002168A3
:1032C000C8602068C06830F020002168C8602068AD
:1032D000C06830F480702168C86020684069400888
:1032E000400021684861012084F83900002084F8FA
:1032F0003800032030E0206800682840A8422AD126
:1033000017F1010FF7D0002F05D0FDF773FEB0EBDA
:1033100008008742EFD22068C06830F08000216842
:10332000C8602068C06830F020002168C86020684C
:10333000C06830F480702168C86020684069400827
:10334000400021684861012084F83900002084F899
:103350003800032000E00020BDE8F08110B4010037
:10336000002391F839000300122B01D0322B2FD10A
:103370008868B0F5805F11D1086A02001088C00526
:10338000C00D0C6860600869002803D1086A801CC1
:10339000086209E0086A401C086205E0086A441CEB
:1033A0000C6200780C686060C88C401EC884C88CB1
:1033B00000280BD10868C06830F080000C68E0601D
:1033C0000868C06850F040000C68E060002000E031
:1033D000022010BC704710B504002068C06830F0AF
:1033E00040002168C86094F83900322803D12220B7
:1033F00084F8390008E020684069400840002168EE
:103400004861012084F83900200001F0A1F8002073
:1034100010BD70B50400002694F839000600222E75
:1034200001D0322E56D1A068B0F5805F16D1A06AC7
:1034300005002069002808D120684068C005C00D3B
:103440002880A06A801CA0621AE02068406800F012
:10345000FF002880A06A401CA06211E020690028BB
:1034600006D1A06A411CA16221684968017007E089
:10347000A06A411CA1622168496811F07F010170B6
:10348000E08D401EE085E08D002821D12068C068D5
:1034900030F020002168C86094F83900322803D148
:1034A000122084F839000EE02068C06830F4807083
:1034B0002168C86020684069400840002168486170
:1034C000012084F83900200001F02EF8002002E0ED
:1034D000002000E0022070BDF8B50400002520683F
:1034E000006930F44050E168084321680861A06831
:1034F0002169084361690843E169084305002068C0
:10350000C0686F49084028432168C8602068406946
:1035100030F44070A169084321684861E069B0F562
:10352000004F65D120686749884230D1FDF7EEFC35
:103530000700FDF7EBFC0600FDF7E8FC192101FB95
:1035400007F162685200B1FBF2F16422B1FBF2F1C3
:10355000192202FB06F263685B00B2FBF3F2192347
:10356000584363685B00B0FBF3F06423B0FBF3F0F7
:10357000642303FB1020000132306422B0FBF2F020
:1035800010F00F0050EA01102168886095E0FDF707
:10359000ADFC0700FDF7AAFC0600FDF7A7FC19210A
:1035A00001FB07F162685200B1FBF2F16422B1FB4A
:1035B000F2F1192202FB06F263685B00B2FBF3F240
:1035C0001923584363685B00B0FBF3F06423B0FB3E
:1035D000F3F0642303FB1020000132306422B0FBBF
:1035E000F2F010F00F0050EA01102168886064E0EA
:1035F00020683449884230D1FDF788FC0700FDF788
:1036000085FC0600FDF782FC192101FB07F16268C9
:103610009200B1FBF2F16422B1FBF2F1192202FB3C
:1036200006F263689B00B2FBF3F219235843636808
:103630009B00B0FBF3F06423B0FBF3F0642303FBC7
:103640001020000132306422B0FBF2F010F00F00C5
:1036500050EA0110216888602FE0FDF747FC070061
:10366000FDF744FC0600FDF741FC192101FB07F1C1
:1036700062689200B1FBF2F16422B1FBF2F119220F
:1036800002FB06F263689B00B2FBF3F21923584376
:1036900063689B00B0FBF3F06423B0FBF3F064239A
:1036A00003FB1020000132306422B0FBF2F010F076
:1036B0000F0050EA011021688860F1BD0000000091
:1036C000F369FFFF003801407047000078B4002222
:1036D000002300240D68D540002D00F0D9800D682E
:1036E0000126964035402B00002B00F0CF804D681E
:1036F000022D02D04D68122D16D1D50800EB85059C
:103700002D6A2C000F2512F00706F6B2B600B54060
:10371000AC430D6912F00706F6B2B600B5402C4373
:10372000D50800EB85052C6205682C0003251600E2
:10373000F6B27600B540AC430D7915F003051600DE
:10374000F6B27600B5402C4304604D68012D08D0D8
:103750004D68022D05D04D68112D02D04D68122DF7
:1037600019D185682C0003251600F6B27600B54005
:10377000AC43CD681600F6B27600B5402C438460A9
:1037800045682C0001259540AC434D68C5F30015F4
:1037900095402C434460C5682C0003251600F6B202
:1037A0007600B540AC438D681600F6B27600B540A1
:1037B0002C43C4604D68ED0068D5494D2D6855F027
:1037C0000105474E3560464D2D6815F00105009501
:1037D000009D444D960855F826502C000F2512F0F8
:1037E0000306F6B2B600B540AC433F4DA84201D146
:1037F000002519E03D4DA84201D1012514E03C4DC2
:10380000A84201D102250FE03A4DA84201D103257B
:103810000AE0394DA84201D1042505E0374DA84200
:1038200001D1072500E0082512F00306F6B2B60024
:10383000B5402C432B4D960845F82640304D2D6859
:103840002C009C434D68ED0300D51C432C4D2C608F
:103850002C4D2D682C009C434D68AD0300D51C43B6
:10386000284D2C60284D2D682C009C434D68ED029E
:1038700000D51C43244D2C60244D2D682C009C4306
:103880004D68AD0200D51C43204D2C60521C21E731
:1038900071BC70470200136989B20B4202D0012348
:1038A000180001E000231800C0B27047D2B2002A0D
:1038B00002D089B2816102E089B20B048361704752
:1038C00010B5040012480068A4B2204206D0A4B289
:1038D0000F480460200080B200F03BFE10BD0000E5
:1038E000203802400800014000000240000402406D
:1038F00000080240000C0240001002400014024088
:103900000004014004040140080401400C0401408B
:10391000140401400060406070470168814201D199
:10392000012000E00020C0B2704702680A604860D1
:1039300001600A6851607047086042684A604160EF
:103940004A68116070470168426811604168026806
:103950005160704738B504000D0020682860206869
:10396000FFF7F1FF002029680860002029684860FF
:1039700031BD38B504000D00606828606068FFF74D
:10398000E2FF00202968086000202968486031BDF6
:10399000010000200A688A4202D0401C1268FAE73F
:1039A0007047000081B0DFF87005006850F001003A
:1039B000DFF864150860DFF86005006810F00100AA
:1039C00000900098DFF85005006850F00200DFF822
:1039D00048150860DFF84005006810F0020000900C
:1039E0000098DFF83405006850F00100DFF8281572
:1039F0000860DFF82405006810F0010000900098CE
:103A0000DFF81405006850F00100DFF80C150860BD
:103A1000DFF80405006810F0010000900098DFF85E
:103A2000F804006850F00100DFF8EC140860DFF8DB
:103A3000E804006810F0010000900098DFF8D80456
:103A4000006850F00100DFF8D0140860DFF8C80407
:103A5000006810F0010000900098DFF8C0040068D2
:103A600050F48050DFF8B4140860DFF8B004006848
:103A700010F4805000900098002001B0704780B58D
:103A80000121DFF89C04FFF705FF02BD30B587B0C8
:103A90000400FFF787FF05006DB215F1010F02D199
:103AA000280040B22EE14FF4807000900120019078
:103AB0000020029001200390002004906946DFF866
:103AC0006004FFF703FE00F036F9082000900220A2
:103AD0000190002002900320039005200490694685
:103AE000DFF84004FFF7F2FD402000900220019033
:103AF0000120029003200390052004906946DFF81E
:103B00002004FFF7E3FD80200090022001900020B8
:103B1000029003200390052004906946DFF800041A
:103B2000FFF7D4FD022000900120019000200290B8
:103B300003200390002004906946DFF8E403FFF7B8
:103B4000C5FD01220221DFF8D803FFF7AFFE0120F7
:103B50000090DFF8D403019002200290032003902C
:103B6000002004906946DFF8B803FFF7AFFDDFF8E7
:103B7000BC03DFF8BC1308604FF48270DFF8B013A9
:103B800048600020DFF8A81388600020DFF8A01349
:103B9000C8600020DFF8981308610120DFF8901357
:103BA00048614FF40070DFF8881388610020DFF867
:103BB000801308620020DFF8781348620720DFF8DE
:103BC0007013C8622020DFF86813C861DFF8600353
:103BD00000F0C4FCE4B2012C08D10022032106202D
:103BE000FDF7A0FA0620FDF7B0FA80E0E4B2022C5F
:103BF0007DD1DFF82403006850F08070DFF81813DF
:103C00000860DFF81403006810F0807005900598D4
:103C1000DFF82003DFF8201308601020DFF8181306
:103C200048600020DFF8101388608020DFF8081358
:103C3000C8600020DFF8001308610020DFF8F812E8
:103C400048610020DFF8F01288610020DFF8E812F8
:103C5000C861DFF8E40200F0C1FCDFF8DC02DFF845
:103C6000D0120864DFF8C802DFF8CC124862DFF82F
:103C7000CC02DFF8CC1208600020DFF8C4124860E4
:103C80000020DFF8BC1288608020DFF8B412C86022
:103C90000020DFF8AC1208610020DFF8A4124861B0
:103CA0000020DFF89C1288614FF40050DFF890127A
:103CB000C861DFF88C0200F091FCDFF88402DFF8C5
:103CC00070124864DFF86802DFF87412486201225B
:103CD00001210D20FDF726FA0D20FDF736FA00220E
:103CE00001210C20FDF71EFA0C20FDF72EFADFF85B
:103CF00040020068006850F04000DFF834120968A4
:103D00000860002007B030BD80B500224FF48071FC
:103D1000DFF80C02FFF7CAFD052000F08BFC012242
:103D20004FF48071DFF8F801FFF7C0FD052000F0C7
:103D300081FC00BF01BD80B500224FF48071DFF827
:103D4000E001FFF7B3FD01BD80B50620FDF704FAE1
:103D500001BD80B50620FDF7F8F901BD0120DFF8AF
:103D6000E41108607047F0B585B004000D0000272D
:103D700002A87549D1E90023C0E9002372B60022E8
:103D800002216748FFF792FD05236A4602A96848A9
:103D900000F064FC9DF804009DF8031051EA002037
:103DA0000600B6B2002E10D02800C0B2310080B29A
:103DB00089B2884201D2EDB22E003200D2B2210087
:103DC0005B4800F092FC30000700012202215448B9
:103DD000FFF76CFD62B63800C0B205B0F0BD2DE94A
:103DE000F04786B004000D0016001F005FF00008C9
:103DF00002A85749D1E90023C0E900236846002101
:103E00000022C0E90012514800680A21B0FBF1F11C
:103E100004A8FDF7C5FF002202214148FFF746FD37
:103E2000FFF72DFE002808D104A8FDF7C1FF0028E8
:103E3000F6D07FF00100804630E005236A4602A9F3
:103E40003B4800F00BFC9DF802009DF8011051EA80
:103E5000002082465046310080B289B2884203D2A7
:103E60007FF00100804619E03200D2B221003048D4
:103E700000F01BFCBAEB060A5046390080B289B24A
:103E8000884201D2D14600E0B9464A46D2B2290062
:103E9000274800F00AFC484600B280460122022171
:103EA0001F48FFF703FD404600B206B0BDE8F087AB
:103EB0002DE9F04383B004000D0016001F005FF0F1
:103EC0000009224800680A21B0FBF1F16846FDF7BD
:103ED00067FFFFF739FF3B009BB2320092B25FFAF7
:103EE00089F905EB09012000FFF779FF8046B8F159
:103EF000000F08D400200600B7EB080718EB0909EB
:103F0000BFB2002F04D06846FDF752FF0028E2D070
:103F1000FFF71FFFBDE8F7831C380240203802403E
:103F20000000024000040240000011100030014077
:103F3000DC10002030600240741100201C60024040
:103F4000AC11002014040140345A0008445A0008FF
:103F50003C5A000862F30F2262F31F42401810F02F
:103F6000030308D0C91A1FD3DB0748BF00F8012D8F
:103F700028BF20F8022D130030B41446154610391E
:103F800028BF20E93C00FAD8490728BF20E90C00E7
:103F900048BF40F8042D890028BF20F8022D48BFF3
:103FA00000F8012D30BC7047C91818BF00F8012D6A
:103FB000CB0728BF00F8012D704700002DE9F04F16
:103FC00093B0804602AE002017461D460291B061B4
:103FD0000DF130090AE017F8011B0298C0470028CC
:103FE000029000F0AA81B069401CB06138780100ED
:103FF00001D1B069A3E12528EDD10020F060306146
:10400000706101E040F0010017F8011F2029F9D08C
:1040100023290DD02B2904D02D2906D030290AD0F0
:104020000CE040F0020080B2EEE740F00400FAE756
:1040300040F00800F7E740F01000F4E72A290ED11D
:104040002968296051F8042B2960002A326204D5BE
:10405000514240F00400316280B27F1C13E0002125
:1040600031620BE0316A6FF00043994205D001EBF9
:10407000810302EB4301303931627F1C3A78A2F1AF
:1040800030010A29EED339782E2903D04FF0FF31C1
:10409000F1611FE017F8011F2A2907D1296829605B
:1040A0007F1C51F8042B2960F26113E00021F161BB
:1040B0000BE0F1696FF00043994205D001EB8103F9
:1040C00002EB43013039F1617F1C3A78A2F13001F3
:1040D0000A29EED3B0840FF2B430397800F026FB11
:1040E00008B117F8010B8DF82E009DF82E006828F6
:1040F00004BF3878682803D162208DF82E007F1C19
:104100000CA8B06017F8014B252C13D0582C3CD0CC
:10411000632C00F09480642C18BF692C6DD06F2C38
:1041200033D0702C27D0732C0AD0752C18BF782C64
:104130002BD08EE00120F06025208DF8300092E039
:104140002868286050F8044B28607460D6F81CA0DA
:10415000BAF1000F04D5204600F0F4FA824607E0D9
:1041600052460021204600F009FB08B1A0EB040AEA
:10417000C6F810A077E02868286050F8041B286073
:1041800001910CA87060782155E09DF82E006C28F4
:104190000DD0712818BF6A2809D12868C01D20F0E9
:1041A00007022A60D2E9000108322A6004E0296887
:1041B000296051F8040B296001909DF82E006828B1
:1041C00002D101A8008803E0622802D101A800788A
:1041D000019096F82400000728D5019830B344F0E8
:1041E0002000782822D1F068302109F80010401C06
:1041F000411CF16009F8004018E09DF82E002946A6
:1042000000F0A0F80028019002D5F0682D2109E007
:10421000B08C810702D5F0682B2103E0C00705D5DB
:10422000F068202109F80010401CF0600CA8F1682B
:1042300008447060214601A800F0AAF813E00120AC
:10424000F0602868286050F8041B28608DF8301052
:1042500009E00120F06025208DF830001CB102201B
:10426000F06089F80140306AF168401A7169401ABB
:104270003169441A96F82400400710D42020012CFC
:104280008DF800000BDBA24601236A4601A94046D7
:1042900000F0E5F8002850D1BAF1010AF4D1D6F8BF
:1042A0000CB0BBF1000F0DF1300A0CD01AF8011B55
:1042B0000298C047002802903FD0B069401CBBF173
:1042C000010BB061F2D1D6F814A03020BAF1010F81
:1042D0008DF8000009DB01236A4601A9404600F081
:1042E000BEF850BBBAF1010AF5D1D6F810B0D6F835
:1042F00004A0BBF1000F0BD01AF8011B0298C047B5
:104300000290D0B1B069401CBBF1010BB061F3D198
:1043100096F8240040077FF569AE2020012C8DF827
:104320000000FFF663AE01236A4601A9404600F093
:1043300096F810B9641EF6D158E64FF0FF3013B06E
:10434000BDE8F08F622815D068280CD06C2818BF03
:10435000742816D07A2814D10A680A6052F8040B1F
:104360000A60002170470A680A6052F8040B0A606C
:1043700000B20BE00A680A6052F8040B0A6040B20F
:1043800004E00A680A6052F8040B0A60C11770471B
:10439000F0B4C2686F2908BF082405D041F020039B
:1043A000782B14BF0A24102418230668642918BF28
:1043B0006929374602D1002E48BF7F425FB9056A9E
:1043C0004DB9082C27D190F82810090723D53021A2
:1043D0001723D1751FE0B7FBF4F604FB16773037CF
:1043E000FFB25D1E3A2FA4BFA1F1510C674457558F
:1043F0002B46370003D08568D618B542EBD3082C7E
:1044000009D190F82810090705D5D15C302902D0D0
:104410005B1E3021D1541A448260C3F11801026A34
:104420004161914208DA511A81614FF6EF72018DB4
:1044300011400185F0BC7047002A0ED590F8282065
:1044400002F01402102A08D1426A0369D21A836961
:10445000D21A531A012BA8BF8361F0BC7047F8B57C
:1044600004460D4616461F46002077B116F8011B7C
:104470006868A047686030B1E869401CE8610020C6
:104480007F1EF3D1F2BD4FF0FF30F2BD686C747A3D
:104490004C0000007047000000B593B02848006849
:1044A00050F08050264908602548006810F0805080
:1044B000009000982348006830F4C05050F4006029
:1044C0002049086020480068C006FBD402200690FE
:1044D00010200A900120099002200F9000201090D7
:1044E0005FF4002011905FF40000129006A8FBF723
:1044F00001FE0F2001900320029000200390002075
:10450000049000200590012101A8FCF759FA13B08E
:1045100000BD80B500F05EF9FFF7BEFF0120FFF798
:10452000B5FA01BD00BF704710B50400012107486E
:10453000FDF711FC012205492000FEF7B8FD10BD72
:104540002438024000700040047000409C1200209B
:10455000704710B50400FDF755FF10BD10B50400FD
:10456000002C01D1012038E094F85100002805D139
:10457000002084F85000200000F048F9022084F860
:1045800051002068006830F04000216808606068D1
:10459000A1680843E1680843216908436169084349
:1045A000A16911F400710843E1690843216A0843D5
:1045B000A16A084321680860A069000C10F004009B
:1045C000616A084321684860E06A21680861002048
:1045D0006065012084F85100002010BD0100002218
:1045E000002901D1012024E091F82100002802D106
:1045F000002081F82000022081F82100086800686E
:1046000002006FF30D1248688B681843CB6818439B
:104610000B6918434B6918438B691843CB691843DE
:1046200002430868026000204863012081F82100ED
:104630000020704711B581B00024FCF7DBFC0400BA
:10464000FCF7D8FC001B01998842F9D313BD02681E
:10465000117370470068C068C0B270472DE9F0411F
:104660000400884615001E000020070038003100B5
:10467000C0B2C9B2884215D298F800102000FFF7E6
:10468000E6FF18F10108206880688007FBD52068E4
:104690008068C007FBD52000FFF7DCFF28706D1C89
:1046A0007F1CE3E70020BDE8F081F8B504000F00AF
:1046B00015000020060030002900C0B2C9B28842AF
:1046C00011D239782000FFF7C2FF7F1C2068806874
:1046D0008007FBD520688068C007FBD52000FFF766
:1046E000B9FF761CE7E70020F2BDF8B504000D0025
:1046F00016000020070038003100C0B2C9B288425D
:1047000012D200212000FFF7A2FF206880688007F6
:10471000FBD520688068C007FBD52000FFF79AFF13
:1047200028706D1C7F1CE6E70020F2BD0278C9B23C
:104730008A421AB11CBF10F8012FF9E718BF0020F8
:104740007047000000F10103810704D010F8011B3D
:1047500089B18107FAD10268B2F10131914311F0B8
:10476000803F04BF50F8042FF6E710F8011B11B189
:1047700010F8011BFBE7C01A70470000C9B283079D
:1047800006D0521E22D310F8013B9942F7D11FE008
:10479000083A13D302F1040241EA012141EA01413E
:1047A00050F8043B121F21BF4B40A3F1013C2CEAFF
:1047B000030C1CF0803FF3D0C9B2001F083210F880
:1047C000013B521E28BF91EA030FF8D818BF012001
:1047D000401E704780B50B48006850F0040009493E
:1047E00008600848006850F002000649086003208D
:1047F000FCF792FC0020FCF703FC00F005F8002019
:1048000002BD0000003C024070470000704738B510
:1048100004000025E278B4F801102078FDF7BBF819
:104820002800C0B232BD38B504000025E278B4F8E3
:1048300001102078C046C0462800C0B232BD38B54D
:1048400004000025E0880090A388E278B4F8011005
:104850002078C046C0462800C0B232BD38B504003A
:1048600000252078C046C0462800C0B232BD2DE9E0
:10487000F041A0B00400002526000127002080465A
:104880003078804513DA06EB8800B0F801006946FD
:1048900021F82800BF1C06EB8800B0F80300694629
:1048A00001EB88014880BF1C18F10108E8E7694660
:1048B0003078C046C0462800C0B220B0BDE8F081C4
:1048C00038B5040000252078C046C0462800C0B294
:1048D00032BD38B504000025B4F801102078C04678
:1048E000C0462800C0B232BD38B50400002520788B
:1048F000C046C0462800C0B232BD38B5040000250D
:104900002000C046C0462800C0B232BD30B589B0D4
:104910000400002514F12600079094F82500069065
:10492000D4F821000590D4F81D000490D4F81900A3
:104930000390D4F815000290D4F811000190D4F837
:104940000D000090D4F80930D4F80520D4F80110F7
:104950002078C046C0462800C0B209B030BD38B586
:1049600004000025D4F8022061782078C046C046B3
:104970002800C0B232BD38B504000025A21C617801
:104980002078C046C0462800C0B232BD38B5040009
:104990000025C046C0462800C0B232BD38B504006C
:1049A0000025E278A1782088C046C0462800C0B221
:1049B00032BD38B5040000252088C046C046280016
:1049C000C0B232BD38B5040000252088C046C046BC
:1049D0002800C0B232BD38B504000025C046C0462C
:1049E0002800C0B232BD38B504000025C046C0461C
:1049F0002800C0B232BD38B504000025E31CA278FF
:104A000061782078FCF768FF2800C0B232BD38B565
:104A1000040000252088C046C0462800C0B232BD30
:104A200038B504000025D4F802102088C046C046DE
:104A30002800C0B232BD38B504000025A178208816
:104A4000C046C0462800C0B232BD38B504000025BB
:104A500061882088C046C0462800C0B232BD38B543
:104A600004000025E21CA1782088C046C04628002A
:104A7000C0B232BD3EB504000025B4F80B00029070
:104A8000B4F809000190B4F807000090B4F80530BC
:104A9000B4F80320A1782088C046C0462800C0B2E0
:104AA0003EBD38B504000025A01D00906379B4F820
:104AB0000320A1782088C046C0462800C0B232BD7D
:104AC00038B50400002514F108000090E388A2889E
:104AD00061882088FCF7D2FF2800C0B232BD38B50B
:104AE000040000252088C046C0462800C0B232BD60
:104AF00038B50400002561882088C046C0462800DB
:104B0000C0B232BD38B504000025231DE278A1787B
:104B10002088C046C0462800C0B232BD2DE9F04111
:104B2000A0B0040000252600032700208046B078AE
:104B3000804513DA06EB8800B0F80300694621F8D7
:104B40002800BF1C06EB8800B0F80500694601EBA1
:104B500088014880BF1C18F10108E8E76A46B1786F
:104B60003088C046C0462800C0B220B0BDE8F08101
:104B700038B504000025231DE278A1782088C046BE
:104B8000C0462800C0B232BD38B504000025E21C82
:104B9000A1782088C046C0462800C0B232BD38B5D2
:104BA00004000025E21CA1782088C046C0462800E9
:104BB000C0B232BD38B504000025E21CA1782088BF
:104BC000C046C0462800C0B232BD38B5040000253A
:104BD000231DE278A1782088C046C0462800C0B2D4
:104BE00032BD38B504000025E01D0090A379A288ED
:104BF00061882088C046C0462800C0B232BD38B5A2
:104C0000040000252088C046C0462800C0B232BD3E
:104C100038B504000025631D227961882088C046CC
:104C2000C0462800C0B232BD38B504000025631D5F
:104C3000227961882088FCF732FF2800C0B232BD9B
:104C400038B504000025A1782088FCF773FF280000
:104C5000C0B232BD38B5040000256379B4F8032032
:104C6000A1782088C046C0462800C0B232BD38B501
:104C700004000025631D227961882088FCF730FF3D
:104C80002800C0B232BD38B504000025631D22796A
:104C900061882088C046C0462800C0B232BD38B501
:104CA00004000025A28861882088C046C0462800EC
:104CB000C0B232BD2DE9F041A0B0040000252600AD
:104CC000032700208046B07880450ADA06EB4800CA
:104CD000B0F80300694621F81800BF1C18F101085C
:104CE000F1E76A46B1783088C046C0462800C0B2B5
:104CF00020B0BDE8F08138B5040000256188208827
:104D0000FCF736FF2800C0B232BD38B504000025DC
:104D10002088C046C0462800C0B232BD38B5040065
:104D20000025E01D0090A379A28861882088C046F4
:104D3000C0462800C0B232BD30B585B004000025A1
:104D4000607C0490B4F80F000390B4F80D0002905A
:104D5000B4F80B000190601D00902379E278B4F85C
:104D600001102078FCF7D8FD2800C0B205B030BD96
:104D70002DE9F0419EB00400002526000127002007
:104D80008046307880454EDA0B2000FB08F0304436
:104D900040786946142202FB08F288547F1C0B20DD
:104DA00000FB08F0304480786946142202FB08F2C8
:104DB000114448707F1C06220B2000FB08F0304491
:104DC000C11C6846142303FB08F31844801CFDF73C
:104DD00091FCBF1D0B2000FB08F03044407A69466F
:104DE000142202FB08F2114408727F1C0B2000FB06
:104DF00008F030440A306946142202FB08F21144DC
:104E0000C8600B2000FB08F03044407AC719FFB29D
:104E1000E05D6946142202FB08F2114408747F1C0D
:104E200018F10108ADE769463078FCF7F0FD28007D
:104E3000C0B21EB0BDE8F08138B504000025B4F85A
:104E400007000090B4F80530B4F80320B4F801105E
:104E50002078C046C0462800C0B232BD38B5040034
:104E60000025E21CB4F801102078C046C046280096
:104E7000C0B232BD38B5040000256289A11C20886B
:104E8000C046C0462800C0B232BD38B50400002577
:104E9000611C2078C046C0462800C0B232BD38B57B
:104EA00004000025611C2078C046C0462800C0B21E
:104EB00032BD30B587B004000025607F0690B4F89D
:104EC0001B000590B4F819000490B4F81700039083
:104ED00014F11100029014F10B000190601D00907C
:104EE0002379E278B4F801102078C046C046280043
:104EF000C0B207B030BD2DE9F041A0B004000025DC
:104F000026000127002080463078804544DA5FEA99
:104F100008103044407869465FEA081288547F1CC4
:104F20005FEA08103044807869465FEA081211444D
:104F300048707F1C06225FEA08103044C11C684696
:104F40005FEA08131844801CFDF7D4FBBF1D5FEA1D
:104F500008103044407A69465FEA0812114408722A
:104F60007F1C06225FEA0810304410F10A016846EF
:104F70005FEA081318440930FDF7BCFBBF1D5FEA68
:104F800008103044007C69465FEA08121144C87377
:104F90007F1C18F10108B7E769463078C046C04663
:104FA0002800C0B220B0BDE8F08100000100000080
:104FB000E948000802000000FB4800080300000068
:104FC0000D490008040000005F49000805000000CA
:104FD00077490008000400008D4900080104000022
:104FE0009D49000802040000B349000803040000C2
:104FF000C549000804040000D74900080504000062
:10500000E749000807040000F74900080804000009
:105010000F4A000809040000214A00080A040000A1
:10502000374A0008000800004B4A00080108000049
:105030005F4A000802080000754A00080A080000DC
:10504000A34A0008010C0000C14A0008020C00003D
:10505000DF4A0008030C0000F14A0008040C0000BD
:10506000054B0008050C00001D4B0008060C000055
:10507000714B0008070C0000894B0008080C000069
:105080009F4B0008090C0000B54B00080A0C0000FB
:10509000CB4B00080C0C0000E34B00080D0C00008B
:1050A000FF4B00080E0C0000114C00080F0C000014
:1050B000294C0008100C0000414C0008110C0000A5
:1050C000554C0008120C00006F4C0008130C000037
:1050D000874C0008140C00009F4C0008150C0000C1
:1050E000B54C0008160C0000F74C0008170C000027
:1050F0000B4D0008180C00001D4D000810B50400F1
:105100002068006980071AD52068C068800716D516
:105110007FF0020021680861012020752068806905
:1051200010F0030F03D0200000F085F805E0200008
:1051300000F082F8200000F080F800202075206840
:10514000006940071AD52068C068400716D57FF06F
:10515000040021680861022020752068806910F42D
:10516000407F03D0200000F066F805E0200000F04A
:1051700063F8200000F061F80020207520680069C5
:1051800000071AD52068C068000716D57FF0080010
:1051900021680861042020752068C06910F0030FA1
:1051A00003D0200000F047F805E0200000F044F8AC
:1051B000200000F042F80020207520680069C00639
:1051C0001AD52068C068C00616D57FF01000216887
:1051D0000861082020752068C06910F4407F03D062
:1051E000200000F028F805E0200000F025F820005D
:1051F00000F023F80020207520680069C0070AD558
:105200002068C068C00706D57FF0010021680861EA
:10521000200000F013F82068006940060AD52068D5
:10522000C068400606D57FF0400021680861200074
:1052300000F005F810BD7047704770477047704721
:1052400010B5FFF766F91348FCF776FDFDF72CF86B
:105250000400E4B2002C05D0E4B221000E48FDF7B2
:10526000C5FAFEE70D490E48FDF7C0FAFCF7F5F860
:105270000400E4B2002C05D0E4B221000948FDF797
:10528000B5FAFEE70848FDF7B1FAFDF740F8FCF77C
:105290007BFAFAE799110008D0540008145A000864
:1052A000A0530008445600086855000812480068DA
:1052B00050F4807010490860104800681049084098
:1052C0000E4908600C4800680E4908400A49086009
:1052D0000948006830F480200749086007480068E2
:1052E00030F47D00054908600020074908605FF040
:1052F00000600649086070470038024008380240E4
:105300000CC0FF88FEFFFEEE0C38024008ED00E006
:1053100001000000394D000802000000714D000836
:1053200003000000394E0008040000005D4E000834
:1053300005000000754E0008080000008B4E0008B4
:10534000090000009F4E00080A000000B34E00084C
:105350000B000000F74E00086163695F67617474B9
:105360005F646973635F726561645F636861725FE4
:1053700062795F757569645F726573705F65766584
:105380006E742C20436F6E6E656374696F6E204877
:10539000616E646C653A203078253034580A00001C
:1053A000426C75654E52472D3120424C4520436872
:1053B0006174204D6173746572202620536C617690
:1053C00065204170706C69636174696F6E20287626
:1053D000657273696F6E3A202573290D0A0000000B
:1053E0004368617420536572766963652061646403
:1053F00065642E0A545820436861722048616E64C7
:105400006C6520253034582C205258204368617236
:105410002048616E646C6520253034580A00000015
:1054200019E050F8041BCB0744BFA9F10103591838
:10543000121F0023042A41F8043BF9D25FEA827C60
:105440000B4604D54FF0000CA1F800C09B1CD107FF
:1054500044BF0021197050F8042B002AE1D1704795
:10546000050000000F480008080000002748000859
:105470000C0000003F480008100000005D480008D4
:10548000130000006F4800081A000000C14800081F
:1054900030000000D34800086163695F6761705F96
:1054A00073746172745F67656E6572616C5F646965
:1054B00073636F766572795F70726F6328292066F7
:1054C00061696C65643A20253032580A000000009A
:1054D0004572726F7220696E20426C75654E52473C
:1054E0005F537461636B5F496E697469616C697A5B
:1054F0006174696F6E2829203078253032780D0A62
:10550000000000006163695F6761705F7465726DC0
:10551000696E6174655F6761705F70726F63656407
:105520007572652829206661696C65643A20307857
:10553000253032780A0000006163695F6761705F3F
:105540007365745F6E6F6E5F646973636F766572A7
:1055500061626C652829206661696C65643A203057
:1055600078253032780A0000424C4520537461633C
:105570006B20496E697469616C697A6564202620C4
:1055800044657669636520436F6E66696775726509
:10559000640D0A006163695F6761705F73746172B3
:1055A000745F67656E6572616C5F646973636F7663
:1055B0006572795F70726F63204F4B0A00000000C4
:1055C0006163695F6761705F6372656174655F6382
:1055D0006F6E6E656374696F6E2829206661696CF1
:1055E00065643A203078253032780A006163695F5B
:1055F0006761705F7365745F646973636F7665720A
:1056000061626C652829206661696C65643A2030A6
:1056100078253032780A000010B450F8041B79B1B4
:105620000268436802440830DC0744BFA9F1010462
:10563000E31852F8044B43F8044B091FF9D1ECE787
:1056400010BC7047434841545F44657669636549BF
:105650006E697428292D2D3E204661696C65642091
:105660003078253032780D0A000000006163695FF0
:105670006761705F7465726D696E6174655F6761A3
:10568000705F70726F6365647572652829204F4B77
:105690000A000000436F6E6E656374696F6E20438D
:1056A0006F6D706C657465207769746820706565CE
:1056B0007220616464726573733A200010B5074903
:1056C00079441831064C7C44163404E00A68081DFD
:1056D000114488470146A142F8D110BDF0000000F6
:1056E000100100006863695F6C655F72616E642819
:1056F000292063616C6C206661696C65643A2030B6
:1057000078253032780A00004572726F722077680F
:10571000696C6520616464696E672073657276697F
:1057200063653A203078253032780A006163695F1A
:105730006761705F7365745F6E6F6E5F64697363DA
:105740006F76657261626C652829204F4B0A0000F4
:10575000446973636F6E6E656374696F6E207769F9
:10576000746820726561736F6E3A2030782530322C
:10577000580D0A004572726F72207768696C652057
:10578000616464696E672043686174207365727632
:105790006963652E0A0000007047FEE77047704796
:1057A000704780B500F00AF801BD80B50120FEF712
:1057B00087F801BD80B5FCF7BAFA01BD0248006860
:1057C000401C0149086070478412002055FCFFFF0F
:1057D00080060000200C0020000000003DFEFFFFBE
:1057E0001C0000002001000000000020000000005C
:1057F00053657474696E672042445F41444452208B
:105800006661696C6564203078253032780A000062
:105810006163695F6761705F6372656174655F632F
:105820006F6E6E656374696F6E2829204F4B0A0096
:105830006163695F6761705F7365745F64697363F7
:105840006F76657261626C652829204F4B0A0000F3
:10585000474154545F496E6974206661696C6564A0
:105860003A203078253032780A0000004741505FF6
:10587000496E6974206661696C65643A20307825E8
:105880003032780A0000000044657669636520467E
:105890006F756E64207769746820616464726573E3
:1058A000733A200080B50448FFF728FC0120034923
:1058B000086001BD00000000E411002088120020F3
:1058C00000F00BF8002801D0FFF7F8FE0020C046DA
:1058D000C046FFF7B5FC00F002F80120704700F069
:1058E00001B800000746384600F002F8FBE7000068
:1058F00080B5C046C046024A11001820ABBEFBE787
:10590000260002000001000009426C75654E5247F6
:105910005F4E6577436861740048E801FF0000004E
:10592000545820436861722048616E646C65203071
:1059300078253034580A000052582043686172209C
:1059400048616E646C65203078253034580A000058
:1059500038B504460D462846FCF71AFAA84218BF87
:105960000024204632BD00005075626C69632061DE
:105970006464726573733A2000000000669A0C201C
:105980000008969EE2119EB1E1F273D9669A0C204E
:105990000008969EE2119EB1E2F273D944657669E1
:1059A000636520666F756E640D0A0000669A0C20B0
:1059B0000008969EE2119EB1E0F273D9669A0C201F
:1059C0000008969EE2119EB1E1F273D9669A0C200E
:1059D0000008969EE2119EB1E2F273D90000000029
:1059E0000102030401020304060708090148804775
:1059F00001480047AD520008095A00080304060890
:105A00000C10182030000000C046C046C046C046FA
:105A1000FFF756FF312E302E30000000000000E16D
:105A200080020000253032582D0000002530325809
:105A30000A0000000B000000000000000A00000047
:105A400000000000E803000001020304FFF7FEBFAE
:105A5000FFF7FEBFFFF7FEBFFFF7FEBFFFF7FEBF7A
:105A6000FFF7FEBFFFF7FEBFFFF7FEBFFFF7FEBF6A
:105A7000FFF7FEBFFFF7FEBFFFF7FEBFFFF7FEBF5A
:105A8000FFF7FEBFFFF7FEBFFFF7FEBFFFF7FEBF4A
:105A9000FFF7FEBFFFF7FEBFFFF7FEBFFFF7FEBF3A
:105AA000FFF7FEBFFFF7FEBFFFF7FEBFFFF7FEBF2A
:105AB000FFF7FEBFFFF7FEBFFFF7FEBFFFF7FEBF1A
:105AC000FFF7FEBFFFF7FEBFFFF7FEBFFFF7FEBF0A
:105AD000FFF7FEBFFFF7FEBFFFF7FEBFFFF7FEBFFA
