:020000041004E6
:1000000000600020B5C9041059970410AF6F0410A8
:10001000AA5555AA45554C420000000000000000BA
:10002000000000000000000000000000E1EA0410F1
:1000300000000000000000004BAC041095F3041019
:10004000A1540410A198041000000000000000005A
:1000500059F804104DE90410B93304102DFC0410B4
:100060000000000000000000000000000000000090
:1000700000000000811B0410B36F0410B16F041066
:10008000000000003B9704103D9704103F970410B8
:1000900041970410D5C90410E59904108D39041056
:1000A0000000000000000000000000000000000050
:1000B0000000000000000000000000000000000040
:1000C00000F002F800F08EF80CA030C808382418B0
:1000D0002D18A246671EAB4654465D46AC4201D180
:1000E00000F080F87E460F3E0FCCB6460126334224
:1000F00000D0FB1AA246AB4633431847A473010055
:1001000024740100103A02D378C878C1FAD8520793
:1001100001D330C830C101D504680C6070470000BD
:100120000023002400250026103A01D378C1FBD813
:10013000520700D330C100D50B607047F0B543467D
:100140004C4655465E466746F8B4104C6B462360F5
:100150000F4C20680F4C20600F4C20680F4C206023
:100160000F4C20680F4C2060BFF34F8F30BF074CFF
:100170002468A546F8BC9846A146AA46B346BC46A4
:10018000F0BD00BF30BF00BF704700000800002076
:1001900004ED00E06403002024ED00E0680300208B
:1001A00000E200E06C03002010B5662902D116F0D1
:1001B00041FE10BD642902D100F076F810BD782907
:1001C00002D100F0A7F810BD002010BD1FB500F04F
:1001D00017FF04000020002116F004FDE0601FBDA1
:1001E00010B510BD03488546FFF7F0FF13F094FFEC
:1001F00001F0D4FA0060002003B4FFF7F1FF03BC64
:1002000001F024FB70B505460C46164602E00FCC03
:100210000FC5103E102EFAD2082E02D303CC03C510
:10022000083E042E07D301CC01C5361F03E0217818
:100230002970641C6D1C761EF9D270BD0FB405497F
:1002400010B503AA029800F0B3FE10BC08BC04B0BD
:1002500018470000D402002070B504468569006884
:10026000C10601D5302600E02026C00707D070BDAA
:1002700062683046A1689047206A401C20626D1E6B
:10028000F6D570BD70B5044685690078C00707D102
:1002900070BD6268A16820209047206A401C2062DF
:1002A0006D1EF6D570BD0000F7B5002575291068E4
:1002B000009914A611D0C046C046002802DA404278
:1002C00011A608E0009909688A0701D50FA602E087
:1002D000490704D50EA6012501E0C046C046009F8F
:1002E0000024243704E000F077FE30313955641CD7
:1002F0000028F8D12B4632462146009800F0F4FB46
:10030000FEBD0000000000002D0000002B000000DA
:100310002000000070B504460D4621461068C04616
:10032000C0462188090502D50F4A7A4402E00E4AE8
:100330007A440E3223460021243305E006070009E3
:10034000360F965D5E54491C0028F7D120780023B3
:10035000000705D5702D03D0002901D002231132EA
:10036000204600F0C1FB70BD826E0100F3B504466B
:10037000002081B020622046E1688847002872D0C2
:10038000252802D06268A168ABE0594F00267F445F
:100390002046E16888472028054608DB312D06D233
:1003A000781920380078002801D00643F0E7B0071C
:1003B00001D5042086430020E0610746A0612A2D74
:1003C0000AD0284610F04CF8002827D0B8000019B1
:1003D000303D0090856119E00298BA00121902C8F8
:1003E000916102902046E1688847012F054617D1A8
:1003F000E06900281FDA202086431CE000980A21CB
:100400008069484300994019303888612046E16886
:100410008847054610F024F80028EFD1012F0AD0B4
:100420002E2D08D12046E168884705462020064346
:100430007F1C022FC3DBA069002803DA4042A061C1
:1004400001200643F00701D0102086436C2D0BD00D
:10045000682D09D04C2D3CD06A2D38D0742D38D061
:100460007A2D36D016E040E0E1682F4620468847D6
:10047000B842054609D16C2F29D001208002E168DD
:10048000064320468847054604E06C2F1DD0FF2018
:1004900001300643002D28D028464138192803D8BA
:1004A0000120C00206432035204626602946029AD4
:1004B0001646FFF779FE002810D001280BD0F61D54
:1004C000F008C0000830029055E74020E1E78020A6
:1004D000D5E70020D3E7361D02964CE76268284630
:1004E000A1689047206A401C44E7206AFEBD0000D6
:1004F000466E0100034610B50B439B070FD1042A3B
:100500000DD308C810C9121FA342F8D018BA21BAD7
:10051000884201D9012010BD0020C04310BD002A2F
:1005200003D0D30703D0521C07E0002010BD03788E
:100530000C78401C491C1B1B07D103780C78401C0D
:10054000491C1B1B01D1921EF1D1184610BD10B5DC
:10055000044600F002F8204610BDF8B5042A2CD35A
:10056000830712D00B78491C0370401C521E83076E
:100570000BD00B78491C0370401C521E830704D01B
:100580000B78491C0370401C521E8B079B0F05D033
:10059000C91ADF002023DE1B08C90AE0FFF732FE7C
:1005A000F8BD1D4608C9FD401C46B4402C4310C090
:1005B000121F042AF5D2F308C91A521EF0D40B7880
:1005C000491C0370401C521EEAD40B78491C03706E
:1005D000401C012AE4D409780170F8BD134610B517
:1005E0000446CAB219461002821810048218204626
:1005F00000F00FF8204610BD01E004C0091F0429D7
:10060000FBD28B0701D50280801CC90700D0027085
:10061000704700290BD0C30702D00270401C491E4E
:10062000022904D3830702D50280801C891EE3E7D8
:100630000022EEE70022DFE70378C278194643780C
:1006400012061B0219438378C0781B041943114317
:100650000902090A000608437047002203098B4279
:1006600073D3030A8B4258D3030B8B423CD3030C46
:100670008B4221D312E003460B437FD40022430870
:100680008B4274D303098B425FD3030A8B4244D35A
:10069000030B8B4228D3030C8B420DD3FF2209029C
:1006A00012BA030C8B4202D31212090265D0030B5B
:1006B0008B4219D300E0090AC30B8B4201D3CB0351
:1006C000C01A5241830B8B4201D38B03C01A524193
:1006D000430B8B4201D34B03C01A5241030B8B4295
:1006E00001D30B03C01A5241C30A8B4201D3CB0280
:1006F000C01A5241830A8B4201D38B02C01A524165
:10070000430A8B4201D34B02C01A5241030A8B4267
:1007100001D30B02C01A5241CDD2C3098B4201D37F
:10072000CB01C01A524183098B4201D38B01C01AFD
:10073000524143098B4201D34B01C01A5241030974
:100740008B4201D30B01C01A5241C3088B4201D323
:10075000CB00C01A524183088B4201D38B00C01AD0
:10076000524143088B4201D34B00C01A5241411AF7
:1007700000D201465241104670475DE0CA0F00D0DA
:100780004942031000D34042534000229C460309D3
:100790008B422DD3030A8B4212D3FC22890112BA59
:1007A000030A8B420CD3890192118B4208D3890131
:1007B00092118B4204D389013AD0921100E0890949
:1007C000C3098B4201D3CB01C01A524183098B422A
:1007D00001D38B01C01A524143098B4201D34B0113
:1007E000C01A524103098B4201D30B01C01A524176
:1007F000C3088B4201D3CB00C01A524183088B42FD
:1008000001D38B00C01A5241D9D243088B4201D385
:100810004B00C01A5241411A00D201466346524170
:100820005B10104601D34042002B00D5494270476F
:1008300063465B1000D3404201B50020C046C0466D
:1008400002BD00000121C9050123411842001B0619
:10085000D3185B0E0AD0C1100722D20689184007B0
:100860005242D14201D5520089187047090208D579
:100870000146002A03D0C10FC90700207047104667
:100880007047420202D00020024970470721090543
:100890000143F4E70000F87FF0B5FF252D04C609F9
:1008A000C209FF2704462E400137CB093E4348408A
:1008B0002A402B400746002A6BD0002B69D0AA4261
:1008C00067D0AB4265D0002800DA32460125ED053D
:1008D00029432C4309022002090AD21A4B0C7F2417
:1008E000E31A434C000A7C44E35C7D24240412197F
:1008F00014145B00A218884201D3521C00E040008F
:1009000049420C465C4324115C43DB016415E31847
:10091000040A5C43C502200D0C4644436419250AB1
:100920005D432303EC0C0D46654300030019EB18EF
:100930004C42A34201D35B18401CD4052018002B65
:1009400007D05B00C91804D3401C002901D140081E
:1009500040003F2189048A4209D3002A08DC11069D
:10096000090F04D0032149074018C00FC007F0BD8C
:1009700001224100120689187F2252069142F6D2C6
:1009800005214907C84201D59010F0BDFF20C005E0
:10099000F0BD002F00DA32461648AA4207D2AB4219
:1009A00005D21902090E17D0F80FC007F0BDFF25B8
:1009B00063002D06AB42F9D84900A942F6D8AB42F4
:1009C00001D1A942F2D0A94201D1002101E0610088
:1009D0004908D0050843F0BD1102090EFBD0FF20E5
:1009E0000243D005F0BD0A460146104654E7000018
:1009F000FF6801000000C07F10B501469E24000280
:100A0000CA15A307002A02D01843002A04DBA21A41
:100A1000002A0CDDD04010BD1206120E01D140009C
:100A20004008A21A03D4D04040420028F3DDFF2240
:100A300048001206904201D9002010BDC817C043DB
:100A4000584010BD1F22030C02D10F2200041CD0FD
:100A5000030E01D10002083A030F01D10001121F59
:100A6000830F01D18000921E002801DB4000521E3E
:100A7000D2055118021251181922904004D3491C72
:100A8000002801D14908490008467047C10FC9072D
:100A900000D04042012292071143D3E70121890788
:100AA000D0E7000010B5FF22C30D134009D05A4013
:100AB00007D0914205DA5C42A14202DDC90508185F
:100AC00010BDC40FE407002B06D0002A06D0002971
:100AD00002DBFF20C0050443204610BD4102FCD0CC
:100AE000004810BD0000C07FFFB504460D4681B030
:100AF000243000902168880604D51022E0699143D3
:100B0000216000E00120A84201DD471B00E0002732
:100B10000498A1697A191018081AA0612078C006F3
:100B200002D42046FFF798FB002608E0039862688D
:100B3000A168805D9047206A401C761C2062049862
:100B40008642F3DB2078C0060AD52046FFF784FBF7
:100B500006E06268A16830209047206A401C20624D
:100B600038467F1E0028F4DC07E000986268A16820
:100B7000405D9047206A401C206228466D1E002878
:100B8000F3DC2046FFF77EFB2078000602D502202A
:100B900005B0F0BD0120FBE77047FFB50C461E46CF
:100BA0008FB003CA089009914F007D0D00D16D1ED2
:100BB000002108460020C0460321099A8905084003
:100BC000002A03DA8200801840080840800D0128BE
:100BD0000A9002DD0020C0430A90089807430DD018
:100BE000F048F149281848430714189800281DD0E8
:100BF0007542291E1DDD0A9842421BE01898012803
:100C000002D00020302104E00020F24305E021540E
:100C1000401CB042FBDB30460022189B00212154CF
:100C20000F998B600A60486013B0F0BDBD1B6D1C4E
:100C3000DFE70A9A002900DA69420BA800F07EFA81
:100C40000BAB07CB03AB07C30899099800F0E2FA96
:100C50006B4607C30146D5480918002D00910BDDEE
:100C6000D24903980A9A49424018002303A90390E5
:100C7000684600F03FFD08E003990A9A002308182F
:100C800003A90390684600F0DFFC6B4607C300042D
:100C9000000C03D00020C043410800E01046189A21
:100CA000002A03D00022009215461EE0751E05D4CE
:100CB00000F0AAF9303262556D1EF9D501220843C1
:100CC000079602D000227F1C04E02078302801D152
:100CD00000227F1E002A069787D01EE0112D07DA1A
:100CE00000F092F9303262556D1C02460A43F5D18C
:100CF000084303D00098002819D00EE00021681E98
:100D000005E0235C625C63542254401E491C81420E
:100D1000F7DBA81B401E07950690079A189900203C
:100D2000A0540F98079B069A81600CC07CE711269F
:100D30000020189059E7D21DF0B50D460446D108A1
:100D400093B0C90003C90C900D910FF06FFA0246E1
:100D50000D98C00F01D02D2007E02068810701D534
:100D60002B2002E04007C00F4001032A0F9001D062
:100D7000072A05DB03462946204600F09BF90EE1D1
:100D80002078800601D5E76900E006272846652D12
:100D900004D0662814D0672D69D12DE00020112FD2
:100DA000009001DB112300E07B1C0CAA03A910A812
:100DB000FFF7F3FE1199002610987D1C0E9142E07A
:100DC00001203B460CAAC0070B900120009003A90C
:100DD00010A8FFF7E2FE119D129810990026002836
:100DE0000E9501D1781C0D18781B02D446427D1C4B
:100DF000761EE81B00903AE0012F00DA0127002060
:100E0000112F009001DD112300E03B460CAA03A93D
:100E100010A8FFF7C2FE11993D46109800260E91CA
:100E2000217809070BD40E99A94200DA0D4603A9CF
:100E3000012D04DD4A19203AD27F302A06D0B8426B
:100E400001DA011D04DA012100910FE06D1EEFE7C8
:100E5000002802DC86192D1A03E0411CA94200DD9E
:100E60000D46801B401C00900120C0070B9020788D
:100E7000000705D40098A84202DB0020C043009080
:100E800069460020C8720B98012102AF0337C907D9
:100E9000884225D0022010902B2011900B9800281A
:100EA0000BDA40420B902D20119006E00B9800F0D9
:100EB00093F830317F1E0B9039701099481E00292D
:100EC0001090F3DC0B980028F0D111987F1E387039
:100ED0002088000501D5452000E065207F1E387080
:100EE00001A8C01BC01D0B900F98002800D0012046
:100EF00041190098C01709180B980818A169081A19
:100F0000401EA0612078C00602D42046FFF7A4F955
:100F10000F98002805D06268A1689047206A401C9D
:100F200020622078C00625D52046FFF795F921E0FC
:100F3000002E07DB0E98B04204DD03A86268805DD6
:100F4000A16802E06268A16830209047206A761CA0
:100F5000401C20620098401E002800900AD100F03A
:100F60004FF8C06862680168405CA1689047206AD9
:100F7000401C206228466D1E0028D9DC07E062680C
:100F80003878A1687F1C9047206A401C20620B992A
:100F9000481E00290B90F2DC2046FFF773F903206E
:100FA00042E6000001FCFFFF104D0000E1DFFFFF03
:100FB000084B70B50D467B4400F069F8044628469E
:100FC00000F0E8FB002802D00020C04370BD20469E
:100FD00070BD00002314010001468008081A0209B0
:100FE0001018020A1018020C1018C00882001218FB
:100FF0005200891A01E0401C0A390A29FBD27047C5
:1010000000487047702300200B4670B502468907E0
:101010008008084319469D08141AA94125090807A4
:10102000054308092C194841250A01060D43010A08
:101030002C194141200C0D0428430D0C00194D4181
:10104000002140194D41C00869070843E908840F91
:101050008D002543840024184D4124196D41121B35
:10106000AB4107E00925ED432C11521963410024DF
:10107000401C61411C460A250026551BB441F1D293
:1010800070BD000001694A1C02610878704700B514
:101090008FB0029100210591054901937944039194
:1010A000114604906846FFF761F90FB000BD0000DB
:1010B000E5FFFFFFF8B51F46044601230068DB0289
:1010C000032601461840072A05DB002801D017A592
:1010D00006E017A504E0002801D016A500E016A53B
:1010E000102081432160A069C01E002FA06101D0A3
:1010F000401EA0612046FFF7AFF8002F09D0384608
:101100006268A1689047206A401C2062C01C20626F
:1011100006E0206AFAE762682878A1686D1C9047AB
:10112000761EF8D22046FFF7ADF8F8BD4E414E00CE
:101130006E616E00494E4600696E6600F7B5164650
:101140008AB0334878446C4603467C33C06F5A6893
:101150009B680DC42E487844763003AC0DC80DC48E
:101160003720C001081837211B30FFF784FA0546E5
:101170000C46803D1B3C02D56442012000E000206B
:101180000027099010E0E0070CD00C20204978439C
:10119000794432464C3941186846012300F054FA2C
:1011A0006B4607C364107F1C002CECD1184F7F44A2
:1011B0002E3F16E0E80712D02001C0190EC8069194
:1011C000089307920068F04201D1981908903246BE
:1011D000012306A903A800F037FA03AB07C36D107B
:1011E000641C002DE6D10998002806D032466946D5
:1011F000012303A800F07EFA05E001233246694688
:1012000003A800F021FA0A9B07C30DB0F0BD00004F
:10121000E4600100034640000A4610B5400D0BD0C3
:101220000121C9070F24A40200191C0364082143EB
:10123000540D2143D20207E000210120F2E7D40F30
:10124000490021435200401E0029F8DADB0FDB077A
:10125000184310BDFFB50D46144685B04868516867
:101260000EF0BEFF00910190A868A1680EF0B8FFD3
:1012700002910390A86861680EF0B2FF029A1218FA
:101280008242029201D2012000E00020019A0B1854
:10129000D2180028019202D08A4202D903E08A4281
:1012A00001D2012000E00020009908180090686831
:1012B000A1680EF095FF029A12188242029201D2A2
:1012C000012000E00020019A0B18D218002801929A
:1012D00002D08A4202D903E08A4201D2012000E012
:1012E00000200099081800902868216840004900F3
:1012F000400849084018FA49471814E0019940008D
:10130000C90F08430090019802994000C90F084393
:101310000190029803994000C90F08430290039876
:1013200040007F1E039000980028E7DA0898002804
:1013300001D0EC4E00E00026B74201DA012000E0C7
:101340000020002804902AD0F71BF806C00E15D004
:10135000029B2021091A039A8B401A430392029A96
:10136000019BC2408B401A430292019A009BC240EB
:101370008B4000991A430192C14000917B110DD01E
:101380006F460320C11A03D500218200B95003E043
:101390008A008100BA587A50401EF3D53746039828
:1013A0000299002800D001200143089802910028EA
:1013B00008460CD0002800D001200199019A490567
:1013C00008430121D20AC902D202019200E00121A0
:1013D0000E9B0122D207012B02D0002B03D013E079
:1013E000002807D120E0904204D890420CD1019B04
:1013F0000B4209D0019B5918019105D10099491C54
:10140000009101D17F1C009200280DD010210846C8
:101410000020C0460498002806D00F98002803D06A
:10142000082108460020C04628682168019B009AD0
:101430004840C10F0598C90739430EC009B0F0BD37
:10144000FFB587B0099A0898089953689268406870
:10145000896896460022039317469446089A1268B4
:101460005300099A5B081268520052089A1A9E4B60
:10147000D4180A9A002A01D0352200E040220692B0
:101480000022012315460492DB07059324E0002D7A
:1014900005D175460346039E4D1BB34109D37546DE
:1014A0006646039B491B049D9841059B7519AC46F4
:1014B0005F4163463B4308D0059B049EDD077608E9
:1014C0002E435B080496059301E0521E641EC50F6F
:1014D000ED0749184041521C069B9A42D7DB002D6C
:1014E00004D17546039A6B1A824101D203200CE0A5
:1014F000039A0B466B404240134303D0014303D091
:10150000012002E0022000E000206146019100215C
:10151000009702910A99002905D0614640020143D3
:10152000704B019102E08007002302909C4201DA97
:10153000012000E0002007003AD01A1BD006C00EA0
:1015400015D0029D2021019C091AC5408C402543DD
:10155000029C8C4000D001242543019C0295009DF3
:10156000C4408D4000992C430194C1400091541116
:101570001DD06D460221002202290CD10320001B40
:1015800007E0002804DB8600AE59002E00D00122BF
:10159000401C0328F5DB081B02D588002A5004E014
:1015A0008000285810438A00A850491EE3D51C46E5
:1015B0000A98002802980CD0002800D00120019938
:1015C000019A490508430121D20AC902D2020192B7
:1015D00000E00121109B0122D207012B02D0002B39
:1015E00003D013E0002807D11FE0904204D89042B6
:1015F0000CD1019B0B4209D0019B5918019105D1D7
:101600000099491C009101D1641C009200280CD063
:10161000102108460020C046002F06D0119800284F
:1016200003D0082108460020C04608980999019A6D
:10163000009B006809684840C10F0798C90721430B
:1016400082600AC00BB0F0BD00B585B00193009276
:101650000A460146002302A8FFF7FCFD02A807C8BE
:1016600005B000BDFFB50A461F4685B00799019336
:1016700001230091014602A8FFF7ECFD02990398AF
:10168000049ECA0F4900D20700920F224908920215
:101690008C1A0021002800DB0C46450013486D0819
:1016A000844214D3079A002A04DA441E0026104DFF
:1016B000F64302E004460D460E461021084600207F
:1016C000C046002F03D0042108460020C046200554
:1016D000E90A0843009908436905F20A1143ADE697
:1016E00002C0FFFF013C0000FF3F0000FF070000B9
:1016F000FFFFFF7F00B585B0019300920A460146C7
:10170000002302A8FFF79CFE02A807C8A8E7FFB5C0
:101710000A461F4685B007990193012300910146AF
:1017200002A8FFF78DFE02990398049ECA0F490094
:10173000D20700920F22490892028C1A0021002839
:1017400000DB0C46450011486D08844214D3079A0B
:10175000002A04DA441E00260D4DF64302E004463A
:101760000D460E46102108460020C046002F03D02B
:10177000042108460020C0462005E90A08430099D4
:1017800008436905F20A114358E60000FF0700000C
:10179000FFFFFF7FC06880210840704710B50446F6
:1017A000C046C0462046FEF727FD10BD82078B07C6
:1017B0009A4237D170B5920F0AD0032402780B7881
:1017C000401C491C002A2BD09A4229D12042F5D135
:1017D0001D4EF40104C808C9951B9543254010D13E
:1017E0009A4207D104C808C9951B9543254008D1E2
:1017F0009A42EFD012BA1BBA01209A4200D240425C
:1018000070BD12BA1BBA2DBA18241000E04019009E
:10181000E140401A05D12E00E64002D1083CF4D147
:10182000D01A70BD02780B78401C491C002A09D0E0
:101830009A4207D102780B78401C491C002A01D03B
:101840009A42EFD0D01A70470101010101491820D6
:10185000ABBEFEE726000200704770B58C18057815
:10186000401C6B075B0F01D10378401C2A1106D185
:101870000278401C03E00678401C0E70491C5B1E79
:10188000F9D12B0705D40023521E0DD40B70491C2F
:10189000FAE70378401CCB1A921C03E01D780D7008
:1018A000491C5B1C521EF9D5A142D8D3002070BD43
:1018B00070B58124E4058025002806D0012808D0D1
:1018C000FF214A31044810F0E3FA2088A843208021
:1018D00070BD20882843FAE7C072051070B58124D6
:1018E000E4050225002806D001280CD0FF2135315F
:1018F000064810F0CDFA2088402108432080208837
:10190000A843208070BD20882843FAE7C0720510E4
:1019100010B58124E405002806D001280BD0FF2152
:1019200007310D4810F0B4FA2088400840002080AC
:10193000208810210DE06068400204D52088FF2136
:10194000013108432080208804210843208020881A
:1019500001210843208010BDC072051010B501217F
:1019600008020DF0F7FC08480022027002214170C5
:1019700082700171C17000F005F90120FFF7AEFF20
:101980000120FFF795FF10BD9403002010B5002340
:101990000222012100F032F8014915F07FF910BD53
:1019A0001F858B4070B50646114C0846FFF776F848
:1019B00005468120C00541680906890F012903D029
:1019C00040680006800F00D10A4C3046FFF75EF8F1
:1019D0002146FEF761FF04467F21C905284615F020
:1019E00017F9214615F05AF9034915F057F970BD5A
:1019F0000088824600F497469A991940FEB5002463
:101A00001D460F46022A02D0032A03D101E01B4CD7
:101A100000E01B4C8121C9054A681206920F012A79
:101A200003D049680906890F01D116490191FFF7D2
:101A30002DF87F260090F6052846FFF72FF831464F
:101A400015F0E6F8054601990098022F0CD0FEF734
:101A500023FF0D4915F022F9214615F077F90146CB
:101A6000284615F01BF9FEBDFEF716FF064915F0D6
:101A700015F9214615F0CCF8F1E700009A99193FC5
:101A80009A99993F00F497469A99194010B5002306
:101A900002220121FFF7B2FF034915F0FFF80349C5
:101AA00015F060F910BD00000080C8430080854338
:101AB00070B50D46040013D0022C11D0012C0FD0AC
:101AC000032C0DD0042C0BD0052C09D0062C07D0EC
:101AD000072C05D00F2C03D01D491E4810F0D8F953
:101AE000022D06D0032D04D019491A48491C10F0C4
:101AF000CFF98121C9051620085E49688905890F3B
:101B0000022C0ED0012C10D0032C14D0062C12D095
:101B1000072C10D0052C11D0042C13D0FEF7B6FFE3
:101B200070BD0B462A46022102E00B462A460121DF
:101B3000FFF764FF70BDFFF735FF70BD2946FFF763
:101B400025FF70BD0A462946FFF7A0FF70BD0000C3
:101B50000A020000C072051010B50446000704D147
:101B6000FF21AF31044810F093F904480078204079
:101B700000D0012010BD0000C07205102000804080
:101B80007047000010B504460078002809D00128ED
:101B900007D0022805D0032803D0DA21374810F0F7
:101BA00077F96078002813D0022811D001280FD0CF
:101BB00003280DD004280BD0052809D0062807D00B
:101BC000072805D00F2803D0DB212C4810F060F93E
:101BD000A078002805D0082803D0DC21274810F081
:101BE00057F9E078002807D0012805D0022803D053
:101BF000DD21224810F04CF92079022805D0032875
:101C000003D0DE211D4810F043F98120C005416852
:101C1000C022914322789207120E114341606278EC
:101C2000012189050F2A426823D08A434260416816
:101C30000E22914362785207120F114341604168AE
:101C40003022914322799207920E11434160A1788C
:101C50000122D202082941680ED0914341604168B7
:101C6000032212029143E2789207920D11434160E0
:101C700010BD0A434260E2E71143EFE7C07205106E
:101C8000F0B50F46B5B01546002130AA0F23445CCD
:101C90005E1A491C94551029F9DB1022694630A8B8
:101CA00000F016FB0026B400E019401CFEF7C4FC4F
:101CB000395D000208430321891B89002CAC761C86
:101CC0006050042EEFDB214610236A46084600F0E0
:101CD000C7F900200326311A8900635C8200AB54E7
:101CE000635A52191B0A53706358401C1B0C9370A3
:101CF0006158090ED1700428EDDB35B0F0BD70B528
:101D0000BAB0054600200C460090202069460872B3
:101D100010200A9038901E46039201A800F086F920
:101D20002246294601A800F007F86A46314601A874
:101D300000F046F93AB070BDF7B5002592B00F46F5
:101D40000446002804D0002F06D11498002803DD93
:101D50006120400115B0F0BD1498002804DB102864
:101D600004DA2079800601D49448F3E7207941070A
:101D700001D4810702D59148401CEBE7402108437C
:101D80002071204614300F90143001901EE0002680
:101D9000B00004904019C0190390FEF74DFC00BA42
:101DA000010A03980902C07807AA01430498761C27
:101DB0000019406941400498042E1150E8DB636A21
:101DC00007A8019A0F9900F07FFA059D2846103068
:101DD000059014998842DADB2079800620D4002906
:101DE0001EDD0026B00004904019C0190390FEF7D4
:101DF00023FC00BA010A03980902C07807AA01432C
:101E00000498761C0019406941400498042E115032
:101E1000E8DB636A07A8019A0F9900F055FACAE057
:101E200000200B900C900D900E900BA9636A084651
:101E3000019A00F049FA0B988721C00F48430B998B
:101E40000C9A4900D20F11430B910C990D9A49003D
:101E5000D20F11430C910D990E9A4900D20F1143E4
:101E60000D910E99149A49004140284610300E9168
:101E700090421CD10026B00002904019C019049075
:101E8000FEF7DAFB00BA010A04980902C0780BAB2E
:101E900001430298761C0019426902981858424082
:101EA0005140029807AA1150042EE4DB79E00B9808
:101EB0008722C00F50430B9A0C9B5200DB0F1A4332
:101EC0000B920C9A0D9B5200DB0F1A430C920D9A49
:101ED000CB0F52001A430D924A00424014980E92C2
:101EE000401B0390C017820F039800261018801023
:101EF000029019E0B00010904019C0190490FEF74C
:101F00009BFB00BA010A04980902C0780BAB01439D
:101F10001098001942691098185842405140109882
:101F200007AA11500298761CB042E3DCB0000119F8
:101F30000BAA49691258514007AA1150039B00216E
:101F40001B1A42199C4696460BE072465218BA5C20
:101F5000CD0018235B1B9A4007AB1D586A401A50EE
:101F6000491C8C45F1DC002909D0CD00182107AAB5
:101F70004D1B13588021A9404B40135005E007A981
:101F80000A580123DB075A400A5007A90BAA05E0AB
:101F9000B00003195B6915586B400B50761C042E7A
:101FA000F6DB636A07A8019A0F9900F08DF9207992
:101FB0000421084320710020CCE600001D0C000025
:101FC000F8B516460F46040009D0002E07D0254666
:101FD0008035E86D401E102804D31348F8BD6120F9
:101FE0004001F8BD2079400604D400221146204665
:101FF000FFF7A2FE2079022108432071002018215A
:102000000CE0C217920F121892089200121983075F
:102010005269DB0ECB1ADA403A54401CEA6D824218
:10202000EFDC00203260F8BD1F0C000010B504008A
:1020300007D002230022A16800F014FA010003D0A7
:102040000CE06120400110BD0020102222610246F8
:1020500083001B19401C5A610428F9DB084610BD97
:10206000FFB5D910490083B0891D0291036811683A
:1020700054684B404168956861408468C0686C4012
:10208000A446D4681E0E60408C4CC5B2A65D655D4A
:102090003606354367460E023F04360E3F0EA65DF8
:1020A000E75D36043F023E43354300950E0EDDB238
:1020B000A65D655D36063543664636020704360E74
:1020C0003F0EA65DE75D36043F023E433543AE4614
:1020D000CDB2665D65462F0EE75D1D043F063E43AB
:1020E00007023F0E2D0EE75D655D3F042D022F4375
:1020F0003E4301966546EDB2070E665DE75D0D0451
:102100003F063E431F023F0EE75D2D0E645D3F0418
:1021100024022743029C3E43641E10320294002C8A
:1021200065DD674C00986749204043000098654D85
:10213000C00908401B2148434340009918464840C5
:102140001821C841434000981021C84143400098DD
:102150000821C841434010685A4F43407046204010
:1021600041007046C00928401B256843414008468D
:10217000754668401825E841414070461025E84101
:10218000414070460825E84141405068019D41406A
:102190000198ED0920403D4040001B277D436840E9
:1021A000019F05467D401827FD416840019D10278D
:1021B000FD416840019D0827FD41684095686840E1
:1021C0008446304620403F4DF4092C4040001B25FA
:1021D0006C436040044674401825EC416040102474
:1021E0003546E54108246840E641704049E7334CF4
:1021F000C5B2665D1D0E645D240626430C02250EE5
:102200002E4C645D65462D042F0E2C4D2404ED5D8F
:102210002D022C432643294C0096DDB2655D0E0E3F
:10222000A45D2406254364462402260E234CA45DA7
:102230000604370E214E2404F65D3602344325434E
:10224000AE461E4CCDB2645D65461C4E2F0EF55D4C
:102250002D062C4305022F0EF55D1F042E043D0EA6
:10226000164F7F5D65463F023E433443EEB2134D49
:10227000AF5D050E1148405D000607431802030ECE
:102280000E48C05C09040B0E0C490004C95C93683D
:102290000902084307431068009E63405168049C8C
:1022A0007040D26820607546049869404160049887
:1022B0007A4083600498C26007B0F0BD8870051052
:1022C0007F7F7F7F0101010100B5FFF7C9FE00BDDF
:1022D000F7B50298002486100DE00098A7003D187D
:1022E0002846FEF7A9F900BA000AE9780002084377
:1022F0000199641CC851A642EFDC0199029A084674
:1023000000F002F8FEBD0000F0B500231D46941059
:1023100003E0AA0086588E506D1CAC42F9DC504F89
:10232000FA1FF93A042C04D0062C28D0082C7DD1B1
:102330004FE0C86805022D0E040E555D145D2D0694
:102340002C4305042D0EC0B2555D105C2D04000217
:1023500005432C439D007D59086868404440012096
:102360005B1C0C61840065180C59EE68401C6640CB
:102370002E610428F6DB0A2B71DA1031D9E748699F
:1023800005022D0E040E555D145D2D062C4305042B
:102390002D0EC0B2555D105C2D04000205432C4388
:1023A0009D007D5908686840444001205B1C8C6199
:1023B000840065180C596E696640AE61032804D02C
:1023C000401C0628F4DB1831D9E7082B47DA042033
:1023D000EEE7C86905022D0E040E555D145D2D064D
:1023E0002C4305042D0EC0B2555D105C2D04000277
:1023F00005432C439D007D590868684044400120F6
:102400005B1C0C62840065180C59EE69401C664028
:102410002E620428F6DB072B21DAC86A050EC4B247
:10242000555D145D2D062C43050200E017E02D0ECE
:102430000004555D000E105C2D0400020543086980
:102440002C43444005200C63840065180C59EE6948
:10245000401C66402E620828F6DB2031B9E7F0BD4B
:1024600088710510F8B59E468C46002807D00029D3
:1024700005D059078C0F002A04D1012C02D061200D
:102480004001F8BD416A102903D0182901D0202944
:1024900005D1012C05D00169491E102901D31E4820
:1024A000F8BDC2600179F92319400171012C20D0D7
:1024B00000210B468D002D18491C6B610429F9DBA6
:1024C000002113E0CB179B0F5B189F08BF003D183E
:1024D0002E4614360096CF1B565CFF0018236D69FC
:1024E000DF1BBE403543009E491C356003698B42AB
:1024F000E8DC0179C9070CD1614681607146C907E2
:1025000001D0032C05D10146426A28316046FFF70D
:10251000DFFE0020F8BD00001F0C000010B50446CF
:102520000EA0FDF78BFE15A06168FDF787FE17A0D2
:10253000A168FDF783FE19A0E168FDF77FFE6068E2
:10254000FEF7A4FA19490860A068FEF79FFA184937
:10255000086002A0FDF772FE10BD00002F2A2A2A93
:102560002A2A2A2A2A4143435F446174612A2A2A7B
:102570002A2A2A2A2A2A2F0D0A0000004143435FF3
:10258000583A202564200D0A000000004143435FB3
:10259000593A202564200D0A000000004143435FA2
:1025A0005A3A202564200D0A000000008003002014
:1025B00084030020FFB583B000250E4601240C9F44
:1025C00026E0F168A01D09180222684607F06DF99F
:1025D0006846008803F016FC010020D068460A8D8A
:1025E0000088824212D001AA0CF05CFD01280DD1B6
:1025F00001992620405C400708D506986A0010180B
:1026000002221C3107F051F96D1CADB2A41CA4B21A
:10261000304604F053FE401EA042D2DC3D8007B09D
:10262000F0BDFFB583B000200F9E0090304603F050
:10263000E9FB050022D00D980C300190288DB042A6
:1026400013D31099884210D8294602222A310198C2
:1026500007F02BF910220E990D9807F022F90028A7
:1026600009D0298D1098814208D02F462C6A203736
:10267000BC423ED13FE00C980021018007B0F0BD84
:10268000A08BB04234D310998842F7D8204620302E
:102690000290C078012808D02046083010220E99F8
:1026A00007F0FFF8002808D022E021460222083176
:1026B000019807F0FAF80D98F0E702988079400742
:1026C00016D50098002801D1E08B0090E18B814263
:1026D000D4D10C980222008841000698081821469F
:1026E0001C3107F0E2F80C980C990088401C088017
:1026F0002468BC42C4D103982D6808308542BDD0FF
:10270000298D1098814299D9B8E770B50C460546D5
:10271000C968C068212207F0C8F860896881207CF8
:10272000287420892881002070BDFFB51E461346FD
:1027300081B06A4619B200F069F81B2705460028E7
:102740001FD01AE00A9800281ED069460020085EB3
:10275000391A8CB2B1B28C4200D30C46E968801CA5
:1027600008182246029907F0A0F802986946001955
:10277000361B0290002008806D69002E14D0002DB9
:10278000E0D1412005B0F0BD6A4600206989105EA5
:10279000091A8CB2B1B28C4200D30C46E968801C95
:1027A000091822460298DEE70020EBE7F8B5074655
:1027B00011480121006889024018104D046AA97F60
:1027C0003A4620680CF07DFC0026002804D00680E4
:1027D0004068022107F0E2FA002008E06268C100C8
:1027E000535ABB4201D151180E80401CC0B2A97F80
:1027F0008142F3D80020F8BDB00300201C23002044
:1028000000E0084641690029FBD1704706E0002836
:1028100007D01B2904DB1B39406909B20029F6DC0B
:102820001180704770B50A4801210068890240187C
:10283000084D046AA87F0021C200206807F039F81B
:10284000A87F0021C200606807F033F8002070BD47
:10285000B00300201C23002070B5902504460122FF
:10286000114628460DF088FF010003D028464C6031
:102870000DF06EFF70BD000010B5104A0121126806
:10288000A0321278D20714D000F01AF810BD002937
:1028900001D0202100E01021017400214469416130
:1028A00000F00EF8002801D0412010BD2000F2D128
:1028B00001E00028EBD1002010BD0000B003002093
:1028C00010B505F02FFC452801D0412010BD11F0B6
:1028D0004BFF002010BD70B5902504460122002159
:1028E00028460DF049FF010003D028464C600DF04A
:1028F0002FFF70BD032070477FB5054668460089ED
:102900000C4600281DD0E1680C208871E068022286
:1029100002A9C01D06F0C9FFE068022203A9093020
:1029200006F0C3FF05220121204607F065FA2121A8
:10293000E86889010843E8600D20A872002004B00F
:1029400070BD4220FBE77FB50546684600890C9EB6
:102950000C46002816D069468989884212D8E16859
:1029600008208871E068022202A9C01D06F09DFFC0
:10297000E068022203A9093006F097FF012E04D077
:10298000022E0AD0422004B070BDE068022208A9DD
:102990000B3006F08AFF072206E008AB102209215F
:1029A000204607F057FA15220121204607F024FAA5
:1029B0002121E86889010843E8600920A872002005
:1029C000E1E70000F8B50CF0D9FD1F4C03252068A5
:1029D0002D024119097B002909D1A0300078C007D8
:1029E0002BD010F03DF800F0CBFF01F03FFA00F0E3
:1029F00057FC20680146203140308A7E407882436F
:102A00001AD1087E002817D1104F3888000713D537
:102A10000920C0060669FA2011F06EFB797AC90018
:102A2000401821684919896F891B090209128842D7
:102A300002DA002011F0DAFCF8BD02F0A1FB03F08D
:102A400059FA0BF079FBCEE7B0030020C00000205C
:102A5000F3B50446FF48FFB0007A8AB00190FE4803
:102A600080880490FD4800684C90FD4E0020810055
:102A70008B191B68401C4DAAC0B253500828F6D3CE
:102A8000F848006A4B90F848006A4A900120800795
:102A9000016849914168489181684791C1684691B0
:102AA000016945914169449181694391C1694291AC
:102AB000C16A4191006B4090EC484068EC493F90FE
:102AC000C8683E90087F3D90E948203082883C925B
:102AD000027A3B92027B3A92096B3991017D3891DF
:102AE000008B3790E2484030017A3691017C359175
:102AF000017D3491017E3391007F3290DC4860305B
:102B000000783190DB480168309141682F91017C59
:102B10002E91017D2D91D74920310A792C920A8975
:102B20002B92C06A2A90088A00222990D248110567
:102B300008180368910075AD6B50456877AB5D5020
:102B4000858B79AB5D50058C7BAB5D50858C7DAB07
:102B50005D50058D7FAB5D50C56A81AB5D504C23E8
:102B60001D5A83AB5D50056D85AB5D50836D521C66
:102B700087A8D2B24350022AD8D30B20000700689E
:102B80002890BE484168259181682491018A23914B
:102B9000818A229181692191017F2091B749203159
:102BA000098A1F91416B1E91816B1D91C06B1C9016
:102BB000B248403001681B9141681A9180681990B1
:102BC000AF488188189101891791017C1691017D88
:102BD0001591018B1491007F1390AA48818812915E
:102BE00001891191017C1091017D0F91018B0E9152
:102BF000007F0D90A4480169279140692690A34861
:102C000001680C91007A0B90A148006800282CD034
:102C100000200090002014219E4A414389180D682D
:102C2000820055AB9D504D685DAB9D508D6865AB86
:102C30009D50CB68401C6DA9C0B28B500828EAD3C8
:102C40008120C00501880A9141680991017B0891A2
:102C500081690791416A0691806A05900320800787
:102C600080680390032C02D008E08B48D1E709204C
:102C7000C0064168032212071143416087490020C2
:102C80000968874D28390291864F296004C983005D
:102C9000401CFA50C0B229600A28F7D301200CF07A
:102CA000D9FB814900200870FDF748FA00200CF09C
:102CB000D1FB7D48007800287ED07C48012101832B
:102CC00000218181016108460299296081007A58BA
:102CD000296804C1401CC0B229600A28F6D35E49A5
:102CE000049888805D494C98086000204DAA8100B6
:102CF000535889190B60401CC0B20828F7D35949B2
:102D00004B98086258484A99016201239B074998E9
:102D1000186048985860479898604698D8604598D9
:102D2000186144985861439898614298D8614198D5
:102D3000D862409818634D493F9848604C493E9886
:102D4000C8603D9808774A483C9A203082803B9A78
:102D500002723A9A0273399A0A633899017537995F
:102D60000183434836994030017235990174349992
:102D7000017533990176329901773D493198603177
:102D800008703C48309901602F9941602E99017478
:102D90002D99017537492C9A20310A712B9A0A8195
:102DA0002A9AC26229980882002275AD324811051C
:102DB000081891006E5800E0C8E0066077AE7658BB
:102DC000466079AE765A86837BAE765A06847DAEAF
:102DD000765A86847FAE765A068581AE7658C6626C
:102DE00083AE765A4C273E5285AE7658066587AE3E
:102DF00071588165521CD2B2022AD7D30B2000072A
:102E00002899016020482699416100218161279914
:102E100001611A48259941602499816023990182B2
:102E20002299818221998161209901771E994163BC
:102E30001D9981631C99C16310481B994030016042
:102E40001A994160199981600C491F9820310882B4
:102E50000B482DE0000020400000104000E100E0A1
:102E600000E400E000ED00E0000090404000004081
:102E700000003040000040400000A0400000F04052
:102E80000000D0400000E04000E000E000007040A2
:102E9000000C7040080000A051E5CC1A000004109E
:102EA000A80300200C1D00200C000020000010488A
:102EB00018998180179901811699017415990175E6
:102EC00014990183139901776948129981801199A6
:102ED0000181109901740F9901750E9901830D9963
:102EE000017764480C9901600B990172624900985E
:102EF0000860624F00205DAD14214143C919820072
:102F000055AEB6580E60AE584E6065AEB6588E607F
:102F10006DAEB258CA60401CC0B20828ECD3812004
:102F2000C0050A99018009994160089901730799C0
:102F3000816106994162059981620321890703989D
:102F400088604F48007A002845D074E04D4B1868DF
:102F5000400637D419684C484C4A0068556A4140CD
:102F60004B4E3668B5421AD11B68834203D049489C
:102F70000068084213D14848012100680907054646
:102F800053680D400B409D4209D18B105168184089
:102F90001940884216D041480069800712D509219E
:102FA000C90608693E4B0209D01C984204D80A6938
:102FB00012098242FBD305E03A4810180A69120947
:102FC0008242FBD1032C4DD10920C0064168220763
:102FD0009143416046E03448018909292BD3018996
:102FE000812928D88A99002925D00289092191436D
:102FF00002D1D96989051BD402891121914302D1DB
:10300000D969490514D402892121914302D1D96992
:1030100009050DD402894121914302D1D969C9041E
:1030200006D401898120884305D1D869800402D55E
:10303000144801210160032C05D10920C006416814
:10304000220791434160194901980872032C0DD061
:103050000021002000F0A2FC0198C00702D0144912
:103060001520087062B67FB00CB0F0BD0121F0E70A
:103070000000E04000007040000C7040080000A01C
:103080000000904000E200E06C03002000ED00E052
:103090006803002000E100E06403002000E000E09D
:1030A000FFFF0F000400F0FF000010480000204068
:1030B0000000C040F8B515460E46074672B600F04F
:1030C0004BF904463846FFF715FCB84200D33846A2
:1030D000844200D220460B4A810053585B1C535057
:1030E000002809D0012809D007490D700E7131461A
:1030F000FFF7AEFC0020F8BD62B6FBE7FDF741F834
:10310000FAE70000FC1C00200000204010B5C17F41
:103110000024002901D011240CE001463422064885
:1031200006F0C3FB00F08AF8002801DA072401E06A
:103130000CF0DAFF204610BD1C23002070B50F48AC
:103140000F4D827F2868A8210A540146002460316F
:103150000C754C758C75E122CA7580220A760222A4
:103160004A76302220310A774C7712228A779F30B4
:103170000FF01EFC2868A030047070BD1C230020D6
:10318000B003002070B50CF0DFF904F0C3FE1E4E52
:103190000122316892021B4D8918C96968788870CC
:1031A00006F08EFDFFF73EFB04F00EF92C46203CA6
:1031B000164920683268401881100520C001101897
:1031C0000161616889084161A168890881610AF02B
:1031D000E3FE3068218BFF3081300184618B4184B4
:1031E000A18B4183618C81832978817700210172D1
:1031F00001F002FE03F094FE03F0CCFD00F0C6FEE9
:1032000070BD00003C230020B00300200000FCEF54
:1032100010B509490C694A690321601E0843002161
:10322000401C06F046FB204600F0E0FC00F016FED5
:1032300010F0C0FF10BD00001C23002070B516491F
:1032400003238A8BFF24521E1A438B7F2D34634342
:10325000D3180A8B282462439B184A8B302462437C
:103260009B180A46203252783C2462439A180B4B32
:103270000020D4184A69C043A2420BD18B22D2004D
:10328000944207D90D69284600F0B0FC00F0E6FD35
:10329000401B201A70BD00001C230020AD1300004D
:1032A000F8B529480268D06D5832401C002815D066
:1032B000002426480025C07B00283ED00926F606BB
:1032C0002348002C1CD00021224F0B460D4641699B
:1032D0005B1CA94204D1002902D003E00124E8E7E5
:1032E000BB42F3DB116000695060306991680002F5
:1032F000090E000A09060143916000F04FF81DE035
:10330000316993680902090A1C0E08D0018BC907AC
:1033100012D04169116000695060D57210E0C81A7E
:1033200000027D2400122403A04205D9180E0006D5
:103330000843906000F032F8F8BD5560002CFBD0D7
:1033400003CA11F0BBF9F8BDB00300203C230020F4
:10335000000010488813000010B50F4C412321686D
:1033600008462030827E5B5C9A4305D1007E0028AF
:1033700002D1086E000E01D0002010BD0EF052FFE9
:103380000128FAD021682031CA7E002AF5D0002019
:10339000C876032010BD0000B003002004490020BF
:1033A00008610448012100686030C1707047000066
:1033B00000001048B003002010B507F071FF10BDE9
:1033C00070B5204900230868436503650F2220304B
:1033D00002750122184692020C680546A418246C56
:1033E000303523540C68A418246C63550C683035B0
:1033F000A418246C63550C68A418256C04469034FA
:10340000401C2B552D28E7DB09688818026C826167
:10341000144630344461903202610B480C46423409
:1034200003800922427105238371C27103724181B5
:1034300000F00CF8FF2020706070A070E0701F207A
:10344000207170BDB0030020C000002010B50648F8
:1034500001680648406A002803D020220EF0B4FE1E
:1034600010BD0020087010BDB00300201C230020F8
:10347000F8B5069C1F4615460646002C17D0E06896
:103480000222C01D06F011FAE81E82B23B46072157
:10349000204606F0DFFC2AB20121204606F0ACFCF3
:1034A000012E06D01D20E16888710020F8BD47205C
:1034B000F8BD1B20F7E770B5154606460CF08EFBED
:1034C0000446082D0BD1052C09D130460BF010F81D
:1034D000002804D0008A4004800F00D00024204639
:1034E00070BD2423184204D0C81F092803D82032F5
:1034F000D171002070476120704770B50E460546B7
:1035000001F030F9040012D0FF21E0684131084297
:103510000DD180040BD4012006F092FB306000280E
:1035200003D02905090D06F08FFC204670BD002050
:1035300070BD0000F1B5FFB001248BB060020490B3
:103540000027BD4806970068BA4DFF304130009013
:103550008A9809AA0005000D04A90AF043FB05900A
:10356000002839D1042009A9049A8B18203BDB7F5D
:103570000B2B03D1521E0492401EF5D1002609A840
:103580008119022201A8039106F08FF9684681880B
:1035900008AB07AA009800F0E9FE01281FD0022816
:1035A00073D068468088854200D30546844200D99E
:1035B0002046044603988078012867D01336049883
:1035C000864200D301270498811B042901D3864237
:1035D000D5D3A5427CD905987FB00CB0F0BD079833
:1035E0000290002FEFD1029902222831039806F0B1
:1035F00058F900281ED102982030017B039880786A
:10360000814217D1012808D102980399022208307B
:10361000C91C06F046F9002814D0039880780228C7
:1036200008D10298039910220830C91C06F039F914
:10363000002807D00298008DA84200D80546A04275
:1036400000D30446039909A88978012905D01336C7
:1036500004998E4203D3012706E0761DF8E781190D
:10366000022201A806F021F90098029B0830864644
:103670002BE09C466846196A8288203310E0888BCC
:10368000904206D3012F02D079E722E0C0E09042B9
:10369000FAD9A84200D80546A04200D304460968DA
:1036A0009942ECD16046036873450ED0188D904264
:1036B00003D3012F09D1904207D9A84200D805466B
:1036C000A04200D30446012FDED17345D1D17AE761
:1036D000A9E007980290002FF9D1029902221C312B
:1036E000039806F0DEF800281ED102982030C17839
:1036F00003988078814217D1012808D10298039954
:1037000002220830C91C06F0CCF8002819D0039812
:103710008078022808D10298039910220830C91C29
:1037200006F0BFF800280CD00298808BA84200D881
:103730000546A04200D3044603988078012823D090
:1037400003E003988078012804D0133606980128F6
:103750001CD01EE0029839490089884214D18A9809
:1037600001F000F80146029800F01EFE02990222C4
:10377000098C48430299896940180399491D06F04C
:1037800094F801200690D7E7761DDFE70020B61CED
:1037900006900498864201D3012705E009A8811903
:1037A000022201A806F081F80298089B016800989F
:1037B0000830844629E09E466846828820330EE021
:1037C000888B904204D3012F00D0D8E69042FCD9D8
:1037D000A84200D80546A04200D304460968994291
:1037E000EED17046036863450FD0188D196A904278
:1037F00003D3012F09D1904207D9A84200D805462A
:10380000A04200D30446012FDFD16345D3D1DAE6CD
:103810000398C078022804D103980079292800D1A0
:10382000B61C761DCBE6224629468A9803F0ECFCAE
:103830000590D1E6FFFF0000B00300200229000040
:1038400070B515460C4606460AF03BFE20346179F9
:10385000012D0AD00A0702D54207920F1DD0CA06D1
:103860001DD502071BD4082070BDCA0702D042072D
:10387000920F12D08A0701D50207F4D5490707D560
:10388000C00725D0E17930460AF0A6FD652821D091
:103890002079C0071AD1022070BD052070BD8906AD
:1038A00007D5C00714D0E17930460AF095FD6528A8
:1038B00010D02079810701D4022D0DD0410701D409
:1038C000042D09D0000701D4082D05D0002070BDBB
:1038D0000F2070BD0C2070BD032070BD1CB50024EE
:1038E000694601200BF0FEFB012832D101AA02201B
:1038F00000990BF0D7FB01282BD101988169097839
:103900008906890F25D000680168009820301EE0E4
:103910000A89114B9A4203D123235B5C012B18D0F7
:103920000D4BFF339A4211D12322525C012A0DD153
:103930008A69537812781B02D21892B2D30701D049
:10394000641CE4B2920701D5641CE4B209688142A8
:10395000DED120461CBD00000328000010B504463F
:10396000406803F0ABFC001D6188C0B2814201D900
:10397000472010BD814201D1002010BD412010BD63
:1039800010B506F0BDFF06F02FF810BD70470021FE
:1039900001E000BF491C8142FBDB704770B588B075
:1039A0000C4605461C2225A16846FCF72BFC092283
:1039B000294BD206002D2DD04020694688735B200C
:1039C00008754C20C87220200872B2204874234D1C
:1039D000A86A2349060C8E4204D14007400E6E4669
:1039E0000B30F075686A050C8D420AD16D46697915
:1039F000CF2529406D46697169798007800E0143A2
:103A000069716846012180B209044018D060D0680D
:103A1000C003FCD4188B0028FCD001201883172089
:103A2000988100201861002C06D0106910210840F0
:103A300013690B408342FBD008B070BD023F000207
:103A40003E30023C20023B4C023A400239B2023482
:103A50005B02350B0000000000001048C00700109A
:103A600055AA000000B585B0032100200DF0A6FA8C
:103A7000010004D012A0FCF7E1FB05F005FF0DF0FA
:103A800085F9010003D01AA0FCF7D8FB02E021A0C1
:103A9000FCF7D4FB04A903A80191009002AB082213
:103AA000002101200CF030FF010004D021A0FCF720
:103AB000C5FB05B000BD28A0FCF7C0FBF9E700007E
:103AC0004572726F7220696E206163695F68616C14
:103AD0005F7365745F74785F706F7765725F6C6534
:103AE00076656C282920307825303478720A0000F9
:103AF0004572726F7220696E206163695F676174DD
:103B0000745F696E697428292030782530347872A2
:103B10000A0000006163695F676174745F696E69C0
:103B2000742829202D2D3E20535543434553530DD2
:103B30000A0000004572726F7220696E206163692D
:103B40005F6761705F696E6974282920307825305D
:103B500034780D0A000000006163695F6761705F7F
:103B6000696E69742829202D2D3E20535543434505
:103B700053530D0A0000000010B50420FDF7ECFFC0
:103B8000002816D0114801794078FDF791FF1049BF
:103B9000FF22D2054860D04201D300204860FCF7E4
:103BA00051FE02460B460BA0FCF748FB0120FDF737
:103BB000AFFE0D4803F094F8002802D10A48FEF742
:103BC000ADFC07F00DF90BF067FF10BD940300206A
:103BD000700300204144432076616C75653A2025CE
:103BE0002E306620560D0A00DC1C0020F1B582B094
:103BF0008B22D200012102A805F0A3FD954C0422DE
:103C00002060432102A805F09CFD032721683F02A4
:103C1000C91908610422432102A805F092FD216818
:103C20000422C9194861FF21843102A805F089FDE9
:103C30002168894DC9198861A97F0C2202A80B311E
:103C400005F07FFD01262168B60289198864A97FE5
:103C5000202202A805F075FD2168102289198863C9
:103C6000A97F02A805F06DFD216828228919C86383
:103C7000062102A805F065FD2168302289194864F3
:103C8000052102A805F05DFD216818228919086444
:103C9000032102A805F055FD216824228919086333
:103CA000032102A805F04DFD2168B210891948636F
:103CB000012102A805F045FD21683822891908650F
:103CC000A97F02A805F03DFD21681C2289194862E0
:103CD000A97F02A805F035FD21687822891988623C
:103CE000A97F02A805F02DFD21680722FF3181314F
:103CF0000866032102A805F024FD21682822FF316F
:103D000081314866012102A805F01BFD2168FF31C1
:103D10008131C866AA8B012102A805F012FD216835
:103D20002822FF3181314861298B02A805F009FD65
:103D300021680822FF318131C860012102A805F005
:103D400000FD2168082289190862A97F02A805F0F0
:103D5000F8FC216808228919096A0860A97F02A86D
:103D600005F0EFFC21681C228919096A48600121CD
:103D700002A805F0E6FC216818228919C8612846C6
:103D800020300090417802A805F0DBFC2168212258
:103D90008919C96948610098417802A805F0D1FCE9
:103DA000216830228919C9698861698B02A805F0E8
:103DB000C8FC21680422FF3181310861A97F02A873
:103DC00005F0BFFC21680222C9194860A97F02A83A
:103DD00005F0B7FC05212268C9015118C865A97F03
:103DE000042202A805F0ADFC05212268C901511882
:103DF0000866A97F012202A805F0A3FC052122681C
:103E0000C90151184866A97F012202A805F099FC52
:103E100005212268C90151188866A97F012202A8DC
:103E2000491C05F08EFC21681022C91908600B217D
:103E300002A805F086FC21680422FF3101310863E5
:103E4000802102A805F07DFC21688919C8620298CA
:103E5000FEBD0000B00300201C230020704710B5F9
:103E6000C001000C00F040FA002010BDFEB572B693
:103E7000444D0823286803270146403042786C46A9
:103E80001A43427000203F020206920D5218D219C6
:103E9000D26952884300401CE2520328F4DB62B628
:103EA00072B6C81900218668816062B6F00702D038
:103EB00000200EF073FFB00702D501200EF06EFF58
:103EC000700702D502200EF069FF300702D50320EB
:103ED0000EF064FF00262DE0E0780C2819D22A4964
:103EE00080000A58211D20469047A1788908C906FC
:103EF0000AD4E178382907D288002349E0390A58E2
:103F0000211D2046904704E0002802D0432808D015
:103F100031E0029829684018C019C06921880180E1
:103F200008E072B62868F7224030417811404170AD
:103F300062B620E0300672006946895A800D029010
:103F40002A688018C019C069028892089200141863
:103F5000028808348A420ED0A27891070BD09107CC
:103F6000890F012901D104460834A178002089086D
:103F7000C906BED5B0E7761C032EDBDB0EF028FDAC
:103F8000FEBD0000B00300209C6F051070B50EF060
:103F900039FD114D032428682402001900694021CD
:103FA0000EF017FA29680919C861486940210EF016
:103FB00010FA296809190862886961100EF009FA77
:103FC0002B680822191948626120C00000211818C6
:103FD00005F06FFC70BD0000B0030020FEB5044684
:103FE0002A48164605680F46FF350846413503F056
:103FF00065F9032806D033460022022104200BF085
:10400000AFF840E0F968022201A8C91D05F04DFC97
:10401000E268900528D468468188172903D35C207C
:10402000405B172801D2172002E0814200D20846E7
:10403000A0700120400202430220E2600090134879
:1040400027880068A478FF300130C079012240073A
:104050000AD5222100980CF08FFB010004D08F803C
:10406000CC8000980CF074FBF16803208871F06834
:10407000294602225C31C01D05F017FC03220121F4
:10408000304605F0B9FE0020FEBD0000B003002060
:10409000F7B5002090B009900D900446049005906B
:1040A00090480F4605680846FF35413503F006F98C
:1040B000022815D12846303003900DF024F8060070
:1040C00013D012981921C0680122817111461298EB
:1040D00005F092FEF868C079002872D001280BD054
:1040E000002218210420129B03E000221821FF2047
:1040F000129B0BF035F8F2E02F6BD5E00897F968CA
:10410000022207A8C91D05F0D0FB1098089F00885F
:1041100039890005000D814203D00998401C09909F
:1041200007E004980028684605D0818B04988142F6
:104130001CD03F6883E0808B049001F063FE010097
:104140000FD005AA04980AF0ADFF012809D11098F4
:104150000222008805990005000D0BF03FFD0028A4
:1041600004D018210E20129B049A3CE008980222E9
:10417000C16802A8093105F098FB089803F09EF881
:10418000401F80B2009005982221095C002906D0CA
:1041900001290BD0002915D0012919D027E0C18BA6
:1041A0006A461289491E914206DB0BE0018C6A4681
:1041B0001289491E91420BDA18210720129B049A9A
:1041C00011E012E06A46128900998918C28B04E056
:1041D0006A46128900998918028C914207D91821E0
:1041E0000D20129B049A0AF0BBFF2C6B74E010990F
:1041F00000F0DAF80E900598028C81690E9842431F
:10420000881869460989009A43180921089805F019
:10421000BEFC05982221095C012904D169460A895E
:1042200000995118C1830D98401C0D903F68089962
:1042300003980CF09BFF0221089805F0AFFD03984E
:10424000874231D10598002829D020308079C007D5
:1042500021D124E00A1B93B2F62B00D9F623E218F1
:104260000A928A4205D201222146D20311438C468A
:1042700000E0A446018C0E9A876951437918091908
:10428000624600920191828B1098018802200CF006
:10429000A1FC0A9884B20598C18BA142DAD800200B
:1042A0002F6B0490044605900998311A0D988142AD
:1042B00000D923E713E010982546008829890005D6
:1042C0002468000D884207D1294603980CF04EFF60
:1042D0000221284605F062FD03988442EBD10020BC
:1042E00013B0F0BDB003002010B50446502803D32E
:1042F000592107480DF0CCFD6006010C05483F220E
:10430000028181611121018000F028F810BD0000B8
:10431000047305100000104070B504460D460B48AC
:104320000B492018884203D99E210A480DF0B0FDA0
:10433000094A3F201081A00890610748403005607D
:104340003320108000F00AF870BD00000000FCEF80
:10435000FF7F020004730510000010400248018A2C
:10436000C907FCD07047000000001040F0B5846819
:10437000083015E0258D8D4203D1146018600120AE
:10438000F0BD25461C602035266A06E0B78B8F42BB
:1043900002D102201660F0BD3668AE42F6D1246824
:1043A0008442E7D10020F0BD30B5024623239B5C58
:1043B0000020012B1BD112890D4B9A4217D10D4AB7
:1043C000012312689B02D318A0329B6A127A0BE079
:1043D0000C8825051C2444431C5B2D0D2405240D4D
:1043E000A54204D0401CC0B28242F1D8002030BDAA
:1043F00002290000B0030020F7B588B00020029029
:10440000A3480F4604680846FF34413402F056FFC3
:10441000072804D20022062104200A9B2DE0F96817
:10442000022201A8C91D05F040FAF9680222684677
:10443000093105F03AFAF968022204A80B3105F0B7
:1044400034FA384602F03AFFC01F80B20390684643
:104450008288008882420DD8002A0BD0089801215A
:1044600082780A98121D05F0A9FB002808D0452083
:104470000BB0F0BD062101200A9B0AF071FE8AE014
:10448000083468460594808801F0BCFC04007DD0A7
:104490006946208D898888421BD3694609888842ED
:1044A00017D86946608D098A88420DD10398022881
:1044B00001D0102808D1034621460B220831384686
:1044C00005F036FC002817D06946208D09888842FF
:1044D00050D06846008A0521C902884202D0491C92
:1044E00088425AD124680598844243D06846218D79
:1044F00000888142CCD93DE00298002805D10A9974
:104500000720C96888710120029008988178029874
:10451000081A04282EDB2346029928331E4602225D
:10452000091D0A9805F096FC0298216A801CC5B204
:1045300020462030814205D0636A0222291D1C33A7
:104540000A9803E033460222291D0A9805F082FCEE
:10455000AD1CE8B20290089881780298081A0428E5
:1045600008DB24680598844204D06946208D0988B8
:1045700088428DD90298002808D0024601210A9865
:1045800005F03AFC08980088010500E079E0090D83
:104590000A9805F059FC00206AE72646256A20366D
:1045A000B5426BD1DDE76946A88B8988884264D320
:1045B000694609888842DDD82320405D01285CD106
:1045C00028460899FFF7F0FE069069462889098A6F
:1045D000884252D108980122008829460005000D22
:1045E0000BF0FCFA002848D1E98B0398814244D1B2
:1045F000288C0699AA69484311180B223846039B58
:1046000005F096FB002838D10298002805D10A99B8
:104610000720C96888710120029008988178029863
:10462000081A0428A6DB02992B461C330222091D16
:104630000A9805F00FFC02981649801CC0B202903F
:104640002889884207D12868B04204D0008988426E
:1046500001D02D68F7E702992B461C330222091D71
:104660000A9805F0F7FB0298801CC0B202900898E7
:1046700081780298081A0428D4DB2D68B54292D1BB
:104680006FE76846828806210A200A9BF5E600004B
:10469000B003002003280000F7B584B009F06AFADF
:1046A00084B20020694608720546059800680390A8
:1046B00002F024FB064633E06846017A6D1CFF29B0
:1046C00034D0FE2904D0002902D0492007B0F0BD23
:1046D000234AA000801800686B46070A1F70070C69
:1046E0005F70000E9870641CA0B283009B181C6859
:1046F0006B46DC70270A1F71240C5C71401C84B26D
:10470000A00080180768FE2906D1062218460499E1
:1047100005F0C7F800280BD0B8080019401C84B277
:1047200002A9204608F02CFEB542C5D35C20CDE797
:104730000398874201D91F20C8E705980025084E35
:10474000076009E0641CA4B2A00080190168069803
:1047500040190AF0BDF92D1DBD42F3D30020B5E785
:104760000000041010B50E4900050B6801218902F4
:1047700059188A6A0021000DA0331B7A0CE01C2412
:104780004C43145B2405240D844203D11C20414377
:10479000881810BD491CC9B28B42F0D8002010BD4A
:1047A000B0030020FFB589B00024154610460594DB
:1047B00002F084FD052804D00022042108460C9B49
:1047C00021E0E968022207A8C91D05F06EF8E96832
:1047D00002226846093105F068F86846828B008835
:1047E00082420DD8002A0BD00A98012182780C98B9
:1047F000121D05F0E3F9002808D01F200DB0F0BD10
:10480000042101200C9B0AF0ABFCBCE06846808BC5
:1048100001F0F8FA060073D06946308D898B884222
:1048200033D36946098888422FD8002C0AD1012049
:104830000C990590C968052088710C990598C9687C
:104840000224C8710A988078001B04287EDB059832
:1048500001287BD10C980222C168A01D081831469E
:10486000283105F022F80C98A41CE4B2C168A01D00
:104870000818314602222A3105F017F86946A41CAF
:10488000308D0988E4B288426FD03746356A2037C8
:10489000BD4262D163E06946A88B898B88425BD3B5
:1048A00069460988884260D8002C35D02320415DB4
:1048B000059881425BD10A988078001B042802DBAE
:1048C0000599012904D0122851DB059802284ED100
:1048D0000C980222C168A01D081829461C3104F05A
:1048E000E4FFA41C0598E4B201280AD02B46083343
:1048F0001022211D0C9805F0ADFA1034E4B22BE023
:104900004DE00C980222C168A01D08182946083104
:1049100004F0CBFFA41CF1E72320405D0C99059027
:10492000C968052088710C990598C9680222C87168
:104930000C982946C0681C31083004F0B6FF059871
:10494000012822D02B460833102200E00DE0082178
:104950000C9805F07FFA14242D68BD429BD109986C
:1049600036680830864200D056E7002C17D0224621
:1049700001210C9805F040FA0A9800880105090DFC
:104980000C9805F061FA002038E70C982946C068B9
:10499000022208310A3004F088FF0624DCE768466A
:1049A000828B04210A200C9B2DE7000030B50C49B6
:1049B0000246096803231B0212050020120DCB18C2
:1049C000A031097A09E05C6885006419248824050F
:1049D000240D944203D0401CC0B28142F3D830BDB4
:1049E000B003002030B502460B48032300681B02C9
:1049F0000021C318A030047A09E058688D004019DE
:104A000005882D052D0D954204D0491CC9B28C4254
:104A1000F3D8002030BD0000B0030020830810B59B
:104A20000B4800210268012080021018A032806A21
:104A3000127A08E01C244C43045B002C01D09942FC
:104A400004D0491CC9B28A42F4D8002010BD00002D
:104A5000B0030020F7B598B016465E2509F048FD72
:104A6000040057D0E07BC00723D06D20005D810992
:104A700003291ED081091CD0400617D526480521E0
:104A80000068C9014018008A694685B20020087094
:104A9000284608F075FC08AF02376834684600788D
:104AA000FE280AD0FF2801D0002812D047201BB0D2
:104AB000F0BD06222146683117E001A9284608F01A
:104AC0000BFD002805D13946204609F09DFE00283F
:104AD00008D002F015F9401985B26946284608F059
:104AE0004FFCDBE7062210A9023115A804F0DDFE19
:104AF000324615A819990BF0A7F805465D2809D18B
:104B000072B608F035FE62B6324615A819990BF058
:104B10009BF805462846CAE7B003002070B50C464E
:104B20000B4E81000B4832680D180123203253765A
:104B300021462846FFF7F0FB28680021844201D176
:104B4000084600E04A2032682032517670BD0000ED
:104B5000B00300200000041038B516490C68214647
:104B6000B631AA34A278D20703D0E27880231A4360
:104B7000E270A27852071BD52279520705D5E27A56
:104B8000002A02D10122E272488020794106090FF1
:104B90000ED07821084069460870002048706A46A7
:104BA000022142200BF09EFF2079872108402071CE
:104BB00038BD0000B003002038B51048002104685B
:104BC0000846AA3402F07EFF694648702079C10782
:104BD00004D001216A46117088432071C0B2810758
:104BE00005D502216A461170FD210840207102217D
:104BF0006A4608460BF076FF38BD0000B00300207F
:104C0000FFB50C4676A003C895B001910090032132
:104C1000C9026846C185012108A8734E0173356831
:104C20001746AA3502F05AFA002808D13068FF303A
:104C30000B3002F06DF8A878002802D00C2019B0D3
:104C4000F0BD159807220607360F012C05D0022C5F
:104C500006D0002C17D04220F1E71020064312E0C6
:104C6000E120800003F038FA60A103C9129013918B
:104C700012A80EF0D7FB012003F07EFA00287DD1A8
:104C800020200643092201230BA9284600F0C8FF73
:104C90000028F4D102222946189804F006FE29883B
:104CA0006846018115214902818187830121817232
:104CB0004E2282770024C47708A801700722427030
:104CC000817002A90AA800F06BFD002856D10222CB
:104CD0000AA91E9804F0E9FD082F02D26846C7848D
:104CE00002E008206946C88469468C840B462888FF
:104CF00009AA098D01F0FAFD00286BD13D496846EB
:104D000081810227878308A8847002A90AA800F07D
:104D100047FD00285ED102220AA91F9804F0C5FDB4
:104D2000684604704470C7846B46288809AA198DA8
:104D300001F0DCFD00284DD1F00725D02D49684653
:104D4000C91C818108218183877708A8047002A982
:104D50000AA800F025FD00283CD1FF216846C1715A
:104D60008171C17081704170017044710471694634
:104D70000820C88428880B4609AA00E02AE0098D8B
:104D800001F0B4FD002825D1B00625D52988684654
:104D900001811849A5318181012181838172877741
:104DA000C47708A8047007214170847002A90AA87A
:104DB00000F0F6FC00280DD16846012101708484C2
:104DC000C1842C880346018D09AA204601F08EFD7E
:104DD000002801D0472032E7AE7000202FE7000006
:104DE000626C75656E726721B00300201F020000BF
:104DF00000000000012A0000034800210068AA30DA
:104E0000C170817070470000B003002070B50C4B7A
:104E10001C68AA342379DD0611D45B070FD531282D
:104E20000DD1E07A02280AD10420107000205070C1
:104E300002200BF057FE2079FB210840207170BD45
:104E4000B0030020024610B5144801240068AA30BF
:104E5000022A19D0052A03D0072A05D00A2A1AD116
:104E60004888FFF779FE16E000790024020600D595
:104E70000124820703D1C20601D480060BD508465F
:104E800000F070F8044606E08178490703D50179FF
:104E9000FB2211400171204610BD0000B00300202C
:104EA00010B509480468AA34E07880070BD50020C3
:104EB00002F022FD02200BF061FDE07801210843A1
:104EC000FD210840E07010BDB00300200FB470B5A4
:104ED000099D012842D16846848A2148844210D124
:104EE00005AC0FCC00F0DEF9002832D108F04EFE00
:104EF000492833D0012831D92878F3210840287077
:104F00002CE01748401C844205D105AD0FCD00F0C0
:104F1000C9F900281DD115204002844205D105ADF4
:104F20000FCD00F0BFF9002813D10D48401E844278
:104F300005D105AD0FCD00F0B5F9002809D108481D
:104F4000801C84420AD105AC0FCC00F0ABF90028DC
:104F500004D0662070BC08BC04B018470020F9E7F4
:104F6000022A000008B500216A46117069460BF05C
:104F700005F908BDFFB507468FB0002004906D48C5
:104F80000D4604681E46AA34A178C80602D5E0780A
:104F9000C00679D4880607D5E0788006800F03D054
:104FA000022F01D0002E6FD08806800F06D0022F6E
:104FB00008D0032F06D0002E66D003E0012F01D0C9
:104FC000002FF8D1880603D4002D01D0012D5BD12C
:104FD000002E06D130200140384602F089FB00281F
:104FE00052D1119900200870A0788006800F7DD0E2
:104FF0000DA909A802F0D8FE08900EA90BA802F08E
:1050000069FF07900898002802D00798002801D16E
:10501000012E51D1022F05A807D001F01DFE002E50
:1050200035D00898002803D011E009F023FAF6E7FC
:10503000404F0622386809A9FF300B3004F031FCDC
:1050400000283868416D06D0490849004165079835
:10505000002803D011E001221143F7E7354F062263
:1050600038680BA9FF300B3004F01BFC022100282C
:105070003868426D09D08A4342650898002806D0F6
:105080000798002803D017E040E00A43F4E72948D6
:105090000622006805A9FF300B3004F006FC05204D
:1050A00069460873002E02D108460AF053FB2248D5
:1050B000029068460AF004FBA07880060FD511988C
:1050C000032101702079C10603D5002D01D0022DE6
:1050D0001CD1800603D5012D01D0032D16D1A07857
:1050E000C00625D511990120087000E011E0207953
:1050F000C10601D5002D09D1810601D5012D05D1AB
:10510000000615D5002D13D0012D11D0422013B06B
:10511000F0BD012F0CD1002E0AD1064806220068EE
:10512000611DFF300B3004F0C0FB119901200870A5
:105130000498ECE7B0030020A0BB0D003EB50DF0D5
:1051400073F904460DF008FA002C01DA002813DB8D
:105150000A48062201686846FF310B3104F0A5FBBE
:1051600068464079400601D5022000E00320012373
:1051700002AA0021FFF7FEFE3EBD0000B0030020A2
:1051800030B519488BB000680446AA340546E0786B
:10519000B635010612D5A178C9070CD0800708D50D
:1051A00004206946087368460AF0D4FA02200BF01E
:1051B000E5FB0020E0704006400EE07020794007DB
:1051C0000FD5E07A01280CD1152149026846C18229
:1051D00001210175688805AB044A00F03BFF0220FD
:1051E000E0720BB030BD0000B0030020FFFF0000F4
:1051F000F0B58DB00C4616A9E0C9002108910991BF
:105200000A910B911599049105A9E0C112A962C9EF
:105210000093019113460146039602952246012010
:105220000BF068F80DB0F0BD0949AE2209681423EF
:10523000525CB6311A4208D0498800050905090DAB
:10524000000D814201D1012070470020704700000D
:10525000B0030020C2688A43C260704710B504469C
:10526000022000F03DF80E48012100688902411833
:105270008A6A0021A030007A06E01C234B43D35AEF
:10528000002B04D0491CC9B28842F6D810BD1C209E
:10529000414354528818042100F02CF810BD00003E
:1052A000B00300201FB582B0002401F01FFD694645
:1052B00009F018FF00986A46016A1289203009E057
:1052C00023235B5C012B04D10B89934201D1641C25
:1052D000E4B209688142F3D1204606B010BD000057
:1052E00003490968FF3181310A7A02430A72704723
:1052F000B0030020C2680A43C260704700B511388D
:10530000C0B2FFF78BFB002804D00122C168520510
:105310001143C16000BD000010B50446800104D1F6
:10532000FF21C13104480CF0B3FD01208007816AE0
:105330002143816210BD00004873051070B504461A
:105340000D46800104D1FF21AC3106480CF0A0FDD0
:1053500001208007C169002D01D0214300E0A14355
:10536000C16170BD4873051010B504460068800126
:1053700004D1FF217F311D480CF08AFD60680028B0
:1053800006D0012804D0FF21803118480CF080FDA0
:10539000A068002808D0012806D0022804D0FF21E8
:1053A000813112480CF074FD0120616880070129E9
:1053B000016922680BD091430161A168012908D0DD
:1053C00000290AD0416922681143416110BD11438F
:1053D000F2E781692268114302E081692268914302
:1053E0008161416922689143EFE70000487305102D
:1053F00010B5044601284AD0022C48D0042C46D0CF
:10540000082C44D0102C42D0202C40D0402C3ED030
:10541000802C3CD0E01FF93839D0E01FFF38FA3833
:1054200035D001208002844231D0400084422ED009
:10543000400084422BD04000844228D04000844267
:1054400025D04000844222D0400084421FD040003A
:1054500084421CD04000844219D04000844216D0BF
:105460004000844213D04000844210D04000844267
:105470000DD0400084420AD04000844207D0400052
:10548000844204D0FF21D23104480CF001FD0120F8
:105490008007406A204000D0012010BD48730510ED
:1054A00010B509F079FB094C800000198038C06FF5
:1054B000FFF79EFF012807D109F06EFB800000195D
:1054C0008038C06FFFF728FF10BD0000806E051008
:1054D00070B504460068800103D1792140480CF082
:1054E000D7FC207900280BD0062809D0012807D046
:1054F000042805D0052803D07A2139480CF0C8FCCF
:10550000A079002805D0012803D07B2134480CF075
:10551000BFFC6079002805D0012803D07C213048E9
:105520000CF0B6FC2088C00406D52079062803D1EB
:105530007F212B480CF0ACFC2088800406D5207914
:10554000062803D1802126480CF0A2FC20790122F4
:105550009207002802D0062804D009E0506821688C
:10556000884304E00020207150682168084350609F
:1055700000200F262168C140C907C90F19D008288B
:1055800009D2D36A810035468D40AB4325798D40E1
:105590002B43D3620DE001460839082909D2810066
:1055A00035462039136B8D40AB4325798D402B4315
:1055B0001363401CC0B21A28DCD360790128D0687C
:1055C000216809D08843D060A079012890682168BB
:1055D00004D08843906070BD0843F4E70843F9E7BE
:1055E0004873051010B50446800104D1FF213B31FA
:1055F00002480CF04DFC0248046010BD48730510D1
:105600004000004010B50446800104D1FF212B3139
:1056100003480CF03DFC01208007C46310BD00006E
:10562000487305100021016001718171417170475B
:1056300003480068AA3080788006800F7047000019
:10564000B0030020F3B599B008880A90081D1DC862
:105650004E880DAD1DC58C8ACD8A087E1890C8690C
:105660002031039008780290487807908878069057
:10567000C87805900F7900F097FD002817D1012018
:10568000400284425DD8AC425BD8002F01D1AC42CD
:1056900057D113A90A9809F025FD012806D117AAA8
:1056A0003046139909F0FEFC012802D060201BB09F
:1056B000F0BD139E14A93046183003F0FFFF149874
:1056C00000280FD0304616A9203003F0F7FF169BB4
:1056D000149A308D716AD21880188A8B904203D147
:1056E0006220E4E71F20E2E717982C4B02899A42D8
:1056F00027D12322125C012A23D10068006815906B
:10570000189801281FD16846808E29221202801A1B
:1057100003000AF07DFD0604180404070A18022C91
:105720000FD110E0072C0CD10DE0042C09D3E007B9
:1057300007D1012F07D1A54203D3042D01D3E807D8
:1057400001D06120B3E7069B0598079A0B900C9750
:105750000992039A02980A93089006950594079275
:105760000DA81DC8019002A81CC018980B460090F7
:1057700032461599199800F0ABF9002897D1684680
:105780000649808EFF31884205D019980188002093
:105790000A4601F039FD002089E7000003280000D7
:1057A000F3B5A5B008881A9088780C460E901022A0
:1057B000091D10A8FAF7D1FEA08A0D90A17D6846B8
:1057C0000172E07D1490207E2090677EA07E1F9065
:1057D0000020064601460F9020A801810F20B94CF9
:1057E00023902068FF304130199000F0DDFC002844
:1057F0000BD101210D98490288425CD821A91A9841
:1058000009F070FC012802D0602027B0F0BD21987B
:10581000169001F06BFA1A9988420CD102A80190F7
:105820001398009010AD0ECD0E98FFF74FFB002897
:1058300001D06620E9E76846017A8806800F05D026
:1058400001200F902068A030007A4600C80703D0DE
:105850000F98401CB61C0F90080603D50F98401CEB
:10586000B61C0F90169815A918301D9003F026FF4E
:105870000F9C1598A41CA04235D3169818A9203067
:105880001C9003F01BFF189900290CD01698169A4B
:10589000406A159B128D5918808B5118081AA04226
:1058A00001D26220B1E7169884690E982568012814
:1058B00003D0022803D06120A7E7052000E01320D1
:1058C000E0832A4639461498FDF70BFE61289CD0E8
:1058D000199FE28B4037788B398B411A0D9810183D
:1058E0008019814201DA1F208FE718A91C9803F064
:1058F000E5FE18980028169802D0406A808B00E0D8
:10590000008D2599401C0880259801210088A083DE
:10591000259802220088401CA8836B4820812046DD
:1059200020301690C1700021817081711998398BD7
:10593000406D40186946A061097A0170A069294646
:105940001C31401C03F0B1FF0E980128A0697DD0E6
:10595000102210A9C01C03F0A8FF2846102210A98D
:10596000083003F0A2FF388B133038832E462036E0
:105970000E98F0700D98E8831F98B0700D982084F1
:105980000D9828841998398B406D4018A861002122
:105990000D9A03F08EFF398B0D98081838831699ED
:1059A0000120087116990020487130716846007A0C
:1059B000810701D50121317101070227002902DA8F
:1059C000317939433171410703D5317904221143CB
:1059D0003171400603D5307908210843307114989D
:1059E00070712098B07121461D9803F096FE2146F3
:1059F0001C9803F073FE29461D9803F08EFE29467D
:105A00001C9803F06BFE0F98002841D068461A9945
:105A10008181A18BC18107844784012408A8047176
:105A200022A80A9008A884732399417314993820F6
:105A3000014008A801730721C17300250574684659
:105A4000007AC00708D02148694600E02BE00882B0
:105A500003A924A8FFF7F6FD6846007A8006800FA8
:105A600007D01A486946401E088203A924A8FFF7F8
:105A7000E9FD6846007A00060AD529210902684630
:105A8000018208A84473057303A924A8FFF7DAFD6F
:105A9000259801880F98401C081882B2002001F058
:105AA000B3FB0020B1E6022210A9C01C03F0FDFEEA
:105AB0002846022210A9083003F0F7FE388B401D5B
:105AC00053E70000B0030020032800000329000072
:105AD000FFB5514887B0036810AA1846FF3041301F
