:020000041004E6
:1000000000600020B10604106306041055060410B9
:10001000AA5555AA45554C420000000000000000BA
:100020000000000000000000000000008D09041026
:100030000000000000000000AD060410310A0410AA
:100040008D040410A9060410000000000000000048
:10005000ED0A041079070410A3030410EF0A04103A
:100060000000000000000000000000000000000090
:1000700000000000A10304105906041057060410E4
:10008000000000005B0604105D0604105F0604100B
:1000900061060410D1060410AB060410A503041079
:1000A0000000000000000000000000000000000050
:1000B0000000000000000000000000000000000040
:1000C00000F002F800F066F80CA030C808382418D8
:1000D0002D18A246671EAB4654465D46AC4201D180
:1000E00000F058F87E460F3E0FCCB646012633424C
:1000F00000D0FB1AA246AB46334318476C0B0000F6
:10010000CC0B0000103A02D378C878C1FAD8520755
:1001100001D330C830C101D504680C6070470000BD
:10012000F0B543464C4655465E466746F8B4104C1B
:100130006B4623600F4C20680F4C20600F4C2068EA
:100140000F4C20600F4C20680F4C2060BFF34F8F86
:1001500030BF074C2468A546F8BC9846A146AA467D
:10016000B346BC46F0BD00BF30BF00BF70470000C3
:100170000800002004ED00E0D002002024ED00E0A3
:10018000D402002000E200E0D80200201FB51FBD0D
:1001900010B510BD03488546FFF7F8FF00F0C1FC1D
:1001A00000F0D1F80060002003B4FFF7F1FF03BCBA
:1001B00000F0D2F870B505460C46164602E00FCCAA
:1001C0000FC5103E102EFAD2082E02D303CC03C561
:1001D000083E042E07D301CC01C5361F03E0217869
:1001E0002970641C6D1C761EF9D270BD00220309B3
:1001F0008B422CD3030A8B4211D300239C464EE042
:1002000003460B433CD4002243088B4231D30309FD
:100210008B421CD3030A8B4201D394463FE0C309AF
:100220008B4201D3CB01C01A524183098B4201D3C7
:100230008B01C01A524143098B4201D34B01C01AB2
:10024000524103098B4201D30B01C01A5241C3082A
:100250008B4201D3CB00C01A524183088B4201D399
:100260008B00C01A524143088B4201D34B00C01A85
:100270005241411A00D201465241104670475DE09A
:10028000CA0F00D04942031000D34042534000221D
:100290009C4603098B422DD3030A8B4212D3FC22C6
:1002A000890112BA030A8B420CD3890192118B4245
:1002B00008D3890192118B4204D389013AD092115B
:1002C00000E08909C3098B4201D3CB01C01A524116
:1002D00083098B4201D38B01C01A524143098B42DF
:1002E00001D34B01C01A524103098B4201D30B01C8
:1002F000C01A5241C3088B4201D3CB00C01A5241ED
:1003000083088B4201D38B00C01A5241D9D24308D3
:100310008B4201D34B00C01A5241411A00D2014610
:10032000634652415B10104601D34042002B00D57A
:100330004942704763465B1000D3404201B500203C
:10034000C046C04602BD10B50446C046C046204661
:10035000FFF72AFF10BD000001491820ABBEFEE7E1
:1003600026000200704730B58C180278401C130735
:100370001B0F01D10378401C120906D10278401CE2
:1003800003E00578401C0D70491C5B1EF9D101E0AB
:100390000B70491C521EFBD1A142E6D3002030BD98
:1003A0007047704770470000F3B587B004461C22C1
:1003B0002AA16846FFF7FEFE092101232E4AC9063D
:1003C000002C32D044206D46A8732C48057A1D437A
:1003D00005725B206D4628754C20E872202028723B
:1003E000B2206874264DA86A264E070CB74204D185
:1003F0004007400E6F460B30F875686A050CB54231
:100400000AD16E467579CF2635406E46757175797D
:100410008007800E054375716846012580B22D0462
:100420004019C860C868C003FCD4108B0028FCD0F9
:10043000138317209081002010610898002806D0AF
:100440000869102210400B6913408342FBD0002C36
:1004500002D00D491520087009B0F0BD023F00021E
:100460003E30023C20023B4C023A400239B2023498
:100470005B02350B00000000000010480000204027
:10048000C007001055AA00000000C04070470000DF
:1004900070B504460068800103D17921404800F01E
:1004A0003FFB207900280BD0062809D0012807D06F
:1004B000042805D0052803D07A21394800F030FB04
:1004C000A079002805D0012803D07B21344800F012
:1004D00027FB6079002805D0012803D07C21304813
:1004E00000F01EFB2088C00406D52079062803D121
:1004F0007F212B4800F014FB2088800406D520794A
:10050000062803D18021264800F00AFB2079012229
:100510009207002802D0062804D009E0506821681C
:10052000884304E00020207150682168084350602F
:1005300000200F262168C140C907C90F19D008281B
:1005400009D2D36A810035468D40AB4325798D4071
:100550002B43D3620DE001460839082909D28100F6
:1005600035462039136B8D40AB4325798D402B43A5
:100570001363401CC0B21A28DCD360790128D0680C
:10058000216809D08843D060A0790128906821684B
:1005900004D08843906070BD0843F4E70843F9E74E
:1005A000940B041000210160017181714171704749
:1005B00010B50446800104D1FF216331044800F0E6
:1005C000AFFA0120800701686140016010BD0000A2
:1005D000940B041070B504460D46800104D1FF2130
:1005E0004D31094800F09CFA002D06D0012D07D0AE
:1005F000FF214E31044800F093FA0448046070BDB6
:1006000001208007C46370BD940B041040000040BB
:1006100010B50F4C002803D0012809D002280FD0B4
:1006200000F0B6F90C21484300198038406F10BD26
:1006300000F0AEF90C21484300198038806F10BDDE
:1006400000F0A6F90C21484300198038C06F10BD96
:10065000700B0410FEE77047704770477047704793
:10066000704770478307FF22DB0E9A408907090E07
:10067000994000280BDA0007000F08388308084863
:100680009B001818C36993430B43C36170478308E9
:1006900004489B001818036893430B43036070479A
:1006A00000ED00E000E400E0704770477047000094
:1006B00010B500F01DFA012805D0044880F3088821
:1006C00000F02FFA10BDFFF7FBFC10BD006000200A
:1006D0007047000010B5044C00E0A068042000F052
:1006E0002FF80128F9D010BD0000404008480178DB
:1006F0000222114301700649803900E0C2680A7B7A
:10070000D207FBD00178FD22114001707047000034
:100710008000404070B5084C0225002808D0012810
:1007200003D0D121054800F0FBF96068284301E0BF
:100730006068A843606070BD00004040DC0B04109E
:1007400010B5044601280CD0022C0AD0042C08D085
:10075000082C06D0102C04D0FF218631044800F06C
:10076000DFF90448007B204000D0012010BD0000CC
:10077000DC0B0410000040407047000010B5044638
:100780000078002805D0012803D09B21204800F0E4
:10079000C7F96078202803D39C211D4800F0C0F9D8
:1007A000A078002805D0012803D09D21184800F02A
:1007B000B7F9E078002805D0012803D09E2114481D
:1007C00000F0AEF9606800F02DF81248416804228C
:1007D00091432278D207520F1143416001684022B1
:1007E0009143A278D207520E114301600168802222
:1007F0009143E278D207120E1143016001686278DA
:1008000049094901D206D20E1143016010BD000012
:10081000DC0B041000004040014880687047000075
:100820000000404070B506461248134901250224D5
:100830003018884203D96121104800F071F9710025
:100840000F48FFF7D3FC0F4A411E914203D906E03F
:1008500061060C0E4008FF28FAD8401EC5B20A48AF
:1008600004740168FF22120291432A0211430160BD
:1008700070BD0000F0D8FFFFF0EA7900DC0B041037
:100880000024F400FFFD0000000040407FB501217E
:10089000112000F0ADF86846FFF784FE00F078F80C
:1008A0002D49800040188038C06F009000F070F82B
:1008B0002A49800040188038C06F694608710124B9
:1008C0008C7100254D716846FFF7E2FD00F060F87D
:1008D0002349800040188038C06F009000F058F81D
:1008E0002049800040188038C06F6946087168460A
:1008F000FFF7CEFD00F04CF81B498000401880380F
:10090000C06F009000F044F818498000401880380B
:10091000C06F694608716846FFF7BAFDE0020090B3
:100920000420694608716846FFF7B2FD02A800F08E
:1009300021F869460C72072048728D72CC720C48FF
:10094000039002A8FFF71AFFFFF7D0FEFFF7C2FEE1
:100950000120FFF7DFFE7FBD7C0B0410800B04102D
:10096000840B0410880B04108C0B0410900B0410E3
:1009700040420F0001210170072141700021817068
:10098000C17001494160704740420F00704700004C
:100990000148007870470000CC0200200149012086
:1009A00008707047CC0200201CB50446012108469F
:1009B00000F01EF82046FFF72BFE00900620694647
:1009C00008710120887148716846FFF761FD204673
:1009D00000F001F81CBD10B5FFF71AFE0021FFF76B
:1009E000F9FD10BD10B5FFF713FEFFF7E1FD10BDD7
:1009F00070B50D460B490446084203D188210A48C8
:100A000000F08EF8094E002D05D0012D07D0892168
:100A1000054800F085F8306AA043306270BD306A46
:100A20002043FAE79F3F0F00200C04100000904085
:100A30007047000010B52A49082088800321481F0C
:100A4000FFF710FE0321081FFFF70CFE0321002013
:100A5000FFF708FE03210120FFF704FE0321042015
:100A6000FFF700FE03210520FFF7FCFD0021062013
:100A7000FFF7F8FD03210720FFF7F4FD03210D2008
:100A8000FFF7F0FD03210E20FFF7ECFD03210F20FF
:100A9000FFF7E8FD03211120FFF7E4FD03211220F9
:100AA000FFF7E0FD03211320FFF7DCFD03211420F5
:100AB000FFF7D8FD03211520FFF7D4FD03211620F1
:100AC000FFF7D0FD03211720FFF7CCFD01210846D9
:100AD000FFF76AFC04490348086262B610BD0000D3
:100AE0000000104066000E00000090407047704704
:100AF00010B50848007A002809D107480089052860
:100B000005D9064901200870FFF723FBFEE7012005
:100B100010BD000000009040000010480C000020B4
:100B2000FEE7FFF787FFFFF739FF0020FFF73CFFE5
:100B30000120FFF739FF0220FFF736FFFFF7A6FE7F
:100B400000F000F80420FFF7FBFD0028FAD0FFF7C3
:100B500063FEC0B2312807D0322807D03328F1D144
:100B60000220FFF73FFFEDE70020FAE70120F8E75A
:100B70004000000008000000000200000400000027
:100B80000400000008000000040000000100000054
:100B9000040000002E2E5C2E2E5C2E2E5C2E2E5C71
:100BA0002E2E5C2E2E5C4C6962726172795C426CF6
:100BB00075654E5247315F5065726970685F447267
:100BC000697665725C7372635C426C75654E524700
:100BD000315F6770696F2E63000000002E2E5C2E5F
:100BE0002E5C2E2E5C2E2E5C2E2E5C2E2E5C4C69E6
:100BF00062726172795C426C75654E5247315F502A
:100C000065726970685F4472697665725C7372635D
:100C10005C426C75654E5247315F7370692E63009C
:100C20002E2E5C2E2E5C2E2E5C2E2E5C2E2E5C2EFE
:100C30002E5C4C6962726172795C426C75654E52D1
:100C400047315F5065726970685F4472697665729A
:100C50005C7372635C426C75654E5247315F7379A9
:100C6000734374726C2E6300C80C041008000020DB
:100C70000400000004010410CC0C04100C0000203F
:100C80000400000004010410D00C04101000002027
:100C90000400000004010410D40C041030000020F3
:100CA0000400000004010410D80C0410C00000204F
:100CB0000C02000066030410E00C0410CC020020BB
:100CC00010000000040104100000000000000000FB
:100CD000000004100000000001FF01FF01110000EE
:100CE0000000000000000000000000000000000004
:04000005100400C122
:00000001FF
