:020000041004E6
:1000000000600020FD190410AF190410A11904109C
:10001000AA5555AA45554C420000000000000000BA
:10002000000000000000000000000000211A041081
:100030000000000000000000F9190410811B0410EA
:10004000A1180410F51904100000000000000000C1
:10005000811C04101F1A0410D5170410D51D04109C
:100060000000000000000000000000000000000090
:100070000000000061170410A5190410A319041052
:1000800000000000A7190410A9190410AB190410EE
:10009000AD1904101D1A0410F7190410D717041015
:1000A0000000000000000000000000000000000050
:1000B0000000000000000000000000000000000040
:1000C00000F002F800F084F80CA030C808382418BA
:1000D0002D18A246671EAB4654465D46AC4201D180
:1000E00000F076F87E460F3E0FCCB646012633422E
:1000F00000D0FB1AA246AB4633431847A4210000A8
:1001000014220000103A02D378C878C1FAD85207F6
:1001100001D330C830C101D504680C6070470000BD
:100120000023002400250026103A01D378C1FBD813
:10013000520700D330C100D50B607047F0B543467D
:100140004C4655465E466746F8B4104C6B462360F5
:100150000F4C20680F4C20600F4C20680F4C206023
:100160000F4C20680F4C2060BFF34F8F30BF074CFF
:100170002468A546F8BC9846A146AA46B346BC46A4
:10018000F0BD00BF30BF00BF704700000800002076
:1001900004ED00E0D402002024ED00E0D8020020AD
:1001A00000E200E0DC02002010B5662902D101F077
:1001B000F7FF10BD002010BD1FB500F0C3FD040007
:1001C0000020002101F0C4FEE0601FBD10B510BD8D
:1001D00003488546FFF7F0FF01F052FE01F030F9C9
:1001E0000060002003B4FFF7F1FF03BC01F074F9D5
:1001F00070B505460C46164602E00FCC0FC5103E02
:10020000102EFAD2082E02D303CC03C5083E042ECA
:1002100007D301CC01C5361F03E021782970641C87
:100220006D1C761EF9D270BD0FB4054910B503AA36
:10023000029800F073FD10BC08BC04B01847000021
:10024000CC020020F3B50446002081B02062204695
:10025000E168884700287AD0252802D06268A16822
:1002600071E0E16820460025884706460020E061ED
:100270000746A0612A2E0AD0304601F0F3FD00287F
:1002800027D0B8000019303E0090866119E002982E
:10029000BA00121902C8916102902046E1688847AD
:1002A000012F064617D1E06900281FDA2020854378
:1002B0001CE000980A218069484300998019303871
:1002C00088612046E1688847064601F0CBFD00289A
:1002D000EFD1012F0AD02E2E08D12046E1688847A1
:1002E0000646202005437F1C022FC3DBA06900289F
:1002F00003DA4042A06101200543E80701D0102045
:100300008543002E23D030464138192803D80120D8
:10031000C00205432036204625603146029A154624
:10032000FFF742FF00280BD0012806D0ED1DE8089A
:10033000C000083002908AE709E02D1D029586E78B
:1003400062683046A1689047206A401C7EE7206AB8
:10035000FEBD002203098B422CD3030A8B4211D32A
:1003600000239C464EE003460B433CD40022430846
:100370008B4231D303098B421CD3030A8B4201D336
:1003800094463FE0C3098B4201D3CB01C01A5241CE
:1003900083098B4201D38B01C01A524143098B421E
:1003A00001D34B01C01A524103098B4201D30B0107
:1003B000C01A5241C3088B4201D3CB00C01A52412C
:1003C00083088B4201D38B00C01A524143088B42F1
:1003D00001D34B00C01A5241411A00D2014652418A
:1003E000104670475DE0CA0F00D04942031000D3A9
:1003F0004042534000229C4603098B422DD3030AFE
:100400008B4212D3FC22890112BA030A8B420CD30D
:10041000890192118B4208D3890192118B4204D336
:1004200089013AD0921100E08909C3098B4201D3B6
:10043000CB01C01A524183098B4201D38B01C01AF0
:10044000524143098B4201D34B01C01A5241030967
:100450008B4201D30B01C01A5241C3088B4201D316
:10046000CB00C01A524183088B4201D38B00C01AC3
:100470005241D9D243088B4201D34B00C01A52419A
:10048000411A00D20146634652415B10104601D327
:100490004042002B00D54942704763465B1000D3B1
:1004A000404201B50020C046C04602BDF0B58B4CAD
:1004B0000F09254689B0BD437BD01D092646AE43B2
:1004C000FAD00E465E402740F60F3E43254071D0DD
:1004D00024012142FBD0FF24AD19A4042D1B039558
:1004E00001252D05DB02DB0AC9022B43C90A29437A
:1004F0001E010901040F130F050121431701880B89
:10050000820391432D098C46A90B1E438A03954310
:10051000B30B9A0396433F09BA0B9403A743029681
:100520002E467E430497B6464E19D7190C460196BF
:10053000544305977E43371B7646BF1B3601B646AC
:10054000BE0B361900967646BC043719009C01D3C1
:10055000641C00946400002F01D001263443029EE5
:10056000049F754366467E430496760034196E00F8
:1005700034190094029C019E1C196643751BAE46FB
:10058000069465464519059C05956C435943754687
:100590000891691A0191049E01465143A41B0491DC
:1005A000611A009C0791E10605D0610901221143FF
:1005B00002E072E06EE06109089D00272C0A2D061A
:1005C0006918049D7C412A0A2D066918019D624123
:1005D000AC0DAD026D185441079A910D9202551958
:1005E0006141029A644658435443069B059A5A4314
:1005F000121A131B9A0E9B015B187A41010B00051E
:10060000C3185141220A200644195A419A4200D285
:10061000491C01204002814203D315230226F643E0
:1006200002E014230326F6432020C51AA9401746EA
:10063000AF40DA400A4320460399D84009147318A2
:1006400019055118039A3843D2075140AC4009D0DC
:100650000122944006D30022401C5141002C01D1BC
:10066000400840001E4A934212D30122039892068A
:10067000904207DB0520400709181A480143C012C1
:10068000414004E0032040070818C10FC9070020BB
:1006900009B0F0BD0020F107FAE705180C464C41FF
:1006A00011486D42A04115D394181A465A410E487C
:1006B000644290410ED301204A004005824209D392
:1006C0005A00824206D35940C90F084AC907002080
:1006D0001143DDE700200649DAE700000000FF07CC
:1006E000FE070000FFFFFF7F0000E0FF0000F07F3B
:1006F0000000F87F0121C9050123411842001B06B3
:10070000D3185B0E0AD0C1100722D2068918400701
:100710005242D14201D5520089187047090208D5CA
:100720000146002A03D0C10FC907002070471046B8
:100730007047420202D00020024970470721090594
:100740000143F4E70000F87FF0B5FF252D04C6094A
:10075000C209FF2704462E400137CB093E434840DB
:100760002A402B400746002A6BD0002B69D0AA42B2
:1007700067D0AB4265D0002800DA32460125ED058E
:1007800029432C4309022002090AD21A4B0C7F2468
:10079000E31A434C000A7C44E35C7D2424041219D0
:1007A00014145B00A218884201D3521C00E04000E0
:1007B00049420C465C4324115C43DB016415E31899
:1007C000040A5C43C502200D0C4644436419250A03
:1007D0005D432303EC0C0D46654300030019EB1841
:1007E0004C42A34201D35B18401CD4052018002BB7
:1007F00007D05B00C91804D3401C002901D1400870
:1008000040003F2189048A4209D3002A08DC1106EE
:10081000090F04D0032149074018C00FC007F0BDDD
:1008200001224100120689187F2252069142F6D217
:1008300005214907C84201D59010F0BDFF20C00531
:10084000F0BD002F00DA32461648AA4207D2AB426A
:1008500005D21902090E17D0F80FC007F0BDFF2509
:1008600063002D06AB42F9D84900A942F6D8AB4245
:1008700001D1A942F2D0A94201D1002101E06100D9
:100880004908D0050843F0BD1102090EFBD0FF2036
:100890000243D005F0BD0A460146104654E7000069
:1008A000321A00000000C07F1F22030C02D10F2269
:1008B00000041CD0030E01D10002083A030F01D13D
:1008C0000001121F830F01D18000921E002801DB5E
:1008D0004000521ED20551180212511819229040A0
:1008E00004D3491C002801D1490849000846704733
:1008F000C10FC90700D04042012292071143D3E73C
:1009000001218907D0E700007047FFB50C461E465D
:100910008FB003CA089009914F007D0D00D16D1E64
:10092000002108460020C0460321099A8905084095
:10093000002A03DA8200801840080840800D012850
:100940000A9002DD0020C0430A90089807430DD0AA
:10095000EF48F049281848430714189800281DD07C
:100960007542291E1DDD0A9842421BE01898012895
:1009700002D00020302104E00020F24305E02154A1
:10098000401CB042FBDB30460022189B0021215462
:100990000F998B600A60486013B0F0BDBD1B6D1CE1
:1009A000DFE70A9A002900DA69420BA800F068FA2A
:1009B0000BAB07CB03AB07C30899099800F0C4FA47
:1009C0006B4607C30146D4480918002D00910ADD83
:1009D000D14903980A9A4942401803A903906846EE
:1009E00000F0E5FC07E003990A9A081803A90390B0
:1009F000684600F0A4FC6B4607C30004000C03D05B
:100A00000020C043410800E01046189A002A03D095
:100A10000022009215461EE0751E05D400F096F9DE
:100A2000303262556D1EF9D501220843079602D077
:100A300000227F1C04E02078302801D100227F1E94
:100A4000002A069789D01EE0112D07DA00F07EF902
:100A5000303262556D1C02460A43F5D1084303D07B
:100A60000098002819D00EE00021681E05E0235CE4
:100A7000625C63542254401E491C8142F7DBA81B70
:100A8000401E07950690079A18990020A0540F98C9
:100A9000079B069A81600CC07EE711260020189003
:100AA0005BE7D21DF0B50D460446D10893B0C900EE
:100AB00003C90C900D9101F0A7F902460D98C00FE3
:100AC00001D02D2007E02068810701D52B2002E00E
:100AD0004007C00F4001032A0F9001D0072A05DB11
:100AE00003462946204600F087F90EE1207880066B
:100AF00001D5E76900E006272846652D04D0662861
:100B000014D0672D69D12DE00020112F009001DB5A
:100B1000112300E07B1C0CAA03A910A8FFF7F5FE27
:100B20001199002610987D1C0E9142E001203B4651
:100B30000CAAC0070B900120009003A910A8FFF792
:100B4000E4FE119D12981099002600280E9501D1FF
:100B5000781C0D18781B02D446427D1C761EE81BBB
:100B600000903AE0012F00DA01270020112F0090B9
:100B700001DD112300E03B460CAA03A910A8FFF7F2
:100B8000C4FE11993D46109800260E912178090760
:100B90000BD40E99A94200DA0D4603A9012D04DDFC
:100BA0004A19203AD27F302A06D0B84201DA011D14
:100BB00004DA012100910FE06D1EEFE7002802DC4E
:100BC00086192D1A03E0411CA94200DD0D46801B49
:100BD000401C00900120C0070B902078000705D42E
:100BE0000098A84202DB0020C04300906946002024
:100BF000C8720B98012102AF0337C907884225D07C
:100C0000022010902B2011900B9800280BDA404204
:100C10000B902D20119006E00B9800F0FDFB303179
:100C20007F1E0B9039701099481E00291090F3DC3C
:100C30000B980028F0D111987F1E3870208800058D
:100C400001D5452000E065207F1E387001A8C01B3B
:100C5000C01D0B900F98002800D00120411900986A
:100C6000C01709180B980818A169081A401EA0613E
:100C70002078C00602D42046C046C0460F980028FF
:100C800005D06268A1689047206A401C20622078E5
:100C9000C00625D52046C046C04621E0002E07DB11
:100CA0000E98B04204DD03A86268805DA16802E08E
:100CB0006268A16830209047206A761C401C206240
:100CC0000098401E002800900AD100F03BF8C06850
:100CD00062680168405CA1689047206A401C2062FD
:100CE00028466D1E0028D9DC07E062683878A168C4
:100CF0007F1C9047206A401C20620B99481E0029E7
:100D00000B90F2DC2046C046C046032044E60000BB
:100D100001FCFFFF104D0000E1DFFFFF084B70B545
:100D20000D467B4400F055F80446284600F070FB61
:100D3000002802D00020C04370BD204670BD0000D6
:100D40004D110000004870470C0300200B4670B5A1
:100D5000024689078008084319469D08141AA941CC
:100D600025090807054308092C194841250A0106E9
:100D70000D43010A2C194141200C0D0428430D0C90
:100D800000194D41002140194D41C0086907084331
:100D9000E908840F8D002543840024184D4124194F
:100DA0006D41121BAB4107E00925ED432C1152198F
:100DB00063410024401C61411C460A250026551B46
:100DC000B441F1D270BD000001694A1C026108788B
:100DD000704700B58FB0029100210591054901933C
:100DE00079440391114604906846FFF72BFA0FB03F
:100DF00000BD0000E5FFFFFFF8B51F4604460123D4
:100E00000068DB02032601461840072A05DB00289C
:100E100001D017A506E017A504E0002801D016A50B
:100E200000E016A5102081432160A069C01E002F9C
:100E3000A06101D0401EA0612046C046C046002FE0
:100E400009D038466268A1689047206A401C206239
:100E5000C01C206206E0206AFAE762682878A16870
:100E60006D1C9047761EF8D22046C046C046F8BD9D
:100E70004E414E006E616E00494E4600696E66003E
:100E8000F7B516468AB02F4878446C4603467C3343
:100E9000C06F5A689B680DC42A487844763003AC0A
:100EA0000DC80DC43720C001081837211B30FFF7CB
:100EB0005AFA05460C46803D1B3C02D5644201208F
:100EC00000E00020002709900FE0E0070BD00C2085
:100ED0001C497843794432464C394118684600F041
:100EE0002EFA6B4607C364107F1C002CEDD1154F02
:100EF0007F442C3F15E0E80711D02001C0190EC82F
:100F00000691089307920068F04201D19819089061
:100F1000324606A903A800F012FA03AB07C36D100E
:100F2000641C002DE7D1324669460998002803A8C1
:100F300002D000F03CFA01E000F001FA0A9B07C37E
:100F40000DB0F0BD80130000034640000A4610B506
:100F5000400D0BD00121C9070F24A40200191C0366
:100F600064082143540D2143D20207E000210120EF
:100F7000F2E7D40F490021435200401E0029F8DA5D
:100F8000DB0FDB07184310BDFFB50D46144685B0D7
:100F90004868516800F01FFF00910190A868A1689F
:100FA00000F019FF02910390A868616800F013FF38
:100FB000029A12188242029201D2012000E000201F
:100FC000019A0B18D2180028019202D08A4202D945
:100FD00003E08A4201D2012000E0002000990818B5
:100FE00000906868A16800F0F6FE029A121882422A
:100FF000029201D2012000E00020019A0B18D218C1
:101000000028019202D08A4202D903E08A4201D22A
:10101000012000E00020009908180090286821684D
:1010200040004900400849084018F549471814E0B5
:1010300001994000C90F08430090019802994000AF
:10104000C90F08430190029803994000C90F084353
:101050000290039840007F1E039000980028E7DA72
:101060000898002801D0E74E00E00026B74228DAB1
:10107000F71BF806C00E15D0029B2021091A039A0F
:101080008B401A430392029A019BC2408B401A4341
:101090000292019A009BC2408B4000991A43019230
:1010A000C14000917A110BD06B460320811A01D503
:1010B000002101E0890059588700401ED951F5D51B
:1010C000374603980299002800D001200143089870
:1010D0000291002808460CD0002800D00120019978
:1010E000019A490508430121D20AC902D20201929C
:1010F00000E001210E9B0122D207012B02D0002B20
:1011000003D013E0002807D116E0904204D89042A3
:101110000CD1019B0B4209D0019B5918019105D1BB
:101120000099491C009101D17F1C0092002803D036
:10113000102108460020C04628682168019B009ABB
:101140004840C10F0598C90739430EC009B0F0BD2A
:10115000FFB587B0099A0898089953689268406863
:10116000896896460022039317469446089A1268A7
:101170005300099A5B081268520052089A1AA24B4F
:10118000D4180A9A002A01D0352200E040220692A3
:101190000022012315460492DB07059324E0002D6D
:1011A00005D175460346039E4D1BB34109D37546D1
:1011B0006646039B491B049D9841059B7519AC46E7
:1011C0005F4163463B4308D0059B049EDD077608DC
:1011D0002E435B080496059301E0521E641EC50F62
:1011E000ED0749184041521C069B9A42D7DB002D5F
:1011F00004D17546039A6B1A824101D203200CE098
:10120000039A0B466B404240134303D0014303D083
:10121000012002E0022000E000206146019100214F
:10122000009702910A99002905D0614640020143C6
:10123000744B019102E08007002302909C423ADA4D
:101240001A1BD006C00E15D0029D2021019C091A40
:10125000C5408C402543029C8C4000D0012425438E
:10126000019C02953D46C4408D4039462C43C14007
:101270000194009154111DD06D46022100220229D3
:101280000CD10320001B07E0002804DB8600AE59C8
:10129000002E00D00122401C0328F5DB081B02D5DC
:1012A00088002A5004E08000285810438A00A85083
:1012B000491EE3D51C460A98002802980CD0002845
:1012C00000D001200199019A490508430121D20A61
:1012D000C902D202019200E00121109B0122D20733
:1012E000012B02D0002B03D013E0002807D116E019
:1012F000904204D890420CD1019B0B4209D0019B33
:101300005918019105D10099491C009101D1641C23
:101310000092002803D0102108460020C0460898FB
:101320000999019A0068096848400099C30F079815
:10133000DB0723430360826041600BB0F0BD1FB543
:10134000002300920A46014601A8FFF71DFE01ABEB
:1013500007CB04B010BDF0B585B0012300920A465A
:10136000014601A8FFF710FE01990F220298920290
:10137000CF0F4900039E49088C1AFF07002100285F
:1013800000DB0C46450021486D08844206D30D461B
:101390000E460446102108460020C0462005E90AF2
:1013A000084369053843F20A05B01143F0BD1FB583
:1013B000002300920A46014601A8FFF7C9FE01ABCF
:1013C00007CBC6E71FB5012300920A46014601A8D4
:1013D000FFF7BEFE01AB0F2407CBA402C30F4000F2
:1013E000DB074008001B002900DB00204900000546
:1013F0004908CC0A204349051843D20A1143A8E7FB
:1014000002C0FFFF013C0000FF3F0000FF0700009B
:10141000C06880210840704701468008081A020908
:101420001018020A1018020C1018C00882001218B6
:101430005200891A01E0401C0A390A29FBD2704780
:1014400010B50446C046C0462046FEF7CBFE10BD90
:10145000024670B50A4392072AD11E4DEE0104C818
:1014600008C9541B9443344017D0D0B2D9B2401AA3
:101470002106014310D190B299B2401A21040143D0
:101480000AD110021902000A090A401A2102014376
:1014900002D1100E190E401A70BD9A42DFD010BA58
:1014A00019BA884201D9012070BD0020C04370BD27
:1014B00002780B78401C491C002A09D09A4207D1B7
:1014C00002780B78401C491C002A01D09A42EFD0C8
:1014D000D01A70BD0101010101491820ABBEFEE721
:1014E00026000200704730B58C180278401C1307A4
:1014F0001B0F01D10378401C120906D10278401C51
:1015000003E00578401C0D70491C5B1EF9D101E019
:101510000B70491C521EFBD1A142E6D3002030BD06
:101520008121C90580220128088802D090430880C3
:1015300070471043FBE78121C90502220128088872
:1015400006D04023184308800888904308807047DD
:101550001043FBE78121C905012806D0088840080F
:1015600040000880088810220DE04868400204D539
:101570000888FF22013210430880088804221043A3
:1015800008800888012210430880704710B50121A7
:10159000080200F0E9FA08480022027002214170B6
:1015A00082700171C17000F0DCF80120FFF7C3FF09
:1015B0000120FFF7B5FF10BDE402002010B50023A5
:1015C0000222012100F032F8014900F01DFD10BD9A
:1015D0001F858B4070B50646114C0846FFF790F901
:1015E00005468120C00541680906890F012903D0FD
:1015F00040680006800F00D10A4C3046FFF778F9AA
:101600002146FFF7A1F804467F21C905284600F0CE
:10161000B5FC214600F0F8FC034900F0F5FC70BD74
:101620000088824600F497469A991940FEB5002436
:101630001D460F46022A02D0032A03D101E01B4CAB
:1016400000E01B4C8121C9054A681206920F012A4D
:1016500003D049680906890F01D116490191FFF7A6
:1016600047F97F260090F6052846FFF749F93146ED
:1016700000F084FC054601990098022F0CD0FFF77A
:1016800063F80D4900F0C0FC214600F015FD01464D
:10169000284600F0B9FCFEBDFFF756F8064900F0F9
:1016A000B3FC214600F06AFCF1E700009A99193F6B
:1016B0009A99993F00F497469A99194010B50023DA
:1016C00002220121FFF7B2FF034900F09DFC03490C
:1016D00000F0FEFC10BD00000080C8430080854380
:1016E00070B50D468121C90516240C5F496889052E
:1016F000890F02280FD0012811D0032816D0062800
:1017000014D0072812D0052814D0042817D020465A
:10171000FFF7EEF870BD0B462A46022102E00B46A9
:101720002A4601212046FFF781FF70BD2046FFF7C2
:1017300051FF70BD29462046FFF740FF70BD0A46A5
:1017400029462046FFF7BAFF70BD0000034909781B
:10175000014201D0012070470020704720008040E6
:1017600070478121C9054A68C0239A4303789B07C3
:101770001B0E1A434A604378012292050F2B4B68D7
:1017800023D093434B604A680E239A4343785B0708
:101790001B0F1A434A604A6830239A4303799B0718
:1017A0009B0E1A434A6082780123DB02082A4A68AA
:1017B0000ED09A434A604A680323C0781B02800710
:1017C0009A43800D02434A60704713434B60E2E73F
:1017D0001A43EFE77047704770B588B00C4605466E
:1017E0001C2225A16846FEF703FD0922294BD206DB
:1017F000002D2DD04020694688735B2008754C2051
:10180000C87220200872B2204874234DA86A234968
:10181000060C8E4204D14007400E6E460B30F07528
:10182000686A050C8D420AD16D466979CF25294039
:101830006D46697169798007800E01436971684658
:10184000012180B209044018D060D068C003FCD4E4
:10185000188B0028FCD001201883172098810020C5
:101860001861002C06D010691021084013690B4044
:101870008342FBD008B070BD023F00023E30023C04
:1018800020023B4C023A400239B202345B02350B73
:101890000000000000001048C007001055AA00001A
:1018A000704770B5027901239B070168002A02D0B6
:1018B000062A03D007E05A688A4303E00022027137
:1018C0005A680A435A6000210F260268CA40D207AC
:1018D000D20F19D0082909D2DC6A8A003546954012
:1018E000AC43057995402C43DC620DE00A46083A8A
:1018F000082A09D28A003546203A1C6B9540AC4331
:10190000057995402C431C63491CC9B21A29DCD3C4
:1019100041790129D968026809D09143D960817958
:1019200001299968006804D08143996070BD114312
:10193000F4E70143F9E7012189070A6842400A6098
:1019400070470000012902D0034908607047012157
:101950008907C863704700004000004010B50F4C75
:10196000002803D0012809D002280FD000F0CCF8BD
:101970000C21484300198038406F10BD00F0C4F8B6
:101980000C21484300198038806F10BD00F0BCF86E
:101990000C21484300198038C06F10BDC0210410CD
:1019A000FEE7704770477047704770477047704751
:1019B0008307FF22DB0E9A408907090E9940002811
:1019C0000BDA0007000F0838830808489B00181836
:1019D000C36993430B43C3617047830804489B006A
:1019E0001818036893430B430360704700ED00E051
:1019F00000E400E0704770477047000010B500F049
:101A000019FA012805D0044880F3088800F038FA54
:101A100010BDFEF755FB10BD0060002070477047F9
:101A20007047000001B509490868009AC043904218
:101A300005D20A68521CFCD1009A101A01E0C0437A
:101A400010180A688242FCD108BD0000E0020020A4
:101A500010B50446202000F005F90128FAD02046F0
:101A600000F0B0F910BD000030B5054685B0012189
:101A7000092000F079F800F047F81F49800040186D
:101A80008038C06F039000F03FF81C498000401878
:101A90008038C06F6946087400248C744C7403A8A5
:101AA000FFF7FFFE00F030F815498000401880383D
:101AB000C06F039000F028F8124980004018803869
:101AC000C06F6946087403A8FFF7EBFE0320694660
:101AD0000095087148718C71CC714C7208720120AC
:101AE0008872684600F0CEF8002000F05FF901200F
:101AF00000F0AAF805B030BDB0210410B4210410E4
:101B0000B8210410BC21041001480078704700007F
:101B1000D00200200149012008707047D002002047
:101B20001CB504460121084600F01EF82046FFF7C8
:101B300015FF0090062069460871012088714871E0
:101B40006846FFF7AEFE204600F001F81CBD10B558
:101B5000FFF704FF0021FFF7F5FE10BD10B5FFF7FA
:101B6000FDFEFFF7E8FE10BD044A0129116A02D00C
:101B70008143116270470143FBE700000000904081
:101B800002480168491C016070470000E002002023
:101B900010B52A49082088800321481FFFF708FF55
:101BA0000321081FFFF704FF03210020FFF700FFB8
:101BB00003210120FFF7FCFE03210420FFF7F8FEBC
:101BC00003210520FFF7F4FE00210620FFF7F0FEB9
:101BD00003210720FFF7ECFE03210D20FFF7E8FEAD
:101BE00003210E20FFF7E4FE03210F20FFF7E0FEA4
:101BF00003211120FFF7DCFE03211220FFF7D8FE9E
:101C000003211320FFF7D4FE03211420FFF7D0FE99
:101C100003211520FFF7CCFE03211620FFF7C8FE95
:101C200003211720FFF7C4FE01210846FFF7D4FD6A
:101C300004490348086262B610BD0000000010406D
:101C400066000E000000904005490028086B02D095
:101C50000122104301E04008400008637047000083
:101C6000000030400549002801DA496800E0098B8E
:101C7000014201D001207047002070470000304031
:101C80007047000070B50446006801014548FEF742
:101C900060FB41020A0C44498A80D201801A012665
:101CA000C003F6038019000C3F2802D9401C8006AF
:101CB000800E0872087B22799F2392071840520EEB
:101CC0001043087338482038027F1A4063799B0715
:101CD0005B0E1A4302770A7BA379F725DB072A40BC
:101CE0001B0F1A430A73027FA3792A40DB071B0FDD
:101CF0001A430277E279002A43D00223022A0A7BA0
:101D000044D01A430A730D7B042215430D73057FDB
:101D10001D430577037F13430377026B01235B02A7
:101D20009A43237ADB079B0D1A430263026BFF235E
:101D300001339A43237A9B07DB0F1B021A4302638A
:101D4000026B01239B039A43637ADB075B0C1A4304
:101D50000263026B637AB2439B07DB0FDB031A4318
:101D600002630A7BA57AEF23ED071A40ED0E2A43A2
:101D70000A73017FA27A1940D207D20E114301776C
:101D800070BD0B7BFD2213400B7308E01A430A73EE
:101D90000D7BFB2215400D73057F1D430577037FE7
:101DA0001340B9E70000127A20003040044A117D48
:101DB000C72340071940800E01431175704700008A
:101DC00020003040C0050249C00D08807047000067
:101DD000000030407047F8B5040C8BB2264682B242
:101DE0005E43104658430D0C370C36040021801911
:101DF000164679416E43370C3604801926467941E0
:101E00006E438919F8BD00004900CA020243100060
:101E100000D004204A0D01D001221043044A490D8C
:101E2000914201D102210843012800D105207047C9
:101E3000FF07000010B50848007A002809D10748BC
:101E40000089052805D9064901200870FEF78FF999
:101E5000FEE7012010BD0000000090400000104887
:101E60000C00002030380A2801D2012070470020E1
:101E7000704710B5C0B2FFF7EBFD012010BD0000A8
:101E8000FFF786FEFFF746FE0020FFF749FEE12040
:101E90004002FFF7E9FD1E491C4848611D48072321
:101EA000C2691202120A4C042243C26100208861F6
:101EB0000B61FFF76BFB1EE00420FFF747FC0028D7
:101EC000FAD0154C21796078FFF70AFC6178042973
:101ED00015D0FEF70FFC0022104BFEF7E7FA024682
:101EE0000B460FA0FEF7A0F90020FFF737FE7D207C
:101EF000C000FFF797FD0120FFF72CFBDCE7FEF7A2
:101F0000F9FB02460B460CA0ECE700007E3E000009
:101F100000E000E004ED00E0E402002000408F401B
:101F20004144432076616C75653A20252E30662049
:101F30006D560D0A000000004144432076616C7527
:101F4000653A20252E31662027430D0A0000000047
:101F500010B500290AD00878002807D00548784431
:101F6000FFF776FA002801D0002010BD024878441F
:101F700010BD0000B2030000AA03000070B50125E7
:101F80000400ED074C4020D4441A01D2001B09196B
:101F9000C60D4B00F2B2FF2A29D01B0E2CD0000236
:101FA0000C02D31A2C43DC402843051910D2280A0E
:101FB00002D3401C6D0611D0761EF6058019FF2A4B
:101FC00000DA70BDC00DC00570BD694000F086F834
:101FD00001200543C541521C761CE8E764089C407B
:101FE000C90161408900E7D10124A043E4E71B0E49
:101FF000440200D0034870BD002AFCD1C00FC007C6
:1020000070BD00BF0000C07F70B5420064414B004E
:102010005C41120E39D01B0E38D0FF2A3CD0FF2B6A
:102020003AD040024902400A490A060045184E4388
:10203000000A090AD2184843ED017F3A0104731AD5
:102040004019190C4318990F04D001215B08490766
:102050005B1A521CD80904D3401CF50301D19D061C
:1020600007D0FF2A08D2D50506D0E407204340193F
:1020700070BD0125A843F4E7002A01DCE00770BD2C
:102080002402FF202043C00570BD1B0EFF2A03D091
:10209000FF2B01D0E00770BDFF2645003606B54294
:1020A00006D84D00B54203D8D218FF2A00D0E7E782
:1020B000004870BD0000C07F70B50125ED07684085
:1020C00004004C4002D5694000F008F8FFF75CFFBF
:1020D00070B501250400ED074C4022D4441A02D209
:1020E0006C40001B0919C60D4B00F2B2FF2A4BD001
:1020F0001B0E50D000020C02D31A2C43DC40A84324
:10210000051B05D5AD0019D36D08761E521E37D0BC
:10211000F605280A01D2801970BD70416D0603D002
:1021200070BD6940FFF730FF9C40090261404900E3
:1021300001D0401E70BD0124A04370BD6D081DD0AC
:1021400001202B0C01D12D0410302B0E01D12D02BA
:1021500008302B0F01D12D01001DAB0F01D1AD00B7
:10216000801CEB0F01D16D00401C6D00361A121A55
:10217000680AF5054019012A02DB70BD002070BD18
:10218000C036300AC00770BD1B0E440201D1FF2BC0
:1021900000D1024870BD002AF0D070BD0000C07FA1
:1021A00003B402487844844603BC6047FBE8FFFF61
:1021B0000001000001000000000800000100000014
:1021C00040000000080000000002000081828384BB
:1021D00085868788898B8C8D8E8F91929395969723
:1021E000999A9C9D9FA0A2A3A5A7A8AAACAEB0B2A5
:1021F000B3B5B7B9BCBEC0C2C5C7C9CCCED1D4D7A0
:10220000D9DCDFE2E6E9ECF0F3F7FAFE0240000089
:10221000000000A00000000005400000000000C811
:10222000000000000C4000000000409C0000000086
:10223000194000000020BCBE000000003440000037
:10224000BFC91B8E00000004B5400000504BCFD02A
:102250006607E2CF010000006C4100003E8251AAF7
:10226000DFEEA73401000000D9420000DCB5A0E297
:102270003A301F97FFFFFFFFB4450000FD25A0C8BF
:10228000E9A3C14FFFFFFFFFFF3F000000000080F8
:1022900000000000FF3F0000000000800000000080
:1022A0002C23041008000020040000000401041086
:1022B000302304100C00002004000000040104106E
:1022C0003423041010000020040000000401041056
:1022D0003823041030000020040000000401041022
:1022E0003C230410C00000200C020000E61404107F
:1022F00044230410CC02002020000000040104103C
:1023000064230410EC02002060000000200104108F
:102310001C00000043000000F8FFFFFF0C0000005D
:102320000E0000000F0000002E0000000000000062
:1023300000000000000004100000000001FF01FF89
:10234000011100000000000000000000000000007B
:10235000000000000000000000000000000000007D
:042360000000000079
:04000005100400C122
:00000001FF
