:020000041004E6
:100000000060002025090410EF070410E107041028
:10001000AA5555AA45554C420000000000000000BA
:10002000000000000000000000000000490904106A
:10003000000000000000000021090410790A0410EB
:10004000C90604101D090410000000000000000093
:10005000210C041047090410DF050410E10E041000
:100060000000000000000000000000000000000090
:1000700000000000DD050410E5070410E30704108C
:1000800000000000E7070410E9070410EB07041064
:10009000ED070410450904101F090410E1050410C0
:1000A0000000000000000000000000000000000050
:1000B0000000000000000000000000000000000040
:1000C00000F002F800F06EF80CA030C808382418D0
:1000D0002D18A246671EAB4654465D46AC4201D180
:1000E00000F060F87E460F3E0FCCB6460126334244
:1000F00000D0FB1AA246AB4633431847280F000036
:10010000880F0000103A02D378C878C1FAD8520795
:1001100001D330C830C101D504680C6070470000BD
:10012000F0B543464C4655465E466746F8B4104C1B
:100130006B4623600F4C20680F4C20600F4C2068EA
:100140000F4C20600F4C20680F4C2060BFF34F8F86
:1001500030BF074C2468A546F8BC9846A146AA467D
:10016000B346BC46F0BD00BF30BF00BF70470000C3
:100170000800002004ED00E0D402002024ED00E09F
:10018000D802002000E200E0DC02002010B5642963
:1001900002D100F077F810BD002010BD1FB51FBDC3
:1001A00010B510BD03488546FFF7F8FF00F0B9FE13
:1001B00000F0E8F90060002003B4FFF7F1FF03BC92
:1001C00000F0E8F970B505460C46164602E00FCC83
:1001D0000FC5103E102EFAD2082E02D303CC03C551
:1001E000083E042E07D301CC01C5361F03E0217859
:1001F0002970641C6D1C761EF9D270BD0FB40549C0
:1002000010B503AA029800F079F910BC08BC04B03C
:1002100018470000CC020020F8B50E460446002026
:1002200020622046E1688847002829D0252802D08E
:100230006268A16820E0E168204600278847050041
:100240001ED028464138192802D80127FF02203540
:100250003246204627602946FFF798FF002808D03D
:10026000012804D0F61DF608F6000836D9E7361D39
:10027000D7E762682846A1689047206A401CCFE70C
:10028000206AF8BDF7B5002575291068009914A6F5
:1002900011D0C046C046002802DA404211A608E04C
:1002A000009909688A0701D50FA602E0490704D51D
:1002B0000EA6012501E0C046C046009F0024243759
:1002C00004E000F02FF930313955641C0028F8D1D2
:1002D0002B4632462146009800F0B7F8FEBD0000DC
:1002E000000000002D0000002B0000002000000096
:1002F000002203098B422CD3030A8B4211D3002323
:100300009C464EE003460B433CD4002243088B42FC
:1003100031D303098B421CD3030A8B4201D3944689
:100320003FE0C3098B4201D3CB01C01A524183097C
:100330008B4201D38B01C01A524143098B4201D336
:100340004B01C01A524103098B4201D30B01C01A61
:100350005241C3088B4201D3CB00C01A52418308DB
:100360008B4201D38B00C01A524143088B4201D308
:100370004B00C01A5241411A00D201465241104668
:1003800070475DE0CA0F00D04942031000D34042DD
:10039000534000229C4603098B422DD3030A8B4213
:1003A00012D3FC22890112BA030A8B420CD38901B1
:1003B00092118B4208D3890192118B4204D3890197
:1003C0003AD0921100E08909C3098B4201D3CB01D5
:1003D000C01A524183098B4201D38B01C01A52418A
:1003E00043098B4201D34B01C01A524103098B428E
:1003F00001D30B01C01A5241C3088B4201D3CB0079
:10040000C01A524183088B4201D38B00C01A52415B
:10041000D9D243088B4201D34B00C01A5241411A32
:1004200000D20146634652415B10104601D3404260
:10043000002B00D54942704763465B1000D3404211
:1004400001B50020C046C04602BDFFB504460D46BA
:1004500081B0243000902168880604D51022E0691C
:100460009143216000E00120A84201DD471B00E02C
:1004700000270498A1697A191018081AA061207839
:10048000C00602D42046C046C046002608E00398B5
:100490006268A168805D9047206A401C761C2062DB
:1004A00004988642F3DB2078C0060AD52046C04671
:1004B000C04606E06268A16830209047206A401C70
:1004C000206238467F1E0028F4DC07E0009862684E
:1004D000A168405D9047206A401C206228466D1E3E
:1004E0000028F3DC2046C046C0462078000602D52E
:1004F000022005B0F0BD0120FBE70000084B70B5FD
:100500000D467B4400F027F80446284600F036F8F4
:10051000002802D00020C04370BD204670BD0000FE
:10052000110A000001468008081A02091018020A80
:100530001018020C1018C008820012185200891AF4
:1005400001E0401C0A390A29FBD2704701694A1CA4
:1005500002610878704700B58FB0029100210591C3
:100560000549019379440391114604906846FFF7C9
:1005700053FE0FB000BD0000E5FFFFFFC068802103
:100580000840704710B50446C046C0462046FFF7F5
:1005900013FE10BD01491820ABBEFEE72600020085
:1005A000704730B58C180278401C13071B0F01D11F
:1005B0000378401C120906D10278401C03E005783C
:1005C000401C0D70491C5B1EF9D101E00B70491CE9
:1005D000521EFBD1A142E6D3002030BD70477047C8
:1005E00070470000F3B587B004461C222AA1684674
:1005F000FFF7E8FD092101232E4AC906002C32D05D
:1006000044206D46A8732C48057A1D4305725B2073
:100610006D4628754C20E87220202872B22068743C
:10062000264DA86A264E070CB74204D14007400E5B
:100630006F460B30F875686A050CB5420AD16E46F4
:100640007579CF2635406E46757175798007800EB5
:10065000054375716846012580B22D044019C860B4
:10066000C868C003FCD4108B0028FCD0138317206B
:100670009081002010610898002806D00869102297
:1006800010400B6913408342FBD0002C02D00D496F
:100690001520087009B0F0BD023F00023E30023C58
:1006A00020023B4C023A400239B202345B02350B65
:1006B000000000000000104800002040C0070010AB
:1006C00055AA00000000C0407047000070B5044605
:1006D0000068800103D17921404800F01BFC20799B
:1006E00000280BD0062809D0012807D0042805D0FF
:1006F000052803D07A21394800F00CFCA0790028A5
:1007000005D0012803D07B21344800F003FC607938
:10071000002805D0012803D07C21304800F0FAFBE6
:100720002088C00406D52079062803D17F212B48D4
:1007300000F0F0FB2088800406D52079062803D13C
:100740008021264800F0E6FB20790122920700284C
:1007500002D0062804D009E050682168884304E0EC
:1007600000202071506821680843506000200F2647
:100770002168C140C907C90F19D0082809D2D36A16
:10078000810035468D40AB4325798D402B43D362A4
:100790000DE001460839082909D281003546203983
:1007A000136B8D40AB4325798D402B431363401C65
:1007B000C0B21A28DCD360790128D068216809D03A
:1007C0008843D060A07901289068216804D08843CC
:1007D000906070BD0843F4E70843F9E74C0F04103C
:1007E000FEE7704770477047704770477047704723
:1007F00070B504468078002805D0012803D05A211E
:1008000023A000F087FB6078042803D35B2120A09D
:1008100000F080FBA078012500282FD00020205672
:100820006178FF26002811DA0207120F083A9308B0
:10083000264A9B009A18D3698007C00E8640890714
:10084000090EB34381400B43D3610DE08308204A76
:100850009B009A1813688007C00E86408907090E0E
:10086000B34381400B4313602078C106C90E8D400D
:100870004009184980004018056070BD2078C10605
:10088000C90E8D404009134980008031F3E7000014
:100890002E2E5C2E2E5C2E2E5C2E2E5C2E2E5C2E92
:1008A0002E5C4C6962726172795C426C75654E5265
:1008B00047315F5065726970685F4472697665722E
:1008C0005C7372635C6D6973632E630000ED00E01E
:1008D00000E400E000E100E08307FF22DB0E9A4025
:1008E0008907090E994000280BDA0007000F083825
:1008F000830808489B001818C36993430B43C361DE
:100900007047830804489B001818036893430B43FF
:100910000360704700ED00E000E400E070477047BE
:100920007047000010B500F0DDFA012805D004483A
:1009300080F3088800F0F5FA10BDFFF7C1FB10BD89
:100940000060002070477047704710B504462020B3
:1009500000F01EF90128FAD0204600F0ABFA10BDD5
:1009600030B5054685B00121092000F065F800F09A
:1009700057F81F49800040188038C06F039000F07E
:100980004FF81C49800040188038C06F69460874D1
:1009900000248C744C7403A8FFF798FE00F040F814
:1009A0001549800040188038C06F039000F038F877
:1009B0001249800040188038C06F6946087403A847
:1009C000FFF784FE032069460095087148718C7119
:1009D000CC714C72087201208872684600F05CF994
:1009E000002000F045FA012000F0BAF805B030BD53
:1009F0003C0F0410400F0410440F0410480F041063
:100A000038B50446042069460870032048708C708D
:100A10006846FFF7EDFE2146102000F01BF938BDB7
:100A20000148007870470000D002002001490120F1
:100A300008707047D002002070B50D460B4904467F
:100A4000084203D188210A4800F064FA094E002DBB
:100A500005D0012D07D08921054800F05BFA306AE6
:100A6000A043306270BD306A2043FAE79F3F0F0019
:100A7000940F0410000090407047000010B52A4900
:100A8000082088800321481FFFF726FF0321081F45
:100A9000FFF722FF03210020FFF71EFF03210120A3
:100AA000FFF71AFF03210420FFF716FF032105209B
:100AB000FFF712FF00210620FFF70EFF032107209A
:100AC000FFF70AFF03210D20FFF706FF03210E2089
:100AD000FFF702FF03210F20FFF7FEFE0321112085
:100AE000FFF7FAFE03211220FFF7F6FE0321132081
:100AF000FFF7F2FE03211420FFF7EEFE032115207D
:100B0000FFF7EAFE03211620FFF7E6FE0321172078
:100B1000FFF7E2FE01210846FFF764FD04490348A0
:100B2000086262B610BD00000000104066000E00B2
:100B30000000904010B504460648044201D1002C44
:100B400004D1FF21A531044800F0E4F90348848072
:100B500010BD00000DE00000DC0F0410400030402C
:100B600010B5094C002809D0012803D058210748A6
:100B700000F0D0F9206B0121084302E0206B40080F
:100B80004000206310BD000000003040DC0F041066
:100B900070B5144D044601281ED0082C1CD0102C12
:100BA0001AD0202C18D0402C16D0802C14D00E48EF
:100BB00084420DD0C01F84420AD0401C844207D01A
:100BC000801C844204D0FF214C31084800F0A2F977
:100BD000002C01DA686800E0288B204000D001205A
:100BE00070BD00000000304008000080DC0F0410E1
:100BF00010B504460748044201D1002C04D1FF215E
:100C00008731054800F086F90448808B204000D0E9
:100C1000012010BD0DE00000DC0F0410200030406A
:100C200010B51020FFF7E4FF00280DD01020FFF7CB
:100C300081FF00F017F9C0B200F03CF900F012F9A2
:100C4000014602A0FFF7DAFA10BD000031313A2563
:100C50006400000070B504460C480D46044201D102
:100C6000002C03D1F2210A4800F054F9094E002D5E
:100C700008D0012D03D0F321054800F04BF9308B4B
:100C8000204301E0308BA043308370BD0DE00000B5
:100C9000DC0F04102000304070B5044600686D4938
:100CA000401E884203D98C216B4800F033F920792B
:100CB000002809D0012807D0022805D0032803D036
:100CC0008D21654800F026F96079002809D00128B7
:100CD00007D0022805D0032803D08E215E4800F0FB
:100CE00019F9A079002805D0012803D08F215A488E
:100CF00000F010F9E079002807D0012805D002287B
:100D000003D09021544800F005F9207A032803D934
:100D10009121514800F0FEF8607A032803D992210E
:100D20004D4800F0F7F8A07A002805D0012803D03C
:100D30009321494800F0EEF8206801014748FFF789
:100D4000D7FA41020A0C46498A80D201801A01264C
:100D5000C003F6038019000C3F2802D9401C80060E
:100D6000800E0872087B22799F2392071840520E4A
:100D7000104308733A482038027F1A4063799B0772
:100D80005B0E1A4302770A7BA379F725DB072A401B
:100D90001B0F1A430A73027FA3792A40DB071B0F3C
:100DA0001A430277E279002A43D00223022A0A7BFF
:100DB00044D01A430A730D7B042215430D73057F3B
:100DC0001D430577037F13430377026B01235B0207
:100DD0009A43237ADB079B0D1A430263026BFF23BE
:100DE00001339A43237A9B07DB0F1B021A430263EA
:100DF000026B01239B039A43637ADB075B0C1A4364
:100E00000263026B637AB2439B07DB0FDB031A4377
:100E100002630B7BA57AEF22ED071340ED0E2B4307
:100E20000B73017F1140A27AD207D20E11430177D2
:100E300070BD0B7BFD2213400B7308E01A430A734D
:100E40000D7BFB2215400D73057F1D430577037F46
:100E50001340B9E73F420F00DC0F04100000127A84
:100E60002000304001480088C0B270470000304088
:100E700010B5040010D0012C0ED0022C0CD0032C85
:100E80000AD0042C08D0052C06D0062C04D0FF2153
:100E9000D031064800F03EF80549087DC7221040D1
:100EA0006207920E1043087510BD0000DC0F04109D
:100EB0002000304010B504460648844204D9FF2182
:100EC0000831054800F026F8E0050449C00D088007
:100ED00010BD0000FF010000DC0F041000003040D6
:100EE0007047000010B50848007A002809D107486B
:100EF0000089052805D9064901200870FFF729F95E
:100F0000FEE7012010BD00000000904000001048E6
:100F10000C000020FEE710B5C0B2FFF716FD01205F
:100F200010BDFFF7ABFDFFF781FDE1204002FFF7A9
:100F300017FD0120FFF764FDFEE70000000100003F
:100F40000100000000080000010000002E2E5C2EB1
:100F50002E5C2E2E5C2E2E5C2E2E5C2E2E5C4C6972
:100F600062726172795C426C75654E5247315F50B6
:100F700065726970685F4472697665725C737263EA
:100F80005C426C75654E5247315F6770696F2E63C6
:100F9000000000002E2E5C2E2E5C2E2E5C2E2E5C71
:100FA0002E2E5C2E2E5C4C6962726172795C426CF2
:100FB00075654E5247315F5065726970685F447263
:100FC000697665725C7372635C426C75654E5247FC
:100FD000315F7379734374726C2E63002E2E5C2E16
:100FE0002E5C2E2E5C2E2E5C2E2E5C2E2E5C4C69E2
:100FF00062726172795C426C75654E5247315F5026
:1010000065726970685F4472697665725C73726359
:101010005C426C75654E5247315F756172742E6328
:1010200000000000841004100800002004000000EC
:1010300004010410881004100C00002004000000BB
:10104000040104108C1004101000002004000000A3
:10105000040104109010041030000020040000006F
:101060000401041094100410C00000200C020000C1
:10107000A20504109C100410CC02002014000000F3
:101080000401041000000000000000000000041033
:101090000000000001FF01FF01110000000000003E
:1010A0000000000000000000000000000000000040
:04000005100400C122
:00000001FF
