:020000041004E6
:10000000006000203D07041033060410250604108C
:10001000AA5555AA45554C420000000000000000BA
:100020000000000000000000000000006F07041046
:10003000000000000000000021070410590804100F
:1000400049050410790604100000000000000000BB
:100050004D0904106D0704105F040410A10A041078
:100060000000000000000000000000000000000090
:10007000000000005D040410290604102706041087
:10008000000000002B0604102D0604102F0604109B
:10009000310604106B070410B1060410610404104B
:1000A0000000000000000000000000000000000050
:1000B0000000000000000000000000000000000040
:1000C00000F002F800F074F80CA030C808382418CA
:1000D0002D18A246671EAB4654465D46AC4201D180
:1000E00000F066F87E460F3E0FCCB646012633423E
:1000F00000D0FB1AA246AB4633431847340B00002E
:10010000A40B0000103A02D378C878C1FAD852077D
:1001100001D330C830C101D504680C6070470000BD
:100120000023002400250026103A01D378C1FBD813
:10013000520700D330C100D50B607047F0B543467D
:100140004C4655465E466746F8B4104C6B462360F5
:100150000F4C20680F4C20600F4C20680F4C206023
:100160000F4C20680F4C2060BFF34F8F30BF074CFF
:100170002468A546F8BC9846A146AA46B346BC46A4
:10018000F0BD00BF30BF00BF704700000800002076
:1001900004ED00E0D402002024ED00E0D8020020AD
:1001A00000E200E0DC0200201FB51FBD10B510BD4D
:1001B00003488546FFF7F8FF00F092FC00F022F9B3
:1001C0000060002003B4FFF7F1FF03BC00F022F948
:1001D00070B505460C46164602E00FCC0FC5103E22
:1001E000102EFAD2082E02D303CC03C5083E042EEB
:1001F00007D301CC01C5361F03E021782970641CA8
:100200006D1C761EF9D270BD0FB4054910B503AA56
:10021000029800F0B5F810BC08BC04B01847000004
:10022000CC020020002203098B422CD3030A8B420C
:1002300011D300239C464EE003460B433CD40022DE
:1002400043088B4231D303098B421CD3030A8B42F0
:1002500001D394463FE0C3098B4201D3CB01C01ABE
:10026000524183098B4201D38B01C01A5241430989
:100270008B4201D34B01C01A524103098B4201D377
:100280000B01C01A5241C3088B4201D3CB00C01AE4
:10029000524183088B4201D38B00C01A524143085C
:1002A0008B4201D34B00C01A5241411A00D2014681
:1002B0005241104670475DE0CA0F00D0494203101A
:1002C00000D34042534000229C4603098B422DD369
:1002D000030A8B4212D3FC22890112BA030A8B4211
:1002E0000CD3890192118B4208D3890192118B4260
:1002F00004D389013AD0921100E08909C3098B42E5
:1003000001D3CB01C01A524183098B4201D38B0127
:10031000C01A524143098B4201D34B01C01A5241CA
:1003200003098B4201D30B01C01A5241C3088B420F
:1003300001D3CB00C01A524183088B4201D38B00FA
:10034000C01A5241D9D243088B4201D34B00C01A84
:100350005241411A00D20146634652415B10104699
:1003600001D34042002B00D54942704763465B10E1
:1003700000D3404201B50020C046C04602BD000087
:10038000084B70B50D467B4400F013F80446284630
:1003900000F022F8002802D00020C04370BD2046A3
:1003A00070BD00004B07000001694A1C026108781B
:1003B000704700B58FB00291002105910549019366
:1003C0007944039111460490684600F009F80FB093
:1003D00000BD0000E5FFFFFFC068802108407047B6
:1003E000F8B5064600244768806800903046F568F6
:1003F00003E00099B847641C3046A8470028F8D1AC
:100400002046F8BD10B50446C046C0462046FFF75A
:10041000D9FE10BD01491820ABBEFEE72600020040
:10042000704730B58C180278401C13071B0F01D1A0
:100430000378401C120906D10278401C03E00578BD
:10044000401C0D70491C5B1EF9D101E00B70491C6A
:10045000521EFBD1A142E6D3002030BD7047704749
:1004600070470000F3B587B004461C222AA16846F5
:10047000FFF7AEFE092101232E4AC906002C32D017
:1004800044206D46A8732C48057A1D4305725B20F5
:100490006D4628754C20E87220202872B2206874BE
:1004A000264DA86A264E070CB74204D14007400EDD
:1004B0006F460B30F875686A050CB5420AD16E4676
:1004C0007579CF2635406E46757175798007800E37
:1004D000054375716846012580B22D044019C86036
:1004E000C868C003FCD4108B0028FCD013831720ED
:1004F0009081002010610898002806D00869102219
:1005000010400B6913408342FBD0002C02D00D49F0
:100510001520087009B0F0BD023F00023E30023CD9
:1005200020023B4C023A400239B202345B02350BE6
:10053000000000000000104800002040C00700102C
:1005400055AA00000000C040704770B50279012331
:100550009B070168002A02D0062A03D007E05A68E8
:100560008A4303E0002202715A680A435A6000215C
:100570000F260268CA40D207D20F19D0082909D223
:10058000DC6A8A0035469540AC43057995402C439A
:10059000DC620DE00A46083A082A09D28A0035468C
:1005A000203A1C6B9540AC43057995402C431C6365
:1005B000491CC9B21A29DCD341790129D9680268DA
:1005C00009D09143D960817901299968006804D0E4
:1005D0008143996070BD1143F4E70143F9E7F8B531
:1005E00005460121480400F02BF90B2700243F07A2
:1005F00000F0B4F80128FBD1B868A600A85100F0BB
:10060000ADF80128FBD1A859B968641C0904084356
:10061000E4B2A851102CEBD301200021400400F0DB
:100620000FF9F8BDFEE77047704770477047704795
:10063000704770478307FF22DB0E9A408907090E37
:10064000994000280BDA0007000F08388308084893
:100650009B001818C36993430B43C3617047830819
:1006600004489B001818036893430B4303607047CA
:1006700000ED00E000E400E070470000012805D034
:10068000022805D0032806D001207047074A04E05D
:10069000064A243201E0054A48320020135C0B541C
:1006A000401CC0B22028F9D3002070476C0400C061
:1006B0007047000010B5012805D0022805D0032896
:1006C00006D0012010BD094A04E0084A243201E0A6
:1006D000064A483200208300401CCC58C0B2D45097
:1006E0000828F8D30020106210BD00006C0400C080
:1006F00003208007016801221143016001689143D2
:100700000160704702480068002800D0012070474F
:10071000000400C00320800701688907FCD57047EA
:100720007047000001A0FFF76FFDFEE7504B41202E
:100730006661696C65642E0D0A00000010B500F05A
:10074000B1F9012805D0044880F3088800F0C8F901
:1007500010BDFFF7B5FC10BD006000200B200007A6
:100760004068C00700D0012070477047704770474D
:1007700010B50446202000F0DBF80128FAD020460E
:1007800000F086F910BD000030B5054685B00121A6
:10079000092000F055F800F047F81F498000401884
:1007A0008038C06F039000F03FF81C49800040186B
:1007B0008038C06F6946087400248C744C7403A898
:1007C000FFF7C3FE00F030F815498000401880386C
:1007D000C06F039000F028F812498000401880385C
:1007E000C06F6946087403A8FFF7AFFE032069468F
:1007F0000095087148718C71CC714C72087201209F
:100800008872684600F0A4F8002000F035F9012055
:1008100000F080F805B030BDE00B0410E40B0410CC
:10082000E80B0410EC0B041001480078704700003E
:10083000D00200200149012008707047D00200203A
:10084000044A0129116A02D08143116270470143B1
:10085000FBE70000000090407047000010B52A49F7
:10086000082088800321481FFFF7E4FE0321081FAA
:10087000FFF7E0FE03210020FFF7DCFE032101204B
:10088000FFF7D8FE03210420FFF7D4FE0321052043
:10089000FFF7D0FE00210620FFF7CCFE0321072042
:1008A000FFF7C8FE03210D20FFF7C4FE03210E2031
:1008B000FFF7C0FE03210F20FFF7BCFE032111202C
:1008C000FFF7B8FE03211220FFF7B4FE0321132027
:1008D000FFF7B0FE03211420FFF7ACFE0321152023
:1008E000FFF7A8FE03211620FFF7A4FE032117201F
:1008F000FFF7A0FE01210846FFF7B4FD04490348B5
:10090000086262B610BD00000000104066000E00D4
:100910000000904005490028086B02D001221043D6
:1009200001E04008400008637047000000003040CC
:100930000549002801DA496800E0098B014201D02D
:1009400001207047002070470000304070470000D1
:1009500070B50446006801014548FFF763FC410299
:100960000A0C44498A80D201801A0126C003F6038A
:100970008019000C3F2802D9401C8006800E0872A6
:10098000087B22799F2392071840520E1043087368
:1009900038482038027F1A4063799B075B0E1A4360
:1009A00002770A7BA379F725DB072A401B0F1A433E
:1009B0000A73027FA3792A40DB071B0F1A430277D1
:1009C000E279002A43D00223022A0A7B44D01A4348
:1009D0000A730D7B042215430D73057F1D430577B4
:1009E000037F13430377026B01235B029A43237A4D
:1009F000DB079B0D1A430263026BFF2301339A430B
:100A0000237A9B07DB0F1B021A430263026B01234D
:100A10009B039A43637ADB075B0C1A430263026B06
:100A2000637AB2439B07DB0FDB031A4302630A7B43
:100A3000A57AEF23ED071A40ED0E2A430A73017FD2
:100A4000A27A1940D207D20E1143017770BD0B7BF9
:100A5000FD2213400B7308E01A430A730D7BFB223F
:100A600015400D73057F1D430577037F1340B9E7DC
:100A70000000127A20003040044A117DC72340074D
:100A80001940800E0143117570470000200030406E
:100A9000C0050249C00D08807047000000003040CA
:100AA0007047000010B50848007A002809D10748AF
:100AB0000089052805D9064901200870FFF757FB72
:100AC000FEE7012010BD000000009040000010482B
:100AD0000C00002010B5C0B2FFF74AFE012010BD87
:100AE00090B0402238496846FFF772FBFFF7B6FE28
:100AF000FFF7A0FEE1204002FFF746FE03200121A0
:100B00008004FFF79DFE3148FFF769FD2F49012062
:100B1000FFF7D0FD69460220FFF7CCFD08A90C467F
:100B20000320FFF7C7FDFFF7E3FDFFF7F3FDFFF736
:100B3000E9FD002842D1254902208039FFF79EFDBA
:100B4000224903206039FFF799FD20484030FFF724
:100B500046FD1E4901204031FFF7ACFD69460220E9
:100B6000FFF7A8FD21460320FFF7A4FDFFF7C0FD16
:100B7000FFF7D0FDFFF7C6FD00281FD11349022063
:100B80004039FFF77BFD1149032020390C46FFF760
:100B900075FD0E490120FFF78DFD0C4902204039FB
:100BA000FFF788FD21460320FFF784FDFFF7A0FD36
:100BB000FFF7B0FDFFF7A6FD002801D0FFF7B2FD5B
:100BC00003A0FFF721FBFEE7F00B041060030020F9
:100BD000504B412076657269666965642E0D0A0086
:100BE00000010000010000000008000001000000FA
:100BF00096C298D84539A1F4A033EB2D817D0377B7
:100C0000F240A463E5E6BCF847422CE1F2D1176B51
:100C1000F551BF376840B6CBCE5E316B5733CE2B24
:100C2000169E0F7C4AEBE78E9B7F1AFEE242E34F53
:100C3000A00C0410080000200400000004010410AF
:100C4000A40C04100C000020040000000401041097
:100C5000A80C04101000002004000000040104107F
:100C6000AC0C04103000002004000000040104104B
:100C7000B00C0410C00000200C020000220404107C
:100C8000B80C0410CC020020140000000401041071
:100C9000CC0C0410E0020020000100002001041030
:100CA0000000000000000000000004100000000030
:100CB00001FF01FF01110000000000000000000022
:0C0CC00000000000000000000000000028
:04000005100400C122
:00000001FF
