:020000041004E6
:10000000006000208506041037060410290604103D
:10001000AA5555AA45554C420000000000000000BA
:10002000000000000000000000000000A90604100D
:10003000000000000000000081060410B907041051
:10004000110504107D0604100000000000000000EF
:1000500005090410A706041043040410450B0410FE
:100060000000000000000000000000000000000090
:1000700000000000410404102D0604102B0604109B
:10008000000000002F06041031060410330604108F
:1000900035060410A50604107F060410450404105C
:1000A0000000000000000000000000000000000050
:1000B0000000000000000000000000000000000040
:1000C00000F002F800F066F80CA030C808382418D8
:1000D0002D18A246671EAB4654465D46AC4201D180
:1000E00000F058F87E460F3E0FCCB646012633424C
:1000F00000D0FB1AA246AB4633431847C40B00009E
:10010000240C0000103A02D378C878C1FAD85207FC
:1001100001D330C830C101D504680C6070470000BD
:10012000F0B543464C4655465E466746F8B4104C1B
:100130006B4623600F4C20680F4C20600F4C2068EA
:100140000F4C20600F4C20680F4C2060BFF34F8F86
:1001500030BF074C2468A546F8BC9846A146AA467D
:10016000B346BC46F0BD00BF30BF00BF70470000C3
:100170000800002004ED00E0D402002024ED00E09F
:10018000D802002000E200E0DC0200201FB51FBD05
:1001900010B510BD03488546FFF7F8FF00F0F4FCEA
:1001A00000F022F90060002003B4FFF7F1FF03BC68
:1001B00000F022F970B505460C46164602E00FCC59
:1001C0000FC5103E102EFAD2082E02D303CC03C561
:1001D000083E042E07D301CC01C5361F03E0217869
:1001E0002970641C6D1C761EF9D270BD0FB40549D0
:1001F00010B503AA029800F0B5F810BC08BC04B012
:1002000018470000CC020020002203098B422CD3A7
:10021000030A8B4211D300239C464EE003460B4356
:100220003CD4002243088B4231D303098B421CD3B8
:10023000030A8B4201D394463FE0C3098B4201D3AA
:10024000CB01C01A524183098B4201D38B01C01AE2
:10025000524143098B4201D34B01C01A5241030959
:100260008B4201D30B01C01A5241C3088B4201D308
:10027000CB00C01A524183088B4201D38B00C01AB5
:10028000524143088B4201D34B00C01A5241411ADC
:1002900000D201465241104670475DE0CA0F00D0BF
:1002A0004942031000D34042534000229C460309B8
:1002B0008B422DD3030A8B4212D3FC22890112BA3E
:1002C000030A8B420CD3890192118B4208D3890116
:1002D00092118B4204D389013AD0921100E089092E
:1002E000C3098B4201D3CB01C01A524183098B420F
:1002F00001D38B01C01A524143098B4201D34B01F8
:10030000C01A524103098B4201D30B01C01A52415A
:10031000C3088B4201D3CB00C01A524183088B42E1
:1003200001D38B00C01A5241D9D243088B4201D36A
:100330004B00C01A5241411A00D201466346524155
:100340005B10104601D34042002B00D54942704754
:1003500063465B1000D3404201B50020C046C04652
:1003600002BD0000084B70B50D467B4400F013F849
:100370000446284600F022F8002802D00020C0439E
:1003800070BD204670BD00000D08000001694A1CC8
:1003900002610878704700B58FB002910021059185
:1003A000054901937944039111460490684600F091
:1003B00009F80FB000BD0000E5FFFFFFC068802115
:1003C00008407047F8B506460024476880680090EA
:1003D0003046F56803E00099B847641C3046A847EA
:1003E0000028F8D12046F8BD10B50446C046C046E6
:1003F0002046FFF7D9FE10BD01491820ABBEFEE72D
:1004000026000200704730B58C180278401C130794
:100410001B0F01D10378401C120906D10278401C41
:1004200003E00578401C0D70491C5B1EF9D101E00A
:100430000B70491C521EFBD1A142E6D3002030BDF7
:10044000704770477047000070B588B00C4605468D
:100450001C2225A16846FFF7ADFE0922294BD206D2
:10046000002D2DD04020694688735B2008754C20F4
:10047000C87220200872B2204874234DA86A23490C
:10048000060C8E4204D14007400E6E460B30F075CC
:10049000686A050C8D420AD16D466979CF252940DD
:1004A0006D46697169798007800E014369716846FC
:1004B000012180B209044018D060D068C003FCD488
:1004C000188B0028FCD00120188317209881002069
:1004D0001861002C06D010691021084013690B40E8
:1004E0008342FBD008B070BD023F00023E30023CA8
:1004F00020023B4C023A400239B202345B02350B17
:100500000000000000001048C007001055AA0000BD
:100510007047000070B504460068800103D179215E
:10052000404800F029FB207900280BD0062809D08C
:10053000012807D0042805D0052803D07A2139489E
:1005400000F01AFBA079002805D0012803D07B21F8
:10055000344800F011FB6079002805D0012803D051
:100560007C21304800F008FB2088C00406D52079A3
:10057000062803D17F212B4800F0FEFA2088800452
:1005800006D52079062803D18021264800F0F4FA08
:10059000207901229207002802D0062804D009E021
:1005A00050682168884304E0002020715068216869
:1005B0000843506000200F262168C140C907C90FB9
:1005C00019D0082809D2D36A810035468D40AB4343
:1005D00025798D402B43D3620DE001460839082967
:1005E00009D2810035462039136B8D40AB43257904
:1005F0008D402B431363401CC0B21A28DCD36079B2
:100600000128D068216809D08843D060A0790128EA
:100610009068216804D08843906070BD0843F4E777
:100620000843F9E7E80B0410FEE77047704770478E
:1006300070477047704770478307FF22DB0E9A4070
:100640008907090E994000280BDA0007000F0838C7
:10065000830808489B001818C36993430B43C36180
:100660007047830804489B001818036893430B43A2
:100670000360704700ED00E000E400E07047704761
:100680007047000010B500F05FFA012805D004485B
:1006900080F3088800F078FA10BDFFF711FD10BD57
:1006A0000060002070477047704710B50446202056
:1006B00000F0F8F80128FAD0204600F02DFA10BD1D
:1006C00030B5054685B00121092000F055F800F04D
:1006D00047F81F49800040188038C06F039000F031
:1006E0003FF81C49800040188038C06F6946087484
:1006F00000248C744C7403A8FFF70CFF00F030F852
:100700001549800040188038C06F039000F028F829
:100710001249800040188038C06F6946087403A8E9
:10072000FFF7F8FE032069460095087148718C7147
:10073000CC714C72087201208872684600F0E4F8AF
:10074000002000F0C7F9012000F094F805B030BD9A
:10075000D80B0410DC0B0410E00B0410E40B0410A5
:100760000148007870470000D002002001490120B4
:1007700008707047D002002070B50D460B49044642
:10078000084203D188210A4800F0F6F9094E002DED
:1007900005D0012D07D08921054800F0EDF9306A18
:1007A000A043306270BD306A2043FAE79F3F0F00DC
:1007B000300C0410000090407047000010B52A492A
:1007C000082088800321481FFFF736FF0321081FF8
:1007D000FFF732FF03210020FFF72EFF0321012046
:1007E000FFF72AFF03210420FFF726FF032105203E
:1007F000FFF722FF00210620FFF71EFF032107203D
:10080000FFF71AFF03210D20FFF716FF03210E202B
:10081000FFF712FF03210F20FFF70EFF0321112026
:10082000FFF70AFF03211220FFF706FF0321132021
:10083000FFF702FF03211420FFF7FEFE032115201E
:10084000FFF7FAFE03211620FFF7F6FE032117201B
:10085000FFF7F2FE01210846FFF7F6FD04490348C1
:10086000086262B610BD00000000104066000E0075
:100870000000904010B5094C002809D0012803D091
:100880005821074800F078F9206B0121084302E065
:10089000206B40084000206310BD00000000304085
:1008A000780C041070B5144D044601281ED0082C95
:1008B0001CD0102C1AD0202C18D0402C16D0802CF4
:1008C00014D00E4884420DD0C01F84420AD0401C70
:1008D000844207D0801C844204D0FF214C31084858
:1008E00000F04AF9002C01DA686800E0288B20400B
:1008F00000D0012070BD00000000304008000080E2
:10090000780C04107047000070B5044600686D490B
:10091000401E884203D98C216B4800F02DF92079C4
:10092000002809D0012807D0022805D0032803D0C9
:100930008D21654800F020F96079002809D0012850
:1009400007D0022805D0032803D08E215E4800F08E
:1009500013F9A079002805D0012803D08F215A4827
:1009600000F00AF9E079002807D0012805D0022814
:1009700003D09021544800F0FFF8207A032803D9CF
:100980009121514800F0F8F8607A032803D99221A8
:100990004D4800F0F1F8A07A002805D0012803D0D6
:1009A0009321494800F0E8F8206801014748FFF723
:1009B0002BFC41020A0C46498A80D201801A01268A
:1009C000C003F6038019000C3F2802D9401C8006A2
:1009D000800E0872087B22799F2392071840520EDE
:1009E000104308733A482038027F1A4063799B0706
:1009F0005B0E1A4302770A7BA379F725DB072A40AF
:100A00001B0F1A430A73027FA3792A40DB071B0FCF
:100A10001A430277E279002A43D00223022A0A7B92
:100A200044D01A430A730D7B042215430D73057FCE
:100A30001D430577037F13430377026B01235B029A
:100A40009A43237ADB079B0D1A430263026BFF2351
:100A500001339A43237A9B07DB0F1B021A4302637D
:100A6000026B01239B039A43637ADB075B0C1A43F7
:100A70000263026B637AB2439B07DB0FDB031A430B
:100A800002630B7BA57AEF22ED071340ED0E2B439B
:100A90000B73017F1140A27AD207D20E1143017766
:100AA00070BD0B7BFD2213400B7308E01A430A73E1
:100AB0000D7BFB2215400D73057F1D430577037FDA
:100AC0001340B9E73F420F00780C04100000127A7F
:100AD0002000304010B5040010D0012C0ED0022CA4
:100AE0000CD0032C0AD0042C08D0052C06D0062CE0
:100AF00004D0FF21D031064800F03EF80549087DBA
:100B0000C72210406207920E1043087510BD000006
:100B1000780C04102000304010B50446064884428A
:100B200004D9FF210831054800F026F8E005044902
:100B3000C00D088010BD0000FF010000780C0410FB
:100B4000000030407047000010B50848007A0028C7
:100B500009D107480089052805D9064901200870F0
:100B6000FFF7F7FAFEE7012010BD000000009040FB
:100B7000000010480C000020FEE710B5C0B2FFF7DF
:100B800094FD012010BD00000024FFF717FEFFF7C1
:100B9000EDFDE1204002FFF793FD054D05A0FFF7B5
:100BA00025FB2946601CFFF72FFB0C00F9D1F5E768
:100BB000FFFF0F0048656C6C6F20576F726C643AD2
:100BC00020426C75654E52472D312069732068654F
:100BD000726521200D0A00000001000001000000E4
:100BE00000080000010000002E2E5C2E2E5C2E2E30
:100BF0005C2E2E5C2E2E5C2E2E5C4C696272617215
:100C0000795C426C75654E5247315F506572697010
:100C1000685F4472697665725C7372635C426C757E
:100C2000654E5247315F6770696F2E6300000000A8
:100C30002E2E5C2E2E5C2E2E5C2E2E5C2E2E5C2EEE
:100C40002E5C4C6962726172795C426C75654E52C1
:100C500047315F5065726970685F4472697665728A
:100C60005C7372635C426C75654E5247315F737999
:100C7000734374726C2E63002E2E5C2E2E5C2E2E0F
:100C80005C2E2E5C2E2E5C2E2E5C4C696272617284
:100C9000795C426C75654E5247315F506572697080
:100CA000685F4472697665725C7372635C426C75EE
:100CB000654E5247315F756172742E63000000000B
:100CC000200D04100800002004000000040104109E
:100CD000240D04100C000020040000000401041086
:100CE000280D04101000002004000000040104106E
:100CF0002C0D04103000002004000000040104103A
:100D0000300D0410C00000200C0200000604041086
:100D1000380D0410CC02002014000000040104105F
:100D200000000000000000000000041000000000AF
:100D300001FF01FF011100000000000000000000A1
:0C0D4000000000000000000000000000A7
:04000005100400C122
:00000001FF
