:020000041004E6
:100000000060002001060410B3050410A5050410CB
:10001000AA5555AA45554C420000000000000000BA
:100020000000000000000000000000002506041091
:100030000000000000000000FD050410210704106E
:100040008D040410F90504100000000000000000F9
:100050006D08041023060410A3030410B90A041049
:100060000000000000000000000000000000000090
:1000700000000000A1030410A9050410A705041046
:1000800000000000AB050410AD050410AF0504101E
:10009000B105041021060410FB050410A50304108B
:1000A0000000000000000000000000000000000050
:1000B0000000000000000000000000000000000040
:1000C00000F002F800F066F80CA030C808382418D8
:1000D0002D18A246671EAB4654465D46AC4201D180
:1000E00000F058F87E460F3E0FCCB646012633424C
:1000F00000D0FB1AA246AB46334318470C0B000056
:100100006C0B0000103A02D378C878C1FAD85207B5
:1001100001D330C830C101D504680C6070470000BD
:10012000F0B543464C4655465E466746F8B4104C1B
:100130006B4623600F4C20680F4C20600F4C2068EA
:100140000F4C20600F4C20680F4C2060BFF34F8F86
:1001500030BF074C2468A546F8BC9846A146AA467D
:10016000B346BC46F0BD00BF30BF00BF70470000C3
:100170000800002004ED00E0D002002024ED00E0A3
:10018000D402002000E200E0D80200201FB51FBD0D
:1001900010B510BD03488546FFF7F8FF00F0A7FC37
:1001A00000F0D1F80060002003B4FFF7F1FF03BCBA
:1001B00000F0D2F870B505460C46164602E00FCCAA
:1001C0000FC5103E102EFAD2082E02D303CC03C561
:1001D000083E042E07D301CC01C5361F03E0217869
:1001E0002970641C6D1C761EF9D270BD00220309B3
:1001F0008B422CD3030A8B4211D300239C464EE042
:1002000003460B433CD4002243088B4231D30309FD
:100210008B421CD3030A8B4201D394463FE0C309AF
:100220008B4201D3CB01C01A524183098B4201D3C7
:100230008B01C01A524143098B4201D34B01C01AB2
:10024000524103098B4201D30B01C01A5241C3082A
:100250008B4201D3CB00C01A524183088B4201D399
:100260008B00C01A524143088B4201D34B00C01A85
:100270005241411A00D201465241104670475DE09A
:10028000CA0F00D04942031000D34042534000221D
:100290009C4603098B422DD3030A8B4212D3FC22C6
:1002A000890112BA030A8B420CD3890192118B4245
:1002B00008D3890192118B4204D389013AD092115B
:1002C00000E08909C3098B4201D3CB01C01A524116
:1002D00083098B4201D38B01C01A524143098B42DF
:1002E00001D34B01C01A524103098B4201D30B01C8
:1002F000C01A5241C3088B4201D3CB00C01A5241ED
:1003000083088B4201D38B00C01A5241D9D24308D3
:100310008B4201D34B00C01A5241411A00D2014610
:10032000634652415B10104601D34042002B00D57A
:100330004942704763465B1000D3404201B500203C
:10034000C046C04602BD10B50446C046C046204661
:10035000FFF72AFF10BD000001491820ABBEFEE7E1
:1003600026000200704730B58C180278401C130735
:100370001B0F01D10378401C120906D10278401CE2
:1003800003E00578401C0D70491C5B1EF9D101E0AB
:100390000B70491C521EFBD1A142E6D3002030BD98
:1003A0007047704770470000F3B587B004461C22C1
:1003B0002AA16846FFF7FEFE092101232E4AC9063D
:1003C000002C32D044206D46A8732C48057A1D437A
:1003D00005725B206D4628754C20E872202028723B
:1003E000B2206874264DA86A264E070CB74204D185
:1003F0004007400E6F460B30F875686A050CB54231
:100400000AD16E467579CF2635406E46757175797D
:100410008007800E054375716846012580B22D0462
:100420004019C860C868C003FCD4108B0028FCD0F9
:10043000138317209081002010610898002806D0AF
:100440000869102210400B6913408342FBD0002C36
:1004500002D00D491520087009B0F0BD023F00021E
:100460003E30023C20023B4C023A400239B2023498
:100470005B02350B00000000000010480000204027
:10048000C007001055AA00000000C04070470000DF
:1004900070B504460068800103D17921404800F01E
:1004A00025FB207900280BD0062809D0012807D089
:1004B000042805D0052803D07A21394800F016FB1E
:1004C000A079002805D0012803D07B21344800F012
:1004D0000DFB6079002805D0012803D07C2130482D
:1004E00000F004FB2088C00406D52079062803D13B
:1004F0007F212B4800F0FAFA2088800406D5207965
:10050000062803D18021264800F0F0FA2079012244
:100510009207002802D0062804D009E0506821681C
:10052000884304E00020207150682168084350602F
:1005300000200F262168C140C907C90F19D008281B
:1005400009D2D36A810035468D40AB4325798D4071
:100550002B43D3620DE001460839082909D28100F6
:1005600035462039136B8D40AB4325798D402B43A5
:100570001363401CC0B21A28DCD360790128D0680C
:10058000216809D08843D060A0790128906821684B
:1005900004D08843906070BD0843F4E70843F9E74E
:1005A000300B0410FEE77047704770477047704784
:1005B000704770478307FF22DB0E9A408907090EB8
:1005C000994000280BDA0007000F08388308084814
:1005D0009B001818C36993430B43C361704783089A
:1005E00004489B001818036893430B43036070474B
:1005F00000ED00E000E400E0704770477047000045
:1006000010B500F05BFA012805D0044880F3088893
:1006100000F06DFA10BDFFF753FD10BD0060002023
:10062000704770477047000030B5054685B001211E
:10063000092000F055F800F047F81F4980004018E5
:100640008038C06F039000F03FF81C4980004018CC
:100650008038C06F6946087400248C744C7403A8F9
:10066000FFF716FF00F030F8154980004018803879
:10067000C06F039000F028F81249800040188038BD
:10068000C06F6946087403A8FFF702FF032069469C
:100690000095087148718C71CC714C720872012000
:1006A0008872684600F0E4F8002000F0CDF90120DF
:1006B00000F094F805B030BD200B0410240B04109A
:1006C000280B04102C0B0410014800787047000020
:1006D000CC0200200149012008707047CC020020A4
:1006E00070B50D460B490446084203D188210A48DB
:1006F00000F0FCF9094E002D05D0012D07D089210D
:10070000054800F0F3F9306AA043306270BD306AEA
:100710002043FAE79F3F0F00780B04100000904041
:100720007047000010B52A49082088800321481F1F
:10073000FFF740FF0321081FFFF73CFF03210020C4
:10074000FFF738FF03210120FFF734FF03210420C6
:10075000FFF730FF03210520FFF72CFF00210620C3
:10076000FFF728FF03210720FFF724FF03210D20B7
:10077000FFF720FF03210E20FFF71CFF03210F20AE
:10078000FFF718FF03211120FFF714FF03211220A8
:10079000FFF710FF03211320FFF70CFF03211420A4
:1007A000FFF708FF03211520FFF704FF03211620A0
:1007B000FFF700FF03211720FFF7FCFE0121084689
:1007C000FFF7F2FD04490348086262B610BD00005D
:1007D0000000104066000E000000904010B5094C6B
:1007E000002809D0012803D05821074800F07EF9DD
:1007F000206B0121084302E0206B40084000206389
:1008000010BD000000003040C00B041070B5144D46
:10081000044601281ED0082C1CD0102C1AD0202CE5
:1008200018D0402C16D0802C14D00E4884420DD005
:10083000C01F84420AD0401C844207D0801C8442DE
:1008400004D0FF214C31084800F050F9002C01DAA7
:10085000686800E0288B204000D0012070BD0000B7
:100860000000304008000080C00B041070470000FA
:1008700070B5044600686D49401E884203D98C213A
:100880006B4800F033F92079002809D0012807D0FF
:10089000022805D0032803D08D21654800F026F9F1
:1008A0006079002809D0012807D0022805D0032844
:1008B00003D08E215E4800F019F9A079002805D0F8
:1008C000012803D08F215A4800F010F9E079002860
:1008D00007D0012805D0022803D09021544800F009
:1008E00005F9207A032803D99121514800F0FEF838
:1008F000607A032803D992214D4800F0F7F8A07AD6
:10090000002805D0012803D09321494800F0EEF8D3
:10091000206801014748FFF769FC41020A0C46497B
:100920008A80D201801A0126C003F6038019000CC8
:100930003F2802D9401C8006800E0872087B22796D
:100940009F2392071840520E104308733A482038EC
:10095000027F1A4063799B075B0E1A4302770A7B7A
:10096000A379F725DB072A401B0F1A430A73027F7E
:10097000A3792A40DB071B0F1A430277E279002A8A
:1009800043D00223022A0A7B44D01A430A730D7B08
:10099000042215430D73057F1D430577037F134321
:1009A0000377026B01235B029A43237ADB079B0DDB
:1009B0001A430263026BFF2301339A43237A9B0796
:1009C000DB0F1B021A430263026B01239B039A4352
:1009D000637ADB075B0C1A430263026B637AB243F0
:1009E0009B07DB0FDB031A4302630B7BA57AEF2225
:1009F000ED071340ED0E2B430B73017F1140A27ADC
:100A0000D207D20E1143017770BD0B7BFD2213403C
:100A10000B7308E01A430A730D7BFB2215400D731C
:100A2000057F1D430577037F1340B9E73F420F0061
:100A3000C00B04100000127A2000304001480088EA
:100A4000C0B270470000304010B5040010D0012C37
:100A50000ED0022C0CD0032C0AD0042C08D0052C6C
:100A600006D0062C04D0FF21D031064800F03EF815
:100A70000549087DC72210406207920E1043087591
:100A800010BD0000C00B04102000304010B504461B
:100A90000648844204D9FF210831054800F026F8B1
:100AA000E0050449C00D088010BD0000FF010000F2
:100AB000C00B0410000030407047000010B508481B
:100AC000007A002809D107480089052805D9064978
:100AD00001200870FFF73DFBFEE7012010BD00007C
:100AE00000009040000010480C000020FEE7FFF7D7
:100AF00019FEFFF7EFFDE1204002FFF795FD102002
:100B0000FFF784FE0128FAD0FFF798FFC4B28020D7
:100B1000FFF77CFE0028FAD02046FFF7B7FFEEE78C
:100B200000010000010000000008000001000000BA
:100B30002E2E5C2E2E5C2E2E5C2E2E5C2E2E5C2EEF
:100B40002E5C4C6962726172795C426C75654E52C2
:100B500047315F5065726970685F4472697665728B
:100B60005C7372635C426C75654E5247315F6770AF
:100B7000696F2E63000000002E2E5C2E2E5C2E2E40
:100B80005C2E2E5C2E2E5C2E2E5C4C696272617285
:100B9000795C426C75654E5247315F506572697081
:100BA000685F4472697665725C7372635C426C75EF
:100BB000654E5247315F7379734374726C2E6300D4
:100BC0002E2E5C2E2E5C2E2E5C2E2E5C2E2E5C2E5F
:100BD0002E5C4C6962726172795C426C75654E5232
:100BE00047315F5065726970685F447269766572FB
:100BF0005C7372635C426C75654E5247315F756120
:100C000072742E6300000000680C041008000020BD
:100C100004000000040104106C0C04100C000020FF
:100C20000400000004010410700C041010000020E7
:100C30000400000004010410740C041030000020B3
:100C40000400000004010410780C0410C00000200F
:100C50000C02000066030410800C0410CC0200207B
:100C6000100000000401041000000000000000005B
:100C7000000004100000000001FF01FF011100004E
:100C80000000000000000000000000000000000064
:04000005100400C122
:00000001FF
