:020000040800F2
:10000000080C00205D2800083D2700083F27000855
:10001000892800088D2800089128000800000000A9
:100020000000000000000000000000004127000860
:100030004327000800000000452700084727000864
:1000400095280008992800089D280008A128000884
:10005000A5280008A92800084D230008AD2800089D
:10006000B1280008B5280008B9280008BD280008F4
:10007000C1280008C5280008C9280008CD280008A4
:10008000D1280008D5280008D9280008DD28000854
:10009000E1280008E5280008E9280008ED28000804
:1000A00000000000F1280008F5280008F9280008E1
:1000B000FD28000801290008052900080929000871
:1000C0000D29000811290008152900081929000820
:1000D0001D290008572700084F270008212900087C
:1000E0006527000825290008292900082D2900086E
:1000F0003129000838B5040000252078C00740F1F8
:10010000EA80DFF8080D006810F00C0008280BD01A
:10011000DFF8F80C006810F00C000C2827D1DFF88D
:10012000EC0C0068C00322D54FF48040B0FA80F098
:1001300050F02000C0B24009C0B2012803D1DFF85E
:100140007C08006802E0DFF8CC0C00684FF48041C6
:10015000B1FA81F111F01F01C840C00740F1BB8026
:100160006068002840F0B780012000F024BCDFF870
:100170004C08006830F48030DFF840180860DFF881
:100180003C08006830F48020DFF83018086000F088
:1001900031FF05004FF48040B0FA80F050F02000AD
:1001A000C0B24009C0B2012803D1DFF810080068CE
:1001B00002E0DFF8600C00684FF48041B1FA81F191
:1001C00011F01F01C840C00708D500F013FF401B05
:1001D00041F289318842DDD30320ECE3DFF8DC070C
:1001E000006830F48030DFF8D417086060680128B8
:1001F00010D1DFF8C807006830F48020DFF8BC17A2
:100200000860DFF8B807006850F48030DFF8AC17FA
:1002100008600FE06068052804D16068DFF8A01C62
:10022000087007E0DFF89407006830F48020DFF8FA
:100230008C1708606068002826D000F0DBFE0500FF
:100240004FF48040B0FA80F050F02000C0B2400976
:10025000C0B2012803D1DFF86407006802E0DFF8CC
:10026000B40B00684FF48041B1FA81F111F01F0125
:10027000C840C0072FD400F0BDFE401B41F28931B9
:100280008842DDD3032096E300F0B4FE05004FF46E
:100290008040B0FA80F050F02000C0B24009C0B2F7
:1002A000012803D1DFF81407006802E0DFF8640BCF
:1002B00000684FF48041B1FA81F111F01F01C8408C
:1002C000C00708D500F096FE401B41F289318842F4
:1002D000DDD303206FE32078800740F1B680DFF89C
:1002E0002C0B006810F00C0004280BD0DFF81C0B5E
:1002F000006810F00C000C2835D1DFF8100B0068F6
:10030000C00330D45FF08040B0FA80F050F020009D
:10031000C0B24009C0B2012803D1DFF8A0060068CE
:1003200002E0DFF8F00A00685FF08041B1FA81F185
:1003300011F01F01C840C00704D5E068012801D0B2
:10034000012038E3DFF8C80A00685FF47801B1FAE9
:1003500081F130F4F850226912FA01F10843DFF814
:10036000B01A086071E0E06800283FD001205FF01B
:100370000041B1FA81F1DFF8B42B12EB8101086082
:1003800000F038FE05005FF08040B0FA80F050F0D9
:100390002000C0B24009C0B2012803D1DFF81C061A
:1003A000006802E0DFF86C0A00685FF08041B1FA93
:1003B00081F111F01F01C840C00706D400F01AFEF9
:1003C000401B6528DFD30320F5E2DFF8440A00680C
:1003D0005FF47801B1FA81F130F4F850226912FA31
:1003E00001F10843DFF8281A08602EE000205FF0D2
:1003F0000041B1FA81F1DFF8342B12EB8101086082
:1004000000F0F8FD05005FF08040B0FA80F050F099
:100410002000C0B24009C0B2012803D1DFF89C051A
:10042000006802E0DFF8EC0900685FF08041B1FA93
:1004300081F111F01F01C840C00706D500F0DAFDB8
:10044000401B6528DFD30320B5E22078C00640F1C9
:10045000EE80DFF8B809006810F00C0F6CD15FF483
:100460008000B0FA80F050F02000C0B24009C0B265
:10047000012803D1DFF84405006802E0DFF89409A1
:1004800000685FF48001B1FA81F111F01F01C840EA
:10049000C00704D5A069002801D101208BE2DFF854
:1004A0007009006810F46040216A884220D2206AF6
:1004B00000F03EFD002801D001207CE2DFF8500969
:1004C000006830F46040216A0843DFF8441908608E
:1004D000DFF83C090068FF21B1FA81F120F07F408C
:1004E000E26912FA01F10843DFF8241908601FE0FD
:1004F000DFF81C09006830F46040216A0843DFF827
:1005000010190860DFF808090068FF21B1FA81F1CD
:1005100020F07F40E26912FA01F10843DFF8F01899
:100520000860206A00F004FD002801D0012042E2AA
:10053000002000F065FD7AE0A069002848D0012085
:100540005FF40001B1FA81F1DFF8E02912EB8101DB
:10055000086000F04FFD05005FF48000B0FA80F005
:1005600050F02000C0B24009C0B2012803D1DFF82A
:100570004C04006802E0DFF89C0800685FF480012A
:10058000B1FA81F111F01F01C840C00706D400F094
:1005900031FD401B6528DFD303200CE2DFF8700833
:1005A000006830F46040216A0843DFF8641808608E
:1005B000DFF85C080068FF21B1FA81F120F07F408C
:1005C000E26912FA01F10843DFF8441808602EE0EE
:1005D00000205FF40001B1FA81F1DFF8502912EB3D
:1005E0008101086000F006FD05005FF48000B0FAAC
:1005F00080F050F02000C0B24009C0B2012803D101
:10060000DFF8B803006802E0DFF8080800685FF46C
:100610008001B1FA81F111F01F01C840C00706D571
:1006200000F0E8FC401B6528DFD30320C3E12078FD
:1006300000074AD56069002823D001205FF00041FF
:10064000B1FA81F1DFF8782912EB8101086000F03E
:10065000D1FC05005FF08040B0FA80F0DFF8B4070D
:1006600000685FF08041B1FA81F111F01F01C840CC
:10067000C0072AD400F0BEFC401B6528EAD3032043
:1006800099E100205FF00041B1FA81F1DFF83029F3
:1006900012EB8101086000F0ADFC05005FF08040C6
:1006A000B0FA80F0DFF86C0700685FF08041B1FAC3
:1006B00081F111F01F01C840C00706D500F09AFC77
:1006C000401B6528EAD3032075E12078400740F1FC
:1006D000D180DFF8F008006850F08050DFF8E418AF
:1006E0000860DFF8E008006810F080500090009883
:1006F000DFF8D408006850F48070DFF8CC18086088
:1007000000F078FC0500DFF8C0080068C00506D4DA
:1007100000F070FC401B6528F5D303204BE1DFF8A7
:10072000F406006830F48070DFF8E8160860DFF83F
:10073000E406006830F48060DFF8D816086000F046
:1007400059FC05005FF48000B0FA80F0DFF8C406C1
:1007500000685FF48001B1FA81F111F01F01C84017
:10076000C00708D500F046FC401B41F289318842A1
:10077000E8D303201FE1A068012808D1DFF8940620
:10078000006850F48070DFF88C16086037E0A068CD
:10079000002810D1DFF87C06006830F48070DFF8A4
:1007A00074160860DFF86C06006830F48060DFF8CB
:1007B0006416086023E0A068052810D1DFF854060D
:1007C000006850F48060DFF84C160860DFF84406DB
:1007D000006850F48070DFF83C1608600FE0DFF826
:1007E0003406006830F48070DFF828160860DFF8FF
:1007F0002406006830F48060DFF818160860A068EE
:1008000000281BD000F0F6FB05005FF48000B0FA72
:1008100080F0DFF8000600685FF48001B1FA81F132
:1008200011F01F01C840C00724D400F0E3FB401BB7
:1008300041F289318842E8D30320BCE000F0DAFBC2
:1008400005005FF48000B0FA80F0DFF8C8050068AA
:100850005FF48001B1FA81F111F01F01C840C007B7
:1008600008D500F0C7FB401B41F289318842E8D32C
:100870000320A0E0606A002800F09C80DFF88C056F
:10088000006810F00C000C2800F09280606A0228CA
:1008900063D100208021B1FA81F1DFF8902612EBBC
:1008A0008101086000F0A6FB05004020B0FA80F04E
:1008B00050F02000C0B24009C0B2012802D13F4828
:1008C000006802E0DFF84C0500684021B1FA81F1D0
:1008D00011F01F01C840C00706D500F08BFB401B7C
:1008E0006528E2D3032066E0DFF82005006830F4D5
:1008F0007D00A16A0843E16A0843216B0843DFF8E1
:100900000C15086001208021B1FA81F1DFF81C2666
:1009100012EB8101086000F06DFB05004020B0FA89
:1009200080F050F02000C0B24009C0B2012802D1CE
:100930002248006802E0DFF8DC0400684021B1FAD8
:1009400081F111F01F01C840C00733D400F052FB01
:10095000401B6528E2D303202DE000208021B1FA5E
:1009600081F1DFF8C82512EB8101086000F042FB3D
:1009700005004020B0FA80F050F02000C0B24009DD
:10098000C0B2012802D10D48006802E0DFF88404FB
:1009900000684021B1FA81F111F01F01C840C00781
:1009A00008D500F027FB401B6528E2D3032002E0B6
:1009B000012000E0002032BD0000000000380240AD
:1009C00070B504000D000026DFF80006006810F086
:1009D0000100A84280F00181012D07D1DFF8EC056C
:1009E000006850F00400DFF8E4150860DFF8DC056B
:1009F0000068400840002843DFF8D0150860DFF8A1
:100A0000CC05006810F00100A84201D00120FCE1F3
:100A10002078800709D5DFF8B805006830F0F000CD
:100A2000A1680843DFF8A81508602078C00740F1E6
:100A3000CD81606802281CD14FF48040B0FA80F06C
:100A400050F02000C0B24009C0B2012803D1DFF845
:100A50008405006802E0DFF8BC0300684FF48041C1
:100A6000B1FA81F111F01F01C840C0075CD4012028
:100A7000CBE1606803281AD14020B0FA80F050F032
:100A80002000C0B24009C0B2012803D1DFF84405FC
:100A9000006802E0DFF87C0300684021B1FA81F1D0
:100AA00011F01F01C840C0073ED40120ADE16068CD
:100AB00001281CD15FF08040B0FA80F050F0200097
:100AC000C0B24009C0B2012803D1DFF808050068B0
:100AD00002E0DFF8400300685FF08041B1FA81F185
:100AE00011F01F01C840C0071ED401208DE15FF442
:100AF0008000B0FA80F050F02000C0B24009C0B2CF
:100B0000012803D1DFF8CC04006802E0DFF8040319
:100B100000685FF48001B1FA81F111F01F01C84053
:100B2000C00701D4012070E1DFF8A4040068800848
:100B3000800061680843DFF89814086000F05AFAF2
:100B400006006068022810D1DFF88404006810F005
:100B50000C00082800F03A8100F04CFA801B41F2AA
:100B600089318842F0D303204FE16068032810D117
:100B7000DFF85C04006810F00C000C2800F02681FF
:100B800000F038FA801B41F289318842F0D303200B
:100B90003BE16068012810D1DFF83404006810F0F0
:100BA0000C00042800F0128100F024FA801B41F2AE
:100BB00089318842F0D3032027E1DFF8140400686C
:100BC00010F00C0F00F0028100F014FA801B41F2CB
:100BD00089318842F1D3032017E12078800709D5B5
:100BE000DFF8EC03006830F0F000A1680843DFF89C
:100BF000E01308602078C00740F1CC8060680228CC
:100C00001BD14FF48040B0FA80F050F02000C0B209
:100C10004009C0B2012803D1DFF8B803006801E041
:100C20007C4800684FF48041B1FA81F111F01F0156
:100C3000C840C00759D40120E7E06068032819D1F3
:100C40004020B0FA80F050F02000C0B24009C0B29D
:100C5000012803D1DFF87C03006801E06D480068DB
:100C60004021B1FA81F111F01F01C840C0073CD406
:100C70000120CAE0606801281BD15FF08040B0FA13
:100C800080F050F02000C0B24009C0B2012803D16A
:100C9000DFF84003006801E05E4800685FF08041D3
:100CA000B1FA81F111F01F01C840C0071DD4012025
:100CB000ABE05FF48000B0FA80F050F02000C0B2EA
:100CC0004009C0B2012803D1DFF80803006801E041
:100CD000504800685FF48001B1FA81F111F01F0102
:100CE000C840C00701D401208FE0DFF8E4020068AB
:100CF0008008800061680843DFF8D412086000F0C3
:100D000079F90600606802280FD1DFF8C402006894
:100D100010F00C0008283DD000F06CF9801B41F267
:100D200089318842F1D303206FE0606803280FD136
:100D3000DFF89C02006810F00C000C282AD000F0AC
:100D400059F9801B41F289318842F1D303205CE0DC
:100D5000606801280FD1DFF87802006810F00C00FD
:100D6000042817D000F046F9801B41F289318842EF
:100D7000F1D3032049E0DFF85802006810F00C0FAF
:100D800008D000F037F9801B41F289318842F2D354
:100D900003203AE0012D07D1DFF83002006850F05F
:100DA0000400DFF828120860DFF82002006840081D
:100DB00040002843DFF814120860DFF810020068D2
:100DC00010F00100A84201D001201EE02078400769
:100DD00009D5DFF8FC01006830F4E060E168084301
:100DE000DFF8EC110860207800070AD5DFF8E00191
:100DF000006830F46050216950EAC100DFF8D0117A
:100E00000860002000F0FCF8002070BD08380240A7
:100E10000438024034380240F0B40021002200239C
:100E20000024002500206A4E3668310011F00C06BF
:100E3000042E04D0082E05D00C2E06D02CE0664ED1
:100E400030003AE0654E300037E0654E11F470171F
:100E50004FF4705CBCFA8CFC37FA0CF7F65D32008C
:100E6000604E11F440074FF4407CBCFA8CFC37FA1A
:100E70000CF7F65D3300564E3668F60305D5B2FB27
:100E8000F3F6564F7E43340004E0B2FBF3F6524FC4
:100E90007E433400200010E0534E366816F460465E
:100EA0005FF4E027B7FA87F7FE40350001266F1C94
:100EB000BE404FF400477E433000F0BC7047000056
:100EC0000238024080B5FFF7A7FF41490968474A49
:100ED00011F0F0015FF07063B3FA83F3D940515C15
:100EE000C840434908604248006802BD80B5FFF72A
:100EF000E9FF374909683D4A11F4E0615FF4600396
:100F0000B3FA83F3D940515CC84002BD80B5FFF706
:100F1000D9FF2F490968354A11F460515FF4E01395
:100F2000B3FA83F3D940515CC84002BD0000474288
:100F300070B582B00400002500262548006810F036
:100F4000F00F24D11F480068C00003D500F06AF8F4
:100F5000050014E01B48006850F0805019490860F3
:100F60001848006810F080500090009800F05AF87F
:100F700005001448006830F0805012490860B5F54B
:100F8000C05F04D1B4F5404F01D101200600012E0D
:100F900005D10E48006850F004000C4908600B4869
:100FA000006840084000304308490860074800686E
:100FB00010F00100B04201D0012000E0002076BD19
:100FC000800647422438024000700040003C024046
:100FD00008380240003802400024F40000127A0071
:100FE0006C28000884280008043802404C280008B7
:100FF0000000002001480068704700BF88150020ED
:1010000010B50400FFF75EFF4FF47A71B0FBF1F00A
:1010100000F0A9F8002221005FF0FF3000F082F814
:10102000002010BD0248006810F4C0507047000056
:101030000070004010F007024E4B1B6819004FF67D
:10104000FF0319404C4B53EA02231943494B1960E3
:10105000704748480068C0F302207047012110F033
:101060001F029140454A40B2430942F8231070479D
:10107000012110F01F029140414A40B2430942F859
:101080002310704710B440B2002808D50A013D4B28
:1010900040B210F00F04234403F8042C03E00A01CB
:1010A000394B40B21A5410BC704770B4030013F0AF
:1010B0000704D4F10706052E01D3042001E0D4F182
:1010C0000700261D072E01D2002500E0E51E01269F
:1010D00016FA00F0401E0840A8400121A940491E10
:1010E0001140084370BC704710B50400601EB0F199
:1010F000807F01D301200EE0601E244908600F218B
:101100005FF0FF30FFF7BEFF002021490860072095
:1011100020490860002010BD10B504002000FFF732
:1011200089FF10BDF8B504000D0016000027FFF779
:1011300090FF0700320029003800FFF7B6FF0100DA
:10114000200040B2FFF79EFFF1BD10B50400200063
:1011500040B2FFF783FF10BD10B50400200040B27D
:10116000FFF786FF10BD10B504002000FFF7BCFF9D
:1011700010BD00000CED00E00000FA0500E100E009
:1011800080E100E018ED00E000E400E014E000E0A1
:1011900018E000E010E000E010B50400002C01D1E0
:1011A000012030E0A0690028FFD194F83900002820
:1011B00005D1002084F83800200000F01DFC02203A
:1011C00084F839002068C06830F400502168C86095
:1011D000200000F0D1FA2068006930F490402168C6
:1011E00008612068406930F02A0021684861206861
:1011F000C06850F400502168C8600020E0630120FE
:1012000084F83900002010BD10B50400002C01D175
:1012100001201DE0022084F839002068C06830F405
:1012200000502168C86000202168C8600020216843
:101230000861002021684861200000F061FC002066
:10124000E063002084F83900002084F83800002092
:1012500010BD2DE9F84304000D0016001F005FF0DB
:10126000000994F839008146B9F1010F02D0B9F1B3
:10127000220F69D1002D02D0B6B2002E01D101207B
:1012800063E094F83800012801D102205DE00120DC
:1012900084F838000020E06394F83900222803D154
:1012A000322084F8390002E0122084F83900A68444
:1012B000E684E08C00282DD0E08C401EE084A068FD
:1012C000B0F5805F17D13B0000228021200000F0A4
:1012D00024F9002801D0032037E0A846B8F8000020
:1012E000C005C00D216848602069002801D1AD1CEF
:1012F000DFE76D1CDDE73B0000228021200000F0CD
:101300000CF9002801D003201FE0287821684860EC
:101310006D1CCEE73B0000224021200000F0FDF8CC
:10132000002801D0032010E094F83900322803D1BE
:10133000222084F8390002E0012084F839000020DE
:1013400084F83800002000E00220BDE8F28330B4C9
:101350000300002493F839000400012C01D0122C62
:1013600036D1002902D092B2002A01D1012030E00A
:1013700093F83800012801D102202AE0012083F8E7
:10138000380099629A85DA850020D86393F839008D
:10139000122803D1322083F8390002E0222083F89A
:1013A0003900002083F838001868C06850F4807055
:1013B0001D68E8601868406950F001001D686861A8
:1013C0001868C06850F020001D68E860002000E048
:1013D000022030BC704770B582B0040000250026A2
:1013E0002068006810F0010005002068C06810F453
:1013F00080700600002D0CD0002E0AD020680068F6
:1014000000902068406800900098E06B50F0010068
:10141000E06320680068400810F0010005002068C3
:10142000406910F001000600002D0CD0002E0AD0FB
:101430002068006800902068406800900098E06B89
:1014400050F00400E06320680068800810F001009C
:101450000500002D0CD0002E0AD0206800680090F6
:101460002068406800900098E06B50F00200E06354
:1014700020680068C00810F001000500002D0CD0A5
:10148000002E0AD020680068009020684068009014
:101490000098E06B50F00800E063206800684009A5
:1014A00010F0010005002068C06810F02000060060
:1014B000002D04D0002E02D0200000F0FAF82068A1
:1014C0000068C00910F0010005002068C06810F035
:1014D00080000600002D04D0002E02D0200000F075
:1014E0008DF820680068800910F001000500206870
:1014F000C06810F040000600002D04D0002E02D07D
:10150000200000F0B8F8E06B002805D0012084F836
:101510003900200000F042FB73BD2DE9F0410400CA
:101520000D0016001F005FF00008FFF763FD804606
:10153000F6B2002E2FD1206800682840A8425AD069
:1015400017F1010FF7D0002F05D0FFF753FDB0EBD7
:1015500008008742EFD22068C06830F08000216820
:10156000C8602068C06830F020002168C86020682A
:10157000C06830F480702168C86020684069400805
:10158000400021684861012084F83900002084F877
:101590003800032030E0206800682840A8422AD1A3
:1015A00017F1010FF7D0002F05D0FFF723FDB0EBA7
:1015B00008008742EFD22068C06830F080002168C0
:1015C000C8602068C06830F020002168C8602068CA
:1015D000C06830F480702168C860206840694008A5
:1015E000400021684861012084F83900002084F817
:1015F0003800032000E00020BDE8F08110B40100B5
:10160000002391F839000300122B01D0322B2FD187
:101610008868B0F5805F11D1086A02001088C005A3
:10162000C00D0C6860600869002803D1086A801C3E
:10163000086209E0086A401C086205E0086A441C68
:101640000C6200780C686060C88C401EC884C88C2E
:1016500000280BD10868C06830F080000C68E0609A
:101660000868C06850F040000C68E060002000E0AE
:10167000022010BC704710B504002068C06830F02C
:1016800040002168C86094F83900322803D1222034
:1016900084F8390008E0206840694008400021686B
:1016A0004861012084F83900200000F09DFA0020F4
:1016B00010BD70B50400002694F839000600222EF3
:1016C00001D0322E56D1A068B0F5805F16D1A06A45
:1016D00005002069002808D120684068C005C00DB9
:1016E0002880A06A801CA0621AE02068406800F090
:1016F000FF002880A06A401CA06211E02069002839
:1017000006D1A06A411CA16221684968017007E006
:10171000A06A411CA1622168496811F07F01017033
:10172000E08D401EE085E08D002821D12068C06852
:1017300030F020002168C86094F83900322803D1C5
:10174000122084F839000EE02068C06830F4807000
:101750002168C860206840694008400021684861ED
:10176000012084F83900200000F0FDF9002002E09B
:10177000002000E0022070BDF8B5040000252068BC
:10178000006930F44050E168084321680861A068AE
:101790002169084361690843E1690843050020683D
:1017A000C0686F49084028432168C86020684069C4
:1017B00030F44070A169084321684861E069B0F5E0
:1017C000004F65D120686749884230D1FFF79EFB02
:1017D0000700FFF79BFB0600FFF798FB192101FBB1
:1017E00007F162685200B1FBF2F16422B1FBF2F141
:1017F000192202FB06F263685B00B2FBF3F21923C5
:10180000584363685B00B0FBF3F06423B0FBF3F074
:10181000642303FB1020000132306422B0FBF2F09D
:1018200010F00F0050EA01102168886095E0FFF782
:101830005DFB0700FFF75AFB0600FFF757FB192176
:1018400001FB07F162685200B1FBF2F16422B1FBC7
:10185000F2F1192202FB06F263685B00B2FBF3F2BD
:101860001923584363685B00B0FBF3F06423B0FBBB
:10187000F3F0642303FB1020000132306422B0FB3C
:10188000F2F010F00F0050EA01102168886064E067
:1018900020683449884230D1FFF738FB0700FFF752
:1018A00035FB0600FFF732FB192101FB07F16268E7
:1018B0009200B1FBF2F16422B1FBF2F1192202FBBA
:1018C00006F263689B00B2FBF3F219235843636886
:1018D0009B00B0FBF3F06423B0FBF3F0642303FB45
:1018E0001020000132306422B0FBF2F010F00F0043
:1018F00050EA0110216888602FE0FFF7F7FA07002F
:10190000FFF7F4FA0600FFF7F1FA192101FB07F1DE
:1019100062689200B1FBF2F16422B1FBF2F119228C
:1019200002FB06F263689B00B2FBF3F219235843F3
:1019300063689B00B0FBF3F06423B0FBF3F0642317
:1019400003FB1020000132306422B0FBF2F010F0F3
:101950000F0050EA011021688860F1BD000000000E
:10196000F369FFFF0038014000B593B0914800686B
:1019700050F080508F4908608E48006810F0805009
:10198000009000988C48006830F4C05050F400601B
:101990008949086089480068C006FBD40220069087
:1019A00010200A900120099002200F900020109032
:1019B0005FF4002011905FF40000129006A8FEF77B
:1019C00099FB0F200190032002900020039000203B
:1019D000049000200590012101A8FEF7F1FF13B04B
:1019E00000BD80B500F002F9FFF7BEFF744800F0BB
:1019F00099F900F0CBF901BD10B586B0040020685C
:101A0000704988423ED17048006850F001006E492C
:101A100008606D48006810F00100009000986A4866
:101A2000006850F00100684908606748006810F0DD
:101A300001000090009804200190022002900120F3
:101A40000390032004900720059001A95F4800F04F
:101A500063FA082001900720059001A95B4800F077
:101A60005BFA4FF4807001900120029000200390F7
:101A7000012004900020059001A9544800F04CFA80
:101A800000F01DFC20685249884237D14E4800685A
:101A900050F001004C4908604B48006810F001000C
:101AA000009000984848006850F0010046490860DE
:101AB0004548006810F00100009000984FF4007055
:101AC0000190022002900020039003200490072040
:101AD000059001A93D4800F01FFA4FF48060019085
:101AE0000720059001A9394800F016FA00220421C8
:101AF0002520FFF717FB2520FFF727FB06B010BDB9
:101B000010B5040020682F49884213D1314800687D
:101B100050F480402F4908602E48006830F480401F
:101B20002C4908600421294800F0DAFA08212748E6
:101B300000F0D6FA20682649884213D14FF400718C
:101B4000224800F0CDFA4FF48061204800F0C8FA36
:101B50004FF400611D4800F0C3FA4FF480511B4858
:101B600000F0BEFA10BD10B504001B48844208D135
:101B70001A48007800F002F9012218492000FFF706
:101B8000E6FB1748844208D10121164800F0D9F835
:101B9000012214492000FFF7DAFB10BD10B5040044
:101BA0000D48844204D101220C492000FFF7CFFBED
:101BB00010BD000024380240007000400470004056
:101BC00071230008004400401C380240000002401D
:101BD0000038014014380240441500200814002049
:101BE00004150020951500207047000080B50B48B3
:101BF000006850F00400094908600848006850F087
:101C00000200064908600320FFF786FA0020FFF76C
:101C1000F7F900F005F8002002BD0000003C02408A
:101C20007047000010B586B00400E4B2002C3CD12F
:101C30004B48006850F40030494908604848006843
:101C400010F40030009000984648006850F0010001
:101C5000444908604348006810F001000090009873
:101C60004048006850F001003E4908603D48006867
:101C700010F00100009000983B483C4908603B4848
:101C8000FFF7C2FA5FF4E130384948600020374975
:101C9000886000203549C860002034490861002070
:101CA000324988610C2031494861042001900220AA
:101CB000029001200390032004900720059001A9C1
:101CC0002B4800F029F9082001900720059001A970
:101CD000274800F021F9002202212620FFF722FAEE
:101CE0002620FFF732FA2148FFF756FA0122214950
:101CF0001E48FFF72CFB06B010BD1C4800680068AA
:101D00000006FAD5704701B5FFF7F7FF052301225A
:101D100069461648FFF79DFA01BD80B51348FFF7E5
:101D20005AFB01BD10B50400134804600020FFF702
:101D300079FF10BD10B504002000C0B2FFF7E3FF2B
:101D400010BD38B504000D000B480068002805D010
:101D5000290089B22000084A1268904731BD00006E
:101D6000243802401C380240004400400415002082
:101D700000000240951500208415002010B50400D5
:101D80002000C0B2FFF7D6FF200010BD80B55B4831
:101D9000006850F48040594908605848006810F4C1
:101DA0008040009000985648564908605FF4E13042
:101DB0005449486000205349886000205149C86058
:101DC0000020504908614FF440704E4988610C2052
:101DD0004C4948614B48FFF717FA002800D0FEE74E
:101DE0000020009000984849884203D20098401C87
:101DF0000090F7E74348FFF7CFF9002800D0FEE74F
:101E0000012242493F48FFF7A2FA01224FF48051D4
:101E10003F4800F00AFA00F003F800F027F801BD8F
:101E200000B585B04FF48050009001200190012052
:101E3000029003200390072004906946344800F084
:101E40006BF805B000BD00B585B04FF48050009030
:101E500002200190012002900320039007200490AB
:101E600069462B4800F058F805B000BD00B585B0B4
:101E70004FF4006000902748019001200290032059
:101E80000390072004906946214800F045F800229D
:101E900003212820FFF746F92820FFF756F905B05F
:101EA00000BD00B585B02820FFF756F94FF400605B
:101EB000009002200190012002900320039007204F
:101EC00004906946124800F027F805B000BD00B53F
:101ED00085B02820FFF740F94FF400600090002003
:101EE000019001200290032003900720049069468E
:101EF000074800F011F805B000BD0000203802408E
:101F00000038014044150020FFFF0F000814002096
:101F1000000002400000311078B4002200230024A9
:101F20000D68D540002D00F0D9800D68012696403F
:101F300035402B00002B00F0CF804D68022D02D0E1
:101F40004D68122D16D1D50800EB85052D6A2C00A1
:101F50000F2512F00706F6B2B600B540AC430D6986
:101F600012F00706F6B2B600B5402C43D50800EBD8
:101F700085052C6205682C0003251600F6B2760054
:101F8000B540AC430D7915F003051600F6B27600A6
:101F9000B5402C4304604D68012D08D04D68022DDA
:101FA00005D04D68112D02D04D68122D19D18568CC
:101FB0002C0003251600F6B27600B540AC43CD6880
:101FC0001600F6B27600B5402C43846045682C00BC
:101FD00001259540AC434D68C5F3001595402C4351
:101FE0004460C5682C0003251600F6B27600B540A3
:101FF000AC438D681600F6B27600B5402C43C46041
:102000004D68ED0068D5954D2D6855F00105934E4E
:102010003560924D2D6815F001050095009D904D9D
:10202000960855F826502C000F2512F00306F6B23C
:10203000B600B540AC438B4DA84201D1002519E054
:10204000894DA84201D1012514E0884DA84201D153
:1020500002250FE0864DA84201D103250AE0854DF7
:10206000A84201D1042505E0834DA84201D10725EE
:1020700000E0082512F00306F6B2B600B5402C4386
:10208000774D960845F826407C4D2D682C009C43E2
:102090004D68ED0300D51C43784D2C60784D2D68BC
:1020A0002C009C434D68AD0300D51C43744D2C603F
:1020B000744D2D682C009C434D68ED0200D51C43E7
:1020C000704D2C60704D2D682C009C434D68AD0206
:1020D00000D51C436C4D2C60521C21E771BC70472D
:1020E000F0B40022002300240D00D540002D00F0A4
:1020F0008E80012595400D402B00002B00F085803F
:10210000056803261700FFB27F00BE40B543056097
:10211000D50800EB8505D60800EB8606366A0F2742
:1021200012F0070C5FFA8CFC5FEA8C0C17FA0CF7C4
:10213000BE432E62856803261700FFB27F00BE40B3
:10214000B5438560456801269640B5434560C5683E
:1021500003261700FFB27F00BE40B543C560404D67
:10216000960855F826502C000F2512F00306F6B2FB
:10217000B600B5402C403B4DA84201D1002519E0E6
:10218000394DA84201D1012514E0384DA84201D1B2
:1021900002250FE0364DA84201D103250AE0354D56
:1021A000A84201D1042505E0334DA84201D10725FD
:1021B00000E0082512F00306F6B2B600B540AC42C6
:1021C00023D10F2512F00306F6B2B600B5402C005D
:1021D000234D960855F82650A543214E970846F8FA
:1021E0002750264D2D689D43244E3560244D2D6883
:1021F0009D43234E3560234D2D689D43214E356010
:10220000214D2D689D43204E3560521C6CE7F0BC7B
:1022100070470200136989B20B4202D001231800F3
:1022200001E000231800C0B27047D2B2002A02D0E9
:1022300089B2816102E089B20B048361704710B5F5
:10224000040012480068A4B2204206D0A4B20F488D
:102250000460200080B200F067F810BD2038024012
:102260000800014000000240000402400008024053
:10227000000C024000100240001402400004014023
:1022800004040140080401400C040140140401400E
:1022900080B500224FF48071DFF88800FFF7C5FF9A
:1022A000052000F058F801224FF48071DFF8740027
:1022B000FFF7BBFF052000F04EF800BF01BD80B561
:1022C00000224FF48071DFF85C00FFF7AEFF01BD24
:1022D00080B500F006F8012000F013F8FFF7D8FFF2
:1022E00001BD00B585B08020009002200190002043
:1022F00002900320039069460A48FFF70DFE05B0DF
:1023000000BD10B50400E4B2012C05D101228021EA
:102310000448FFF78AFF04E0002280210148FFF70C
:1023200084FF10BD0000024010B504004FF40061AE
:102330000548FFF76EFF002802D1FFF784FD01E09A
:10234000FFF76EFD10BD00000000024080B50120C7
:10235000FFF775FF01BD11B581B00024FEF74AFEFD
:102360000400FEF747FE001B01998842F9D313BD14
:102370002DE9F04104000D005FF000088C48007862
:10238000002802D100208B4908808A480088B0F5D7
:10239000007F80F2D280404610F10108C0B22900CF
:1023A00080B289B2884280F0C88020780700641C1F
:1023B00080480088411C7F4A11807F4980B20F54B9
:1023C0007B480078002818D1FFB2012F03D10120EB
:1023D00077490870D9E7FFB2022F03D1072074496B
:1023E0000870D2E7FFB2FF2F03D1032070490870B5
:1023F000CBE700206E490870C7E76D4800780128D8
:1024000003D102206A490870BFE7694800780228B2
:1024100003D1062066490870B7E7654800780328AD
:1024200003D1042062490870AFE7614800780428AE
:1024300006D1FFB26148078005205D490870A4E716
:102440005B480078052817D15C480088FFB210EB84
:1024500007205A49088000205949088057480088B9
:10246000002805D100205249087000F068F88CE778
:102470000B204F49087088E74D480078062813D193
:10248000FFB24E48078000204D4908804B48008825
:10249000002805D100204649087000F050F874E784
:1024A0000B204349087070E741480078072803D1A2
:1024B00008203F49087068E73D480078082803D1A4
:1024C00009203B49087060E739480078092803D1A2
:1024D0000A203749087058E7354800780A2815D18E
:1024E0003848060070883549088000203449088043
:1024F00032480088002805D100202D49087000F0DE
:102500001EF842E70B202A4908703EE72848007869
:102510000B287FF43AAF2A480088401C28490880DD
:1025200027480088254909888842FFF42EAF0020FB
:102530001F49087000F003F827E7BDE8F08110B5E7
:1025400082B000241C480078FF281DD11E4A19487B
:102550000188194800F03EF8040000208DF80000C2
:102560009DF80000210080B289B288420BD2164843
:102570009DF80010405CFFF701FC9DF80000401C36
:102580008DF80000ECE712E000200100094A1288F3
:1025900089B2914207D2084980B2095C0B4A80B2E5
:1025A0001154401CF1E7034800880949088013BD15
:1025B000941500208E150020081000209215002090
:1025C000901500200910002008120020080C00209F
:1025D0008C150020F8B504000D0016000027FF2020
:1025E00030700120707060783071002070716078F8
:1025F000012804D0042809D005280AD00CE00120C5
:10260000B0710620F0710220070007E0FFF740FEDE
:1026100004E0FFF75DFE01E001207071BF1CB770A0
:102620000020F0703F1D380080B2F2BD80B5164822
:102630000088002826D0FFF734FC00224FF4805198
:102640001248FFF7F2FD4FF47A730F4802881049E1
:102650001048FEF7FEFD002800D0FEE700200A49E2
:10266000088001224FF480510848FFF7DEFDFFF794
:102670002EFC4FF400610548FFF7CBFD0028F8D091
:10268000FFF7F4FB01BD00008C15002000000240A4
:10269000080C0020441500201248006850F4807097
:1026A0001049086010480068104908400E49086049
:1026B0000C4800680E4908400A490860094800684B
:1026C00030F48020074908600748006830F47D0036
:1026D000054908600020074908605FF0006006496E
:1026E0000860704700380240083802400CC0FF887C
:1026F000FEFFFEEE0C38024008ED00E019E050F855
:10270000041BCB0744BFA9F101035918121F002372
:10271000042A41F8043BF9D25FEA827C0B4604D5D7
:102720004FF0000CA1F800C09B1CD10744BF002152
:10273000197050F8042B002AE1D170477047FEE76A
:1027400070477047704780B500F012F801BD80B542
:10275000FFF7E3FA01BD80B50148FEF73CFE01BD7D
:102760004415002080B54FF40060FFF768FD01BDFF
:1027700002480068401C0149086070478815002025
:1027800010B450F8041B79B1026843680244083061
:10279000DC0744BFA9F10104E31852F8044B43F8E5
:1027A000044B091FF9D1ECE710BC704710B507497D
:1027B00079441831064C7C44163404E00A68081D3C
:1027C000114488470146A142F8D110BD080000001D
:1027D0002800000029FFFFFF90090000080C0020DE
:1027E000000000009DFFFFFF040000004801000002
:1027F000000000200000000000F00BF8002801D0CD
:10280000FFF7D4FF0020C046C04600F004F800F0F7
:102810000AF80120704780B5FFF7E3F8FFF738FDAD
:10282000FFF704FFFCE700F001B800000746384658
:1028300000F002F8FBE7000080B5C046C046024A3F
:1028400011001820ABBEFBE72600020000000000CC
:102850000102030401020304060708090148804736
:102860000148004799260008792800080304060853
:102870000C10182030000000C046C046C046C046BC
:10288000FFF7BAFF01020304FFF7FEBFFFF7FEBF29
:10289000FFF7FEBFFFF7FEBFFFF7FEBFFFF7FEBF6C
:1028A000FFF7FEBFFFF7FEBFFFF7FEBFFFF7FEBF5C
:1028B000FFF7FEBFFFF7FEBFFFF7FEBFFFF7FEBF4C
:1028C000FFF7FEBFFFF7FEBFFFF7FEBFFFF7FEBF3C
:1028D000FFF7FEBFFFF7FEBFFFF7FEBFFFF7FEBF2C
:1028E000FFF7FEBFFFF7FEBFFFF7FEBFFFF7FEBF1C
:1028F000FFF7FEBFFFF7FEBFFFF7FEBFFFF7FEBF0C
:10290000FFF7FEBFFFF7FEBFFFF7FEBFFFF7FEBFFB
:10291000FFF7FEBFFFF7FEBFFFF7FEBFFFF7FEBFEB
:10292000FFF7FEBFFFF7FEBFFFF7FEBFFFF7FEBFDB
:08293000FFF7FEBF0048E801BB
:04000005080028794E
:00000001FF
